:100000000C9462000C948A000C948A000C948A0070
:100010000C948A000C948A000C948A000C948A0038
:100020000C948A000C948A000C948A000C948A0028
:100030000C948A000C948A000C948A000C948A0018
:100040000C94A8060C948A000C948A000C948A00E4
:100050000C948A000C948A000C948A000C948A00F8
:100060000C948A000C948A000000000024002700F1
:100070002A000000000023002600290000000000E4
:10008000250028002B0004040404040404040202D4
:100090000202020203030303030301020408102007
:1000A0004080010204081020010204081020000012
:1000B0000008000201000003040700000000000027
:1000C00000004A0711241FBECFEFD8E0DEBFCDBF2E
:1000D00011E0A0E0B1E0E8EEF7E102C005900D927A
:1000E000A632B107D9F723E0A6E2B1E001C01D9224
:1000F000AD33B207E1F710E0C2E6D0E004C02197CB
:10010000FE010E94E70BC136D107C9F70E946A07BA
:100110000C94F20B0C940000E0EBF0E02491ECE97D
:10012000F0E09491E8E8F0E0E491EE23C9F02223B6
:1001300039F0233001F1A8F4213019F1223029F1EE
:10014000F0E0EE0FFF1FE458FF4FA591B4912FB7D9
:10015000F894EC91811126C090959E239C932FBF1B
:1001600008952730A9F02830C9F0243049F72091AC
:1001700080002F7D03C0209180002F772093800086
:10018000DFCF24B52F7724BDDBCF24B52F7DFBCF68
:100190002091B0002F772093B000D2CF2091B000F3
:1001A0002F7DF9CF9E2BDACFDC0117962C91179774
:1001B00030E0F901E656FF4FE4911696EC9316975E
:1001C0002A573F4FF9018491E82FF0E0EE0FFF1F0F
:1001D000E458FF4F8591949113969C938E931297B8
:1001E000F9012491E22FF0E0EE0FFF1FEE58FF4FD0
:1001F0008591949115969C938E93149708953FB78B
:10020000F89480910A0390910B03A0910C03B09194
:100210000D0326B5A89B05C02F3F19F00196A11D1F
:10022000B11D3FBFBA2FA92F982F8827BC01CD0140
:10023000620F711D811D911D42E0660F771F881F9F
:10024000991F4A95D1F708954F925F926F927F92CE
:100250009F92AF92BF92CF92DF92EF92FF920F9355
:100260001F93CF93DF9300D01F92CDB7DEB7D82E68
:100270008091210390912203A0912303B091240344
:10028000892B8A2B8B2BD9F00E94FF0000911A0337
:1002900010911B0320911C0330911D03601B710BF7
:1002A000820B930B009121031091220320912303D1
:1002B000309124036017710782079307C8F20E94E8
:1002C000FF0060931A0370931B0380931C039093A9
:1002D0001D03E0912903F0912A03309759F04091D2
:1002E00025035091260360912703709128038D2DDB
:1002F0000995D82EE0901803F09019034D2C512C3D
:10030000712C612CE114F10409F459C0D7011C9639
:10031000CC901C9780911F03909120038436910507
:1003200010F41C961C92D701ED91FC91A280B38031
:1003300019821A821B82DD2079F1F701369610E0CE
:1003400000E02191222319F19280992001F130E0FF
:1003500050E040E02F5F3F4F4F4F5F4FC301B2016E
:100360000E94A80B9B01AC01892D90E0B0E0A0E0B9
:10037000BC01CD016F5F7F4F8F4F9F4F0E94A80B35
:10038000A1E0B0E0AC0FBD1FA00FB11F8C930F5FB9
:100390001F4F03301105A9F609811A812B81F7013E
:1003A0004585568562817381C701F5010995D7019D
:1003B0001C96CC921C971496ED90FC90A3CF809144
:1003C0001603909117039C012F5F3F4F3093170343
:1003D0002093160349970CF44AC08FB7F8942091E4
:1003E0000E0330910F0340911003509111038FBF02
:1003F0008091120390911303A0911403B0911503FF
:10040000281B390B4A0B5B0B21F421E030E040E064
:1004100050E0E0911603F091170388EE93E0E89F17
:10042000B001E99F700DF89F700D1124072E000C8C
:10043000880B990B0E94460A3093200320931F03D8
:1004400010921703109216032FB7F89480910E03A1
:1004500090910F03A0911003B09111032FBF8093CF
:10046000120390931303A0931403B09315030F90FA
:100470000F900F90DF91CF911F910F91FF90EF9010
:10048000DF90CF90BF90AF909F907F906F905F90E4
:100490004F90089580E991E008952F923F924F92F6
:1004A0005F926F927F928F929F92AF92BF92CF9204
:1004B000DF92EF92FF920F931F93CF93DF93CDB70D
:1004C000DEB729970FB6F894DEBF0FBECDBF898780
:1004D00049835A836B837C8300911803109119031D
:1004E000BDE78B2E912CA12CB12C0115110509F41F
:1004F0006BC0D801ED91FC910084F185E02DC8011D
:1005000009951C01D8011296ED91FC91C12CD12CBA
:100510007601412C512C320120E030E0A9010097F6
:1005200091F06081260F311D411D511D6181460EE4
:10053000511C611C711C6281C60ED11CE11CF11C96
:1005400001973396ECCFA0E5B0E00E94330A6D83AB
:100550007E838F839887A7E3B0E0A30192010E9476
:10056000330A2B013C01ABE4B0E0A70196010E94E5
:10057000330A2D813E814F815885C32ED42EE52E1E
:10058000FF2445E0429D9001439D300D1124C20E91
:10059000D31EE11CF11C8C0C9D1CAE1CBF1C452CF9
:1005A000562C672C7724840C951CA61CB71C472F4F
:1005B000582F692F7727840E951EA61EB71ED801C7
:1005C00014960D911C9191CFB985CB2ED12CF12C85
:1005D000E12CA7019601C501B4010E94A80B872E4A
:1005E000982EA92EBB2429813A814B815C818216E9
:1005F0009306A406B50668F0A701960169817A8181
:100600008B819C810E94A80BA50194010E94460A3F
:100610002987898529960FB6F894DEBF0FBECDBF16
:10062000DF91CF911F910F91FF90EF90DF90CF90CE
:10063000BF90AF909F908F907F906F905F904F9002
:100640003F902F900895FC01A281B3819C918681F7
:100650002681982381E0921380E00895FC01868131
:100660000280F381E02D9081809589238083089515
:10067000FC0196810280F381E02D8081892B8083AB
:1006800008950F931F93CF93DF93209127012F5F3E
:10069000322F37703093270120FF2BC020E831FD27
:1006A0002064347009F02062205FFC01EC01239685
:1006B00000E011E06485662329F070E0C8010E9423
:1006C000B80B6F5F6187322F369F030E30E0311D0C
:1006D0001124311110C01682662311F06150618718
:1006E0003196EC17FD0731F7DF91CF911F910F91F4
:1006F000089520E0D4CF31503683EECF4F925F92F1
:100700007F928F929F92AF92BF92CF92DF92EF92A1
:10071000FF920F931F93CF93DF932C01EB010E9465
:10072000FF00F20127853089621B730B6A30710567
:10073000B0F3F8948A819B81181619060CF0CBC18E
:10074000E881F98105B1016075B17E7F75B9BA8420
:100750008F812B2D281B822F2F834F85042E000C79
:10076000550BAA81BB81ED84DC84CE84E394D394C1
:10077000C3949E81388599848B84118120E0F32E67
:10078000622F322F3181112788943111380F08F4EC
:100790003FEF81958894E0FC130F17958894E1FC56
:1007A000130F17958894E2FC130F17958894E3FCB8
:1007B000130F17958894E4FC130F17958894E5FCA4
:1007C000130F17958894E6FC130F17958894E7FC90
:1007D000130F17958894232FE110212F8B0D122FC3
:1007E000002C05B900C017FF75B930812227889405
:1007F00000C000C0002C75B93111390F00C0002CA9
:1008000005B900C016FF75B908F43FEF91958894BB
:1008100000C000C0002C75B9D0FC230F00C0002C14
:1008200005B900C015FF75B927958894D1FC230F31
:1008300000C000C0002C75B92795889400C0002C1A
:1008400005B900C014FF75B9D2FC230F2795889411
:1008500000C000C0002C75B9D3FC230F00C0002CD1
:1008600005B900C013FF75B927958894D4FC230FF0
:1008700000C000C0002C75B92795889400C0002CDA
:1008800005B900C012FF75B9D5FC230F27958894D0
:1008900000C000C0002C75B9D6FC230F00C0002C8E
:1008A00005B900C011FF75B927958894D7FC230FAF
:1008B00000C000C0002C75B92795889400C0002C9A
:1008C00005B900C010FF75B9132FD110122F990D63
:1008D00000C000C0002C75B900C000C0002C05B9D4
:1008E00000C017FF75B932812227889400C000C06C
:1008F000002C75B931113F0D00C0002C05B900C0A6
:1009000016FF75B908F43FEFE40FF51F00C000C0F3
:10091000002C75B9C0FC230F00C0002C05B900C025
:1009200015FF75B927958894C1FC230F00C000C03E
:10093000002C75B92795889400C0002C05B900C01B
:1009400014FF75B9C2FC230F2795889400C000C01E
:10095000002C75B9C3FC230F00C0002C05B900C0E2
:1009600013FF75B927958894C4FC230F00C000C0FD
:10097000002C75B92795889400C0002C05B900C0DB
:1009800012FF75B9C5FC230F2795889400C000C0DD
:10099000002C75B9C6FC230F00C0002C05B900C09F
:1009A00011FF75B927958894C7FC230F00C000C0BC
:1009B000002C75B92795889400C0002C05B900C09B
:1009C00010FF75B9132FC110122FF19400C000C091
:1009D000002C75B9F80C00C000C005B900C017FFA5
:1009E00075B931812227889400C000C0002C75B9E8
:1009F0003111380F00C0002C05B900C016FF75B9C1
:100A000008F43FEF8195889400C000C0002C75B9B0
:100A1000E0FC230F00C0002C05B900C015FF75B91C
:100A200027958894E1FC230F00C000C0002C75B905
:100A30002795889400C0002C05B900C014FF75B933
:100A4000E2FC230F2795889400C000C0002C75B9E4
:100A5000E3FC230F00C0002C05B900C013FF75B9DB
:100A600027958894E4FC230F00C000C0002C75B9C2
:100A70002795889400C0002C05B900C012FF75B9F5
:100A8000E5FC230F2795889400C000C0002C75B9A1
:100A9000E6FC230F00C0002C05B900C011FF75B99A
:100AA00027958894E7FC230F00C000C0002C75B97F
:100AB0002795889400C0002C05B900C010FF75B9B7
:100AC000132FE110122F8B0D00C000C0002C75B940
:100AD000119709F086CE4A815B8120EE31E0DA0180
:100AE0000E94CC0BDC01CB01F4E0B695A79597955D
:100AF0008795FA95D1F730E020E0B901EAE94E9FF9
:100B0000040E611D5E9F600D711D1124650F711D26
:100B1000860F971FA11DB11D893E43E09407A105D3
:100B2000B10508F434C0885E9340A109B10942E0E0
:100B3000B695A795979587954A95D1F747E0849FF5
:100B4000080E211D949F200D311D1124290F311DE8
:100B50006091260170E0860F971F820F931F4091CE
:100B60000E0350910F036091100370911103292F10
:100B70003327420F531F611D711D40930E03509385
:100B80000F036093100370931103809326017894F0
:100B90000E94FF00F201708B6787DF91CF911F9158
:100BA0000F91FF90EF90DF90CF90BF90AF909F900C
:100BB0008F907F905F904F900895209A08956F9244
:100BC0007F928F92CF92DF92EF92FF920F931F93BB
:100BD000CF93DF93CDB7DEB762970FB6F894DEBF41
:100BE0000FBECDBF6C017A013801822EDC011C964C
:100BF0002C91CA0157FF04C088279927841B950BA5
:100C00007A8369839C838B839E838D836D867E86A6
:100C10008F86213049F5CE0101960E94410383E081
:100C2000888B1A8A198AF7FE02C08DEF888BD6014D
:100C3000ED91FC910484F585E02DBE016F5F7F4F3F
:100C4000C601099562960FB6F894DEBF0FBECDBF00
:100C5000DF91CF911F910F91FF90EF90DF90CF9098
:100C60008F907F906F9008951C861B861A86198638
:100C700018861F82D4CFEF92FF920F931F93CF93CA
:100C8000DF93CDB7DEB762970FB6F894DEBF0FBE25
:100C9000CDBF7C01DC011C968C917A8369835C83D7
:100CA0004B835E834D830D871E872F878130F9F438
:100CB000CE0101960E944103188A1A8A198AD70127
:100CC000ED91FC910484F585E02DBE016F5F7F4FAF
:100CD000C701099562960FB6F894DEBF0FBECDBF6F
:100CE000DF91CF911F910F91FF90EF9008951C8697
:100CF0001B861A86198618861F82DECF90E080E058
:100D00000895FC018585968508950F931F93CF93D1
:100D1000DF9300D01F92CDB7DEB7AB0119821A82E4
:100D20001B82DC01ED91FC910190F081E02D00E04F
:100D300010E020E0BE016F5F7F4F09950F900F908C
:100D40000F90DF91CF911F910F9108950E94ED0BAD
:100D50001F920F920FB60F9211242F933F938F93F0
:100D60009F93AF93BF9380910E0390910F03A09137
:100D70001003B09111033091090323E0230F2D37A5
:100D800058F50196A11DB11D2093090380930E0310
:100D900090930F03A0931003B093110380910A0363
:100DA00090910B03A0910C03B0910D030196A11D2E
:100DB000B11D80930A0390930B03A0930C03B0938F
:100DC0000D03BF91AF919F918F913F912F910F9004
:100DD0000FBE0F901F90189526E8230F0296A11DB5
:100DE000B11DD2CFCF92DF92EF92FF920F931F935C
:100DF000E82FF92F05C0015011092109310961F1CE
:100E0000908196239417B9F305C001501109210967
:100E1000310911F1908196239413F7CFC12CD12C75
:100E2000E12CF12C0AC08FEFC81AD80AE80AF80A98
:100E30000C151D052E053F0579F08081862384174A
:100E400091F36C2D7D2D8E2D9F2D1F910F91FF9075
:100E5000EF90DF90CF90089560E070E080E090E048
:100E60001F910F91FF90EF90DF90CF900895FC01BC
:100E70000FB6F8946091390370913A0380913B0367
:100E800090913C030FBE309721F060837183828381
:100E900093830895EEE1F3E08FEF80831282118255
:100EA000148613868FEF9FEFDC0187839087A187DD
:100EB000B287EBE2F3E01182108213821282158274
:100EC0001482178216821186108613861286158662
:100ED00014860895789484B5826084BD84B5816059
:100EE00084BD85B5826085BD85B5816085BD8091F5
:100EF0006E00816080936E0010928100809181006D
:100F00008260809381008091810081608093810064
:100F1000809180008160809380008091B100846026
:100F20008093B1008091B00081608093B000809187
:100F30007A00846080937A0080917A008260809346
:100F40007A0080917A00816080937A0080917A00A3
:100F5000806880937A001092C100ECE9F0E024915F
:100F6000E8E8F0E08491882399F090E0880F991FD9
:100F7000FC01E859FF4FA591B491FC01E458FF4FE3
:100F8000859194918FB7F894EC91E22BEC938FBFFD
:100F90004DE9442E40E0542EF2012491C9E8D0E0FE
:100FA000FE0184918823C9F090E0880F991FFC010D
:100FB000E859FF4FA591B491FC01E458FF4F4591CA
:100FC00054913FB7F8949C91822F809598239C93DD
:100FD000FA019081892380833FBF90E080E00E94E6
:100FE0003707CB010E94090A0E94FF004B015C01F8
:100FF00088EBC82E8BE0D82EE12CF12C0E94FF004C
:10100000681979098A099B09683E73408105910531
:10101000A8F3F1E0CF1AD108E108F10828EE820E1A
:1010200023E0921EA11CB11CC114D104E104F104FF
:1010300029F78DE492E090932A038093290388E9AD
:101040009AE3A0E0B0E08093250390932603A09359
:101050002703B093280380913B01811145C0109272
:101060002D0110922C018FEF80933001809331017C
:101070008093320180933301809334018093350152
:1010800081E080933601109238011092370110925E
:101090002F0110922E018091180390911903892B32
:1010A00031F48AE291E09093190380931803E09160
:1010B0002801F0912901309721F08AE291E095838F
:1010C00084838AE291E09093290180932801109211
:1010D0003A011092390188E191E090932B018093BD
:1010E0002A0181E080933B01209A83E491E0909370
:1010F0002D0180932C0186E990E090933801809334
:1011000037018091210390912203A0912303B09194
:101110002403843C49E09407A105B10520F484EC44
:1011200099E0A0E0B0E08093210390932203A09384
:101130002303B093240384E680931E030E942401BA
:10114000E3E0EE2EF12CF3E2CF2ED12CAA24AA94C8
:10115000B12CB5E56B2E1BEA712E00E0802E00E06D
:10116000902E80E00E948C00C7010197F1F781E08A
:101170000E948C00C6010197F1F780E00E948C006C
:10118000F2016491FE018491E82FF0E0EE0FFF1F61
:10119000EE58FF4F8591949100E412E42FE030E087
:1011A000462F0E94F206611571058105910529F00F
:1011B0006F5F7F4F8F4F9F4F9F700E94AF0A26E94E
:1011C00033E44BE05DE30E94130B20E030E040E0AD
:1011D0005FE30E94130B0E94770A9B0177FF02C016
:1011E0002F5F3F4FC9019595879590930803809392
:1011F0000703312C809105039091060388309105F7
:1012000004F10BE213E083E00734180709F4A9C0E6
:10121000F801819191918F0186399105A4F30E9483
:10122000040AF80132976091070370910803660F72
:10123000771F0E94B80B91958195910991838083C6
:10124000E2CF880F991FFC01E55DFC4F0081118101
:101250000639110570F50E94040AB5010E94B80B09
:10126000582F282F220F220F220F322F462D349F66
:10127000030E30E0311D1124932F482F40728074EB
:1012800057FD50C081113EC0411105C0832F80958C
:10129000982F80E004C035E5390F80E09BEAF80123
:1012A000EE0FFF1FE00FF11FED5BFE4F90833183C8
:1012B000828380911E030E942401E3E4F1E02081F7
:1012C00031EE239F020E20E0211D20832181239FE8
:1012D000020E20E0211D21832281239F020E20E0A7
:1012E000211D22831124339643E0E530F40739F7BA
:1012F00080910503909106030196909306038093D5
:10130000050378CF41110AC03AEA239F020E20E07C
:10131000211D1124872D821B390FBACF3095892FBB
:1013200090E0BDCF811111C041110BC04AEA249F4A
:10133000020E20E0211D1124372D321B85E5820F7E
:10134000EFCF832F809530E0AACF411106C025E56D
:10135000230F872D891B922FF6CF2AEA230F862D84
:10136000F9CF8114910409F4FCCE0E940000F9CE5B
:101370008F929F92AF92BF92CF92DF92EF92FF92A5
:10138000CF93DF93EC01688179818A819B8161151C
:1013900071058105910521F464E279ED8BE597E013
:1013A0002DE133EF41E050E00E94140A49015A0157
:1013B0009B01AC01A7EAB1E40E94330A6B017C01F6
:1013C000ACEEB4EFA50194010E94410ADC01CB010F
:1013D0008C0D9D1DAE1DBF1DB7FF03C00197A10958
:1013E000B04888839983AA83BB839F77DF91CF918D
:1013F000FF90EF90DF90CF90BF90AF909F908F9035
:1014000008950E94B809089580E091E00E94B8090B
:101410000895B0E0A0E08093000190930101A093B3
:101420000201B09303010895052E97FB1EF400946A
:101430000E942B0A57FD07D00E94460A07FC03D0E2
:101440004EF40C942B0A50954095309521953F4FC2
:101450004F4F5F4F089590958095709561957F4FA0
:101460008F4F9F4F08950E94680AA59F900DB49FCB
:10147000900DA49F800D911D11240895B7FF0C9429
:10148000330A0E94330A821B930B0895A1E21A2E9D
:10149000AA1BBB1BFD010DC0AA1FBB1FEE1FFF1F18
:1014A000A217B307E407F50720F0A21BB30BE40B68
:1014B000F50B661F771F881F991F1A9469F76095AF
:1014C0007095809590959B01AC01BD01CF01089569
:1014D000A29FB001B39FC001A39F700D811D112475
:1014E000911DB29F700D811D1124911D08950E94C0
:1014F0007E0A6894B1110C940D0B08950E94F20AB3
:1015000088F09F5798F0B92F9927B751B0F0E1F0C4
:10151000660F771F881F991F1AF0BA95C9F714C074
:10152000B13091F00E940C0BB1E008950C940C0BBB
:10153000672F782F8827B85F39F0B93FCCF38695AD
:1015400077956795B395D9F73EF49095809570950A
:1015500061957F4F8F4F9F4F0895E89409C097FB87
:101560003EF490958095709561957F4F8F4F9F4F7A
:101570009923A9F0F92F96E9BB279395F6958795BE
:1015800077956795B795F111F8CFFAF4BB0F11F481
:1015900060FF1BC06F5F7F4F8F4F9F4F16C0882328
:1015A00011F096E911C0772321F09EE8872F762F5E
:1015B00005C0662371F096E8862F70E060E02AF09F
:1015C0009A95660F771F881FDAF7880F969587958B
:1015D00097F9089557FD9058440F551F59F05F3FF4
:1015E00071F04795880F97FB991F61F09F3F79F045
:1015F00087950895121613061406551FF2CF4695C7
:10160000F1DF08C0161617061806991FF1CF869548
:101610007105610508940895E894BB27662777272C
:10162000CB0197F908950E94260B0C94970B0E940A
:10163000890B38F00E94900B20F0952311F00C9448
:10164000800B0C94860B11240C940D0B0E94EA0A5B
:1016500070F3959FC1F3950F50E0551F629FF00105
:10166000729FBB27F00DB11D639FAA27F00DB11D1E
:10167000AA1F649F6627B00DA11D661F829F2227A7
:10168000B00DA11D621F739FB00DA11D621F839F2E
:10169000A00D611D221F749F3327A00D611D231F04
:1016A000849F600D211D822F762F6A2F11249F5752
:1016B00050409AF0F1F088234AF0EE0FFF1FBB1F55
:1016C000661F771F881F91505040A9F79E3F510514
:1016D00080F00C94800B0C940D0B5F3FE4F3983E6C
:1016E000D4F3869577956795B795F795E7959F5FBE
:1016F000C1F7FE2B880F911D9695879597F9089550
:1017000097F99F6780E870E060E008959FEF80ECB4
:10171000089500240A941616170618060906089557
:1017200000240A9412161306140605060895092EBD
:101730000394000C11F4882352F0BB0F40F4BF2B2C
:1017400011F460FF04C06F5F7F4F8F4F9F4F08956C
:10175000DB018F939F930E94330ABF91AF91A29FA9
:10176000800D911DA39F900DB29F900D112408959F
:1017700097FB072E16F4009407D077FD09D00E943E
:10178000D30B07FC05D03EF4909581959F4F0895AB
:10179000709561957F4F08950E94680AB7FF08957C
:1017A000821B930B0895AA1BBB1B51E107C0AA1F04
:1017B000BB1FA617B70710F0A61BB70B881F991FF2
:1017C0005A95A9F780959095BC01CD010895EE0F2B
:1017D000FF1F0590F491E02D099481E090E0F894CA
:0817E0000C94F20BF894FFCF0A
:1017E8000100000000000000A606A606A606850661
:1017F80081067E06000000003B06DF05DD05850644
:0618080081064A027E0386
:00000001FF
