:100000000C9462000C948A000C948A000C948A0070
:100010000C948A000C948A000C948A000C948A0038
:100020000C948A000C948A000C948A000C948A0028
:100030000C948A000C948A000C948A000C948A0018
:100040000C9449080C948A000C94B9080C949308F9
:100050000C948A000C948A000C948A000C948A00F8
:100060000C948A000C948A000000000024002700F1
:100070002A000000000023002600290000000000E4
:10008000250028002B0004040404040404040202D4
:100090000202020203030303030301020408102007
:1000A0004080010204081020010204081020000012
:1000B0000008000201000003040700000000000027
:1000C0000000430911241FBECFEFD8E0DEBFCDBF33
:1000D00011E0A0E0B1E0E0EEFBE102C005900D927E
:1000E000A833B107D9F723E0A8E3B1E001C01D921E
:1000F000A03EB207E1F710E0C2E6D0E004C02197CD
:10010000FE010E94E30DC136D107C9F70E947F09A5
:100110000C94EE0D0C940000E0EBF0E02491ECE97F
:10012000F0E09491E8E8F0E0E491EE23C9F02223B6
:1001300039F0233001F1A8F4213019F1223029F1EE
:10014000F0E0EE0FFF1FE458FF4FA591B4912FB7D9
:10015000F894EC91811126C090959E239C932FBF1B
:1001600008952730A9F02830C9F0243049F72091AC
:1001700080002F7D03C0209180002F772093800086
:10018000DFCF24B52F7724BDDBCF24B52F7DFBCF68
:100190002091B0002F772093B000D2CF2091B000F3
:1001A0002F7DF9CF9E2BDACFDC0117962C91179774
:1001B00030E0F901E656FF4FE4911696EC9316975E
:1001C0002A573F4FF9018491E82FF0E0EE0FFF1F0F
:1001D000E458FF4F8591949113969C938E931297B8
:1001E000F9012491E22FF0E0EE0FFF1FEE58FF4FD0
:1001F0008591949115969C938E93149708953FB78B
:10020000F89480911E0390911F03A0912003B09158
:10021000210326B5A89B05C02F3F19F00196A11D0B
:10022000B11D3FBFBA2FA92F982F8827BC01CD0140
:10023000620F711D811D911D42E0660F771F881F9F
:10024000991F4A95D1F708954F925F926F927F92CE
:100250009F92AF92BF92CF92DF92EF92FF920F9355
:100260001F93CF93DF9300D01F92CDB7DEB7D82E68
:100270008091D2039091D303A091D403B091D50380
:10028000892B8A2B8B2BD9F00E94FF0000912E0323
:1002900010912F032091300330913103601B710BBB
:1002A000820B930B0091D2031091D3032091D403BE
:1002B0003091D5036017710782079307C8F20E9437
:1002C000FF0060932E0370932F038093300390936D
:1002D0003103E091DA03F091DB03309759F040915C
:1002E000D6035091D7036091D8037091D9038D2D17
:1002F0000995D82EE0902C03F0902D034D2C512C15
:10030000712C612CE114F10409F459C0D7011C9639
:10031000CC901C978091D0039091D10384369105A5
:1003200010F41C961C92D701ED91FC91A280B38031
:1003300019821A821B82DD2079F1F701369610E0CE
:1003400000E02191222319F19280992001F130E0FF
:1003500050E040E02F5F3F4F4F4F5F4FC301B2016E
:100360000E94A40D9B01AC01892D90E0B0E0A0E0BB
:10037000BC01CD016F5F7F4F8F4F9F4F0E94A40D37
:10038000A1E0B0E0AC0FBD1FA00FB11F8C930F5FB9
:100390001F4F03301105A9F609811A812B81F7013E
:1003A0004585568562817381C701F5010995D7019D
:1003B0001C96CC921C971496ED90FC90A3CF809144
:1003C0002A0390912B039C012F5F3F4F30932B0307
:1003D00020932A0349970CF44AC08FB7F8942091D0
:1003E00022033091230340912403509125038FBFB2
:1003F0008091260390912703A0912803B0912903AF
:10040000281B390B4A0B5B0B21F421E030E040E064
:1004100050E0E0912A03F0912B0388EE93E0E89FEF
:10042000B001E99F700DF89F700D1124072E000C8C
:10043000880B990B0E94420C3093D1032093D00378
:1004400010922B0310922A032FB7F8948091220365
:1004500090912303A0912403B09125032FBF809393
:10046000260390932703A0932803B09329030F90AA
:100470000F900F90DF91CF911F910F91FF90EF9010
:10048000DF90CF90BF90AF909F907F906F905F90E4
:100490004F9008958F929F92AF92BF92CF92DF922A
:1004A000EF92FF926B017C010E94FF004B015C0107
:1004B000C114D104E104F104B9F00E94FF006819ED
:1004C00079098A099B09683E73408105910580F38B
:1004D00021E0C21AD108E108F10888EE880E83E015
:1004E000981EA11CB11CE4CFFF90EF90DF90CF903D
:1004F000BF90AF909F908F90089580E991E008950C
:10050000AF92BF92CF92DF92EF92FF920F931F9321
:10051000CF93DF936C017B018B01040F151FEB015F
:100520005E01AE18BF08C017D10759F06991D60116
:10053000ED91FC910190F081E02DC6010995892B88
:1005400079F7C501DF91CF911F910F91FF90EF9047
:10055000DF90CF90BF90AF900895FC01538D448DF4
:10056000252F30E0842F90E0821B930B541710F05E
:10057000CF96089501970895FC01918D828D98176B
:1005800061F0A28DAE0FBF2FB11D5D968C91928D43
:100590009F5F9F73928F90E008958FEF9FEF089574
:1005A000FC01918D828D981731F0828DE80FF11D3D
:1005B000858D90E008958FEF9FEF0895FC01918D58
:1005C000228D892F90E0805C9F4F821B91098F7351
:1005D0009927089582E393E00E94DE0221E0892BAF
:1005E00009F420E0822F089580E090E0892B29F023
:1005F0000E94EA0281110C9400000895FC01A48D70
:10060000A80FB92FB11DA35ABF4F2C91848D90E034
:1006100001968F739927848FA689B7892C93A08917
:10062000B1898C91837080648C93938D848D9813A1
:1006300006C00288F389E02D80818F7D8083089534
:10064000EF92FF920F931F93CF93DF93EC0181E022
:10065000888F9B8D8C8D98131AC0E889F9898081C9
:1006600085FF15C09FB7F894EE89FF896083E889FC
:10067000F98980818370806480839FBF81E090E0EE
:10068000DF91CF911F910F91FF90EF900895F62E7B
:100690000B8D10E00F5F1F4F0F731127E02E8C8D15
:1006A0008E110CC00FB607FCFACFE889F98980815A
:1006B00085FFF5CFCE010E94FE02F1CFEB8DEC0F4E
:1006C000FD2FF11DE35AFF4FF0829FB7F8940B8F77
:1006D000EA89FB8980818062CFCFCF93DF93EC01E1
:1006E000888D8823B9F0AA89BB89E889F9898C911A
:1006F00085FD03C0808186FD0DC00FB607FCF7CFD6
:100700008C9185FFF2CF808185FFEDCFCE010E94D5
:10071000FE02E9CFDF91CF9108952F923F924F9241
:100720005F926F927F928F929F92AF92BF92CF9281
:10073000DF92EF92FF920F931F93CF93DF93CDB78A
:10074000DEB729970FB6F894DEBF0FBECDBF8987FD
:1007500049835A836B837C8300912C0310912D0372
:10076000BDE78B2E912CA12CB12C0115110509F49C
:100770006BC0D801ED91FC910084F185E02DC8019A
:1007800009951C01D8011296ED91FC91C12CD12C38
:100790007601412C512C320120E030E0A901009774
:1007A00091F06081260F311D411D511D6181460E62
:1007B000511C611C711C6281C60ED11CE11CF11C14
:1007C00001973396ECCFA0E5B0E00E942F0C6D832B
:1007D0007E838F839887A7E3B0E0A30192010E94F4
:1007E0002F0C2B013C01ABE4B0E0A70196010E9465
:1007F0002F0C2D813E814F815885C32ED42EE52E9E
:10080000FF2445E0429D9001439D300D1124C20E0E
:10081000D31EE11CF11C8C0C9D1CAE1CBF1C452C76
:10082000562C672C7724840C951CA61CB71C472FCC
:10083000582F692F7727840E951EA61EB71ED80144
:1008400014960D911C9191CFB985CB2ED12CF12C02
:10085000E12CA7019601C501B4010E94A40D872EC9
:10086000982EA92EBB2429813A814B815C81821666
:100870009306A406B50668F0A701960169817A81FE
:100880008B819C810E94A40DA50194010E94420CC1
:100890002987898529960FB6F894DEBF0FBECDBF94
:1008A000DF91CF911F910F91FF90EF90DF90CF904C
:1008B000BF90AF909F908F907F906F905F904F9080
:1008C0003F902F900895FC01A281B3819C91868175
:1008D0002681982381E0921380E00895FC018681AF
:1008E0000280F381E02D9081809589238083089593
:1008F000FC0196810280F381E02D8081892B808329
:1009000008950F931F93CF93DF93209139012F5FA9
:10091000322F37703093390120FF2BC020E831FD92
:100920002064347009F02062205FFC01EC01239602
:1009300000E011E06485662329F070E0C8010E94A0
:10094000B40D6F5F6187322F369F030E30E0311D8B
:100950001124311110C01682662311F06150618795
:100960003196EC17FD0731F7DF91CF911F910F9171
:10097000089520E0D4CF31503683EECF4F925F926E
:100980007F928F929F92AF92BF92CF92DF92EF921F
:10099000FF920F931F93CF93DF932C01EB010E94E3
:1009A000FF00F20127853089621B730B6A307105E5
:1009B000B0F3F8948A819B81181619060CF0CBC10C
:1009C000E881F98105B1016075B17E7F75B9BA849E
:1009D0008F812B2D281B822F2F834F85042E000CF7
:1009E000550BAA81BB81ED84DC84CE84E394D3943F
:1009F000C3949E81388599848B84118120E0F32EE5
:100A0000622F322F3181112788943111380F08F469
:100A10003FEF81958894E0FC130F17958894E1FCD3
:100A2000130F17958894E2FC130F17958894E3FC35
:100A3000130F17958894E4FC130F17958894E5FC21
:100A4000130F17958894E6FC130F17958894E7FC0D
:100A5000130F17958894232FE110212F8B0D122F40
:100A6000002C05B900C017FF75B930812227889482
:100A700000C000C0002C75B93111390F00C0002C26
:100A800005B900C016FF75B908F43FEF9195889439
:100A900000C000C0002C75B9D0FC230F00C0002C92
:100AA00005B900C015FF75B927958894D1FC230FAF
:100AB00000C000C0002C75B92795889400C0002C98
:100AC00005B900C014FF75B9D2FC230F279588948F
:100AD00000C000C0002C75B9D3FC230F00C0002C4F
:100AE00005B900C013FF75B927958894D4FC230F6E
:100AF00000C000C0002C75B92795889400C0002C58
:100B000005B900C012FF75B9D5FC230F279588944D
:100B100000C000C0002C75B9D6FC230F00C0002C0B
:100B200005B900C011FF75B927958894D7FC230F2C
:100B300000C000C0002C75B92795889400C0002C17
:100B400005B900C010FF75B9132FD110122F990DE0
:100B500000C000C0002C75B900C000C0002C05B951
:100B600000C017FF75B932812227889400C000C0E9
:100B7000002C75B931113F0D00C0002C05B900C023
:100B800016FF75B908F43FEFE40FF51F00C000C071
:100B9000002C75B9C0FC230F00C0002C05B900C0A3
:100BA00015FF75B927958894C1FC230F00C000C0BC
:100BB000002C75B92795889400C0002C05B900C099
:100BC00014FF75B9C2FC230F2795889400C000C09C
:100BD000002C75B9C3FC230F00C0002C05B900C060
:100BE00013FF75B927958894C4FC230F00C000C07B
:100BF000002C75B92795889400C0002C05B900C059
:100C000012FF75B9C5FC230F2795889400C000C05A
:100C1000002C75B9C6FC230F00C0002C05B900C01C
:100C200011FF75B927958894C7FC230F00C000C039
:100C3000002C75B92795889400C0002C05B900C018
:100C400010FF75B9132FC110122FF19400C000C00E
:100C5000002C75B9F80C00C000C005B900C017FF22
:100C600075B931812227889400C000C0002C75B965
:100C70003111380F00C0002C05B900C016FF75B93E
:100C800008F43FEF8195889400C000C0002C75B92E
:100C9000E0FC230F00C0002C05B900C015FF75B99A
:100CA00027958894E1FC230F00C000C0002C75B983
:100CB0002795889400C0002C05B900C014FF75B9B1
:100CC000E2FC230F2795889400C000C0002C75B962
:100CD000E3FC230F00C0002C05B900C013FF75B959
:100CE00027958894E4FC230F00C000C0002C75B940
:100CF0002795889400C0002C05B900C012FF75B973
:100D0000E5FC230F2795889400C000C0002C75B91E
:100D1000E6FC230F00C0002C05B900C011FF75B917
:100D200027958894E7FC230F00C000C0002C75B9FC
:100D30002795889400C0002C05B900C010FF75B934
:100D4000132FE110122F8B0D00C000C0002C75B9BD
:100D5000119709F086CE4A815B8120EE31E0DA01FD
:100D60000E94C80DDC01CB01F4E0B695A7959795DC
:100D70008795FA95D1F730E020E0B901EAE94E9F76
:100D8000040E611D5E9F600D711D1124650F711DA4
:100D9000860F971FA11DB11D893E43E09407A10551
:100DA000B10508F434C0885E9340A109B10942E05E
:100DB000B695A795979587954A95D1F747E0849F73
:100DC000080E211D949F200D311D1124290F311D66
:100DD0006091380170E0860F971F820F931F40913A
:100DE0002203509123036091240370912503292F3E
:100DF0003327420F531F611D711D409322035093EF
:100E0000230360932403709325038093380178941F
:100E10000E94FF00F201708B6787DF91CF911F91D5
:100E20000F91FF90EF90DF90CF90BF90AF909F9089
:100E30008F907F905F904F900895209A08956F92C1
:100E40007F928F92CF92DF92EF92FF920F931F9338
:100E5000CF93DF93CDB7DEB762970FB6F894DEBFBE
:100E60000FBECDBF6C017A013801822EDC011C96C9
:100E70002C91CA0157FF04C088279927841B950B22
:100E80007A8369839C838B839E838D836D867E8624
:100E90008F86213049F5CE0101960E94810483E0BE
:100EA000888B1A8A198AF7FE02C08DEF888BD601CB
:100EB000ED91FC910484F585E02DBE016F5F7F4FBD
:100EC000C601099562960FB6F894DEBF0FBECDBF7E
:100ED000DF91CF911F910F91FF90EF90DF90CF9016
:100EE0008F907F906F9008951C861B861A861986B6
:100EF00018861F82D4CFEF92FF920F931F93CF9348
:100F0000DF93CDB7DEB762970FB6F894DEBF0FBEA2
:100F1000CDBF7C01DC011C968C917A8369835C8354
:100F20004B835E834D830D871E872F878130F9F4B5
:100F3000CE0101960E948104188A1A8A198AD70163
:100F4000ED91FC910484F585E02DBE016F5F7F4F2C
:100F5000C701099562960FB6F894DEBF0FBECDBFEC
:100F6000DF91CF911F910F91FF90EF9008951C8614
:100F70001B861A86198618861F82DECF382FE5E574
:100F8000F1E02081239F020E20E0211D208321819A
:100F9000239F020E20E0211D21832281239F020E28
:100FA00020E0211D22831124339683E0E731F807E6
:100FB00041F7089590E080E00895FC0185859685CD
:100FC00008950F931F93CF93DF9300D01F92CDB757
:100FD000DEB7AB0119821A821B82DC01ED91FC9114
:100FE0000190F081E02D00E010E020E0BE016F5F95
:100FF0007F4F09950F900F900F90DF91CF911F9128
:101000000F9108950E94E90D0F931F9380E00E94B5
:101010008C0083E090E00197F1F781E00E948C0062
:1010200083E290E00197F1F780E00E948C00EDE907
:10103000F0E06491E9E8F0E0E491F0E0EE0FFF1FEA
:10104000EE58FF4F8591949100E412E42FE030E0D8
:10105000462F0E94EB08611571058105910529F065
:101060006F5F7F4F8F4F9F4F9F700E94AB0C26E9A1
:1010700033E44BE05DE30E940F0D20E030E040E000
:101080005FE30E940F0D0E94730CCB011F910F9123
:1010900008951F920F920FB60F9211242F933F9332
:1010A0008F939F93AF93BF938091220390912303DB
:1010B000A0912403B091250330911D0323E0230F59
:1010C0002D3758F50196A11DB11D20931D03809366
:1010D000220390932303A0932403B09325038091CC
:1010E0001E0390911F03A0912003B091210301964C
:1010F000A11DB11D80931E0390931F03A093200395
:10110000B0932103BF91AF919F918F913F912F9108
:101110000F900FBE0F901F90189526E8230F029690
:10112000A11DB11DD2CF1F920F920FB60F921124A5
:101130002F933F934F935F936F937F938F939F93DF
:10114000AF93BF93EF93FF9382E393E00E94FE027D
:10115000FF91EF91BF91AF919F918F917F916F918F
:101160005F914F913F912F910F900FBE0F901F9065
:1011700018951F920F920FB60F9211242F938F93F1
:101180009F93EF93FF93E0914203F091430380819B
:10119000E0914803F091490382FD1BC0908180914A
:1011A0004B038F5F8F7320914C03821741F0E091C6
:1011B0004B03F0E0EE5CFC4F958F80934B03FF9167
:1011C000EF919F918F912F910F900FBE0F901F90D5
:1011D00018958081F4CFCF92DF92EF92FF920F9318
:1011E0001F93E82FF92F05C001501109210931097A
:1011F00061F1908196239417B9F305C0015011094C
:101200002109310911F1908196239413F7CFC12C54
:10121000D12CE12CF12C0AC08FEFC81AD80AE80AA9
:10122000F80A0C151D052E053F0579F080818623EF
:10123000841791F36C2D7D2D8E2D9F2D1F910F9175
:10124000FF90EF90DF90CF90089560E070E080E035
:1012500090E01F910F91FF90EF90DF90CF90089555
:10126000FC010FB6F8946091DC037091DD0380916E
:10127000DE039091DF030FBE309721F0608371830E
:10128000828393830895E2E3F3E01382128288EE6F
:1012900093E0A0E0B0E084839583A683B7838AE2DD
:1012A00091E09183808385EC90E09587848784EC3E
:1012B00090E09787868780EC90E0918B808B81EC23
:1012C00090E0938B828B82EC90E0958B848B86EC04
:1012D00090E0978B868B118E128E138E148EEFEC0E
:1012E000F3E08FEF808312821182148613868FEFD2
:1012F0009FEFDC0187839087A187B2870895789458
:1013000084B5826084BD84B5816084BD85B582600A
:1013100085BD85B5816085BD80916E0081608093BB
:101320006E00109281008091810082608093810024
:101330008091810081608093810080918000816034
:10134000809380008091B10084608093B10080918F
:10135000B00081608093B00080917A0084608093B7
:101360007A0080917A00826080937A0080917A007E
:10137000816080937A0080917A00806880937A00FF
:101380001092C100ECE9F0E02491E8E8F0E08491EB
:10139000882399F090E0880F991FFC01E859FF4FCE
:1013A000A591B491FC01E458FF4F859194918FB7BA
:1013B000F894EC91E22BEC938FBFEDE9F0E02491EF
:1013C000E9E8F0E084918823C1F090E0880F991F4C
:1013D000FC01E859FF4FC591D491FC01E458FF4F3F
:1013E000A591B4919FB7F8948881E22FE0958E2360
:1013F00088838C91E823EC939FBFE0914203F091A6
:10140000430382E08083E0913E03F0913F0310822A
:10141000E0914003F09141038FEC808310924A03E6
:10142000E0914603F091470386E08083E091440316
:10143000F0914503808180618083E0914403F091C5
:101440004503808188608083E0914403F0914503E7
:10145000808180688083E0914403F091450380811E
:101460008F7D808390E080E00E943009CB010E9454
:10147000050C68EB7BE080E090E00E944A028DE87A
:1014800093E09093DB038093DA0388E99AE3A0E08A
:10149000B0E08093D6039093D703A093D803B09382
:1014A000D90380914D01811145C010923F011092E6
:1014B0003E018FEF8093420180934301809344016A
:1014C00080934501809346018093470181E080939A
:1014D000480110924A011092490110924101109264
:1014E000400180912C0390912D03892B31F48CE3E2
:1014F00091E090932D0380932C03E0913A01F091B9
:101500003B01309721F08CE391E0958384838CE359
:1015100091E090933B0180933A0110924C0110921C
:101520004B0188E191E090933D0180933C0181E083
:1015300080934D01209A85E591E090933F0180933F
:101540003E0186E990E090934A01809349018091A1
:10155000D2039091D303A091D403B091D503843CDE
:1015600009E09007A105B10520F484EC99E0A0E022
:10157000B0E08093D2039093D303A093D403B093AD
:10158000D50384E68093CF030E9424018FE1C82E07
:10159000D12C15E598EF992EC0E020E0A22E20E096
:1015A000B22ED0EB0BEA802E0E94040897FD019624
:1015B0009595879590931C0380931B030E940408C4
:1015C0000E94000CB6010E94B40D7C0121EEE20ED7
:1015D000F11C2091190330911A03263931050CF0C2
:1015E000AEC0C901019690931A0380931903692D27
:1015F000619F060E60E0611D11244C2F52E85523B7
:1016000029F0559F412D112451114F5F842F809552
:101610005AEA560F782F579F050E50E0511D7C2F28
:10162000082F709F070E70E0711D912F961B692F78
:10163000609F060E60E0611D1124F901EE0FFF1F8F
:10164000E20FF31FEB5AFE4F540F5083740F718358
:10165000460F42838091CF030E942401C7010E945C
:10166000BE0760E070E0CB010E944A02209119039E
:1016700030911A0380911B0390911C0382179307EA
:101680000CF04BC00E94000CB6010E94B40D7C010E
:1016900001EEE00EF11C80911B0390911C038A5611
:1016A0009F4F20911703309118038217930724F45A
:1016B000109218031092170380911703909118034A
:1016C0009C012F5F3F4F30931803209317032D2F5A
:1016D000219F020E20E0211D11242D2F3AEA239F85
:1016E000020E20E0211D1124FC01EE0FFF1FE80F68
:1016F000F91FEB5AFE4F1082882D821B81832B5AD3
:1017000022838091CF030E942401C7010E94BE075B
:1017100060E070E0CB010E944A0261E070E080E08E
:1017200090E00E944A02A114B10409F43DCF0E9446
:10173000EA02882309F436CF0E94000032CF80915C
:101740001B0390911C038A569F4F821793073CF00E
:101750002F5F3F4F30931A03209319037BCF1092D2
:101760001A031092190376CF8F929F92AF92BF9275
:10177000CF92DF92EF92FF92CF93DF93EC016881DB
:1017800079818A819B81611571058105910521F41B
:1017900064E279ED8BE597E02DE133EF41E050E035
:1017A0000E94100C49015A019B01AC01A7EAB1E467
:1017B0000E942F0C6B017C01ACEEB4EFA5019401EB
:1017C0000E943D0CDC01CB018C0D9D1DAE1DBF1D8B
:1017D000B7FF03C00197A109B04888839983AA8302
:1017E000BB839F77DF91CF91FF90EF90DF90CF90F9
:1017F000BF90AF909F908F9008950E94B40B089572
:1018000080E091E00E94B40B0895B0E0A0E08093E6
:10181000000190930101A0930201B0930301089588
:10182000052E97FB1EF400940E94270C57FD07D04D
:101830000E94420C07FC03D04EF40C94270C5095E8
:101840004095309521953F4F4F4F5F4F08959095AC
:101850008095709561957F4F8F4F9F4F08950E949F
:10186000640CA59F900DB49F900DA49F800D911DB9
:1018700011240895B7FF0C942F0C0E942F0C821B8B
:10188000930B0895A1E21A2EAA1BBB1BFD010DC0EC
:10189000AA1FBB1FEE1FFF1FA217B307E407F50720
:1018A00020F0A21BB30BE40BF50B661F771F881FFC
:1018B000991F1A9469F760957095809590959B0192
:1018C000AC01BD01CF010895A29FB001B39FC0013B
:1018D000A39F700D811D1124911DB29F700D811D5C
:1018E0001124911D08950E947A0C6894B1110C94F2
:1018F000090D08950E94EE0C88F09F5798F0B92FBB
:101900009927B751B0F0E1F0660F771F881F991F34
:101910001AF0BA95C9F714C0B13091F00E94080DC1
:10192000B1E008950C94080D672F782F8827B85FD1
:1019300039F0B93FCCF3869577956795B395D9F78C
:101940003EF490958095709561957F4F8F4F9F4F96
:101950000895E89409C097FB3EF4909580957095A2
:1019600061957F4F8F4F9F4F9923A9F0F92F96E9EB
:10197000BB279395F695879577956795B795F11160
:10198000F8CFFAF4BB0F11F460FF1BC06F5F7F4FFD
:101990008F4F9F4F16C0882311F096E911C077230F
:1019A00021F09EE8872F762F05C0662371F096E818
:1019B000862F70E060E02AF09A95660F771F881FE7
:1019C000DAF7880F9695879597F9089557FD9058FF
:1019D000440F551F59F05F3F71F04795880F97FBF3
:1019E000991F61F09F3F79F08795089512161306AD
:1019F0001406551FF2CF4695F1DF08C016161706DC
:101A00001806991FF1CF8695710561050894089510
:101A1000E894BB2766277727CB0197F908950E94A2
:101A2000220D0C94930D0E94850D38F00E948C0DB0
:101A300020F0952311F00C947C0D0C94820D112450
:101A40000C94090D0E94E60C70F3959FC1F3950F5D
:101A500050E0551F629FF001729FBB27F00DB11D32
:101A6000639FAA27F00DB11DAA1F649F6627B00DC2
:101A7000A11D661F829F2227B00DA11D621F739FAB
:101A8000B00DA11D621F839FA00D611D221F749FB9
:101A90003327A00D611D231F849F600D211D822F00
:101AA000762F6A2F11249F5750409AF0F1F0882327
:101AB0004AF0EE0FFF1FBB1F661F771F881F915054
:101AC0005040A9F79E3F510580F00C947C0D0C947A
:101AD000090D5F3FE4F3983ED4F3869577956795BB
:101AE000B795F795E7959F5FC1F7FE2B880F911D7E
:101AF0009695879597F9089597F99F6780E870E024
:101B000060E008959FEF80EC089500240A94161673
:101B1000170618060906089500240A9412161306DB
:101B2000140605060895092E0394000C11F4882369
:101B300052F0BB0F40F4BF2B11F460FF04C06F5F85
:101B40007F4F8F4F9F4F0895DB018F939F930E948C
:101B50002F0CBF91AF91A29F800D911DA39F900D5F
:101B6000B29F900D1124089597FB072E16F4009450
:101B700007D077FD09D00E94CF0D07FC05D03EF4B9
:101B8000909581959F4F0895709561957F4F089529
:101B90000E94640CB7FF0895821B930B0895AA1B43
:101BA000BB1B51E107C0AA1FBB1FA617B70710F048
:101BB000A61BB70B881F991F5A95A9F7809590957A
:101BC000BC01CD010895EE0FFF1F0590F491E02DAB
:101BD000099481E090E0F8940C94EE0DF894FFCF16
:101BE0000100000000000000020802080208E107EE
:101BF000DD07DA07000000007B071F071D07E1076C
:101C0000DD077D02BE040000000020038002AD025B
:081C10006D03DE02BC02D002EC
:00000001FF
