:020000040000FA
:100000000C9462000C948A000C948A000C948A0070
:100010000C948A000C948A000C948A000C948A0038
:100020000C948A000C948A000C948A000C948A0028
:100030000C948A000C948A000C948A000C948A0018
:100040000C9404080C948A000C9474080C944E08C8
:100050000C948A000C948A000C948A000C948A00F8
:100060000C948A000C948A000000000024002700F1
:100070002A000000000023002600290000000000E4
:10008000250028002B0004040404040404040202D4
:100090000202020203030303030301020408102007
:1000A0004080010204081020010204081020000012
:1000B0000008000201000003040700000000000027
:1000C0000000FE0811241FBECFEFD8E0DEBFCDBF79
:1000D00011E0A0E0B1E0E4ECFBE102C005900D927C
:1000E000A833B107D9F723E0A8E3B1E001C01D921E
:1000F000A03EB207E1F710E0C2E6D0E004C02197CD
:10010000FE010E94D50DC136D107C9F70E943A09F8
:100110000C94E00D0C940000E0EBF0E02491ECE98D
:10012000F0E09491E8E8F0E0E491EE23C9F02223B6
:1001300039F0233001F1A8F4213019F1223029F1EE
:10014000F0E0EE0FFF1FE458FF4FA591B4912FB7D9
:10015000F894EC91811126C090959E239C932FBF1B
:1001600008952730A9F02830C9F0243049F72091AC
:1001700080002F7D03C0209180002F772093800086
:10018000DFCF24B52F7724BDDBCF24B52F7DFBCF68
:100190002091B0002F772093B000D2CF2091B000F3
:1001A0002F7DF9CF9E2BDACFDC0117962C91179774
:1001B00030E0F901E656FF4FE4911696EC9316975E
:1001C0002A573F4FF9018491E82FF0E0EE0FFF1F0F
:1001D000E458FF4F8591949113969C938E931297B8
:1001E000F9012491E22FF0E0EE0FFF1FEE58FF4FD0
:1001F0008591949115969C938E93149708953FB78B
:10020000F89480911E0390911F03A0912003B09158
:10021000210326B5A89B05C02F3F19F00196A11D0B
:10022000B11D3FBFBA2FA92F982F8827BC01CD0140
:10023000620F711D811D911D42E0660F771F881F9F
:10024000991F4A95D1F708954F925F926F927F92CE
:100250009F92AF92BF92CF92DF92EF92FF920F9355
:100260001F93CF93DF9300D01F92CDB7DEB7D82E68
:100270008091D2039091D303A091D403B091D50380
:10028000892B8A2B8B2BD9F00E94FF0000912E0323
:1002900010912F032091300330913103601B710BBB
:1002A000820B930B0091D2031091D3032091D403BE
:1002B0003091D5036017710782079307C8F20E9437
:1002C000FF0060932E0370932F038093300390936D
:1002D0003103E091DA03F091DB03309759F040915C
:1002E000D6035091D7036091D8037091D9038D2D17
:1002F0000995D82EE0902C03F0902D034D2C512C15
:10030000712C612CE114F10409F459C0D7011C9639
:10031000CC901C978091D0039091D10384369105A5
:1003200010F41C961C92D701ED91FC91A280B38031
:1003300019821A821B82DD2079F1F701369610E0CE
:1003400000E02191222319F19280992001F130E0FF
:1003500050E040E02F5F3F4F4F4F5F4FC301B2016E
:100360000E94960D9B01AC01892D90E0B0E0A0E0C9
:10037000BC01CD016F5F7F4F8F4F9F4F0E94960D45
:10038000A1E0B0E0AC0FBD1FA00FB11F8C930F5FB9
:100390001F4F03301105A9F609811A812B81F7013E
:1003A0004585568562817381C701F5010995D7019D
:1003B0001C96CC921C971496ED90FC90A3CF809144
:1003C0002A0390912B039C012F5F3F4F30932B0307
:1003D00020932A0349970CF44AC08FB7F8942091D0
:1003E00022033091230340912403509125038FBFB2
:1003F0008091260390912703A0912803B0912903AF
:10040000281B390B4A0B5B0B21F421E030E040E064
:1004100050E0E0912A03F0912B0388EE93E0E89FEF
:10042000B001E99F700DF89F700D1124072E000C8C
:10043000880B990B0E94340C3093D1032093D00386
:1004400010922B0310922A032FB7F8948091220365
:1004500090912303A0912403B09125032FBF809393
:10046000260390932703A0932803B09329030F90AA
:100470000F900F90DF91CF911F910F91FF90EF9010
:10048000DF90CF90BF90AF909F907F906F905F90E4
:100490004F9008958F929F92AF92BF92CF92DF922A
:1004A000EF92FF926B017C010E94FF004B015C0107
:1004B000C114D104E104F104B9F00E94FF006819ED
:1004C00079098A099B09683E73408105910580F38B
:1004D00021E0C21AD108E108F10888EE880E83E015
:1004E000981EA11CB11CE4CFFF90EF90DF90CF903D
:1004F000BF90AF909F908F90089580E991E008950C
:10050000AF92BF92CF92DF92EF92FF920F931F9321
:10051000CF93DF936C017B018B01040F151FEB015F
:100520005E01AE18BF08C017D10759F06991D60116
:10053000ED91FC910190F081E02DC6010995892B88
:1005400079F7C501DF91CF911F910F91FF90EF9047
:10055000DF90CF90BF90AF900895FC01538D448DF4
:10056000252F30E0842F90E0821B930B541710F05E
:10057000CF96089501970895FC01918D828D98176B
:1005800061F0A28DAE0FBF2FB11D5D968C91928D43
:100590009F5F9F73928F90E008958FEF9FEF089574
:1005A000FC01918D828D981731F0828DE80FF11D3D
:1005B000858D90E008958FEF9FEF0895FC01918D58
:1005C000228D892F90E0805C9F4F821B91098F7351
:1005D0009927089582E393E00E94DE0221E0892BAF
:1005E00009F420E0822F089580E090E0892B29F023
:1005F0000E94EA0281110C9400000895FC01A48D70
:10060000A80FB92FB11DA35ABF4F2C91848D90E034
:1006100001968F739927848FA689B7892C93A08917
:10062000B1898C91837080648C93938D848D9813A1
:1006300006C00288F389E02D80818F7D8083089534
:10064000EF92FF920F931F93CF93DF93EC0181E022
:10065000888F9B8D8C8D98131AC0E889F9898081C9
:1006600085FF15C09FB7F894EE89FF896083E889FC
:10067000F98980818370806480839FBF81E090E0EE
:10068000DF91CF911F910F91FF90EF900895F62E7B
:100690000B8D10E00F5F1F4F0F731127E02E8C8D15
:1006A0008E110CC00FB607FCFACFE889F98980815A
:1006B00085FFF5CFCE010E94FE02F1CFEB8DEC0F4E
:1006C000FD2FF11DE35AFF4FF0829FB7F8940B8F77
:1006D000EA89FB8980818062CFCFCF93DF93EC01E1
:1006E000888D8823B9F0AA89BB89E889F9898C911A
:1006F00085FD03C0808186FD0DC00FB607FCF7CFD6
:100700008C9185FFF2CF808185FFEDCFCE010E94D5
:10071000FE02E9CFDF91CF9108952F923F924F9241
:100720005F926F927F928F929F92AF92BF92CF9281
:10073000DF92EF92FF920F931F93CF93DF93CDB78A
:10074000DEB729970FB6F894DEBF0FBECDBF8987FD
:1007500049835A836B837C8300912C0310912D0372
:10076000BDE78B2E912CA12CB12C0115110509F49C
:100770006BC0D801ED91FC910084F185E02DC8019A
:1007800009951C01D8011296ED91FC91C12CD12C38
:100790007601412C512C320120E030E0A901009774
:1007A00091F06081260F311D411D511D6181460E62
:1007B000511C611C711C6281C60ED11CE11CF11C14
:1007C00001973396ECCFA0E5B0E00E94210C6D8339
:1007D0007E838F839887A7E3B0E0A30192010E94F4
:1007E000210C2B013C01ABE4B0E0A70196010E9473
:1007F000210C2D813E814F815885C32ED42EE52EAC
:10080000FF2445E0429D9001439D300D1124C20E0E
:10081000D31EE11CF11C8C0C9D1CAE1CBF1C452C76
:10082000562C672C7724840C951CA61CB71C472FCC
:10083000582F692F7727840E951EA61EB71ED80144
:1008400014960D911C9191CFB985CB2ED12CF12C02
:10085000E12CA7019601C501B4010E94960D872ED7
:10086000982EA92EBB2429813A814B815C81821666
:100870009306A406B50668F0A701960169817A81FE
:100880008B819C810E94960DA50194010E94340CDD
:100890002987898529960FB6F894DEBF0FBECDBF94
:1008A000DF91CF911F910F91FF90EF90DF90CF904C
:1008B000BF90AF909F908F907F906F905F904F9080
:1008C0003F902F900895FC01A281B3819C91868175
:1008D0002681982381E0921380E00895FC018681AF
:1008E0000280F381E02D9081809589238083089593
:1008F000FC0196810280F381E02D8081892B808329
:1009000008950F931F93CF93DF93209139012F5FA9
:10091000322F37703093390120FF2BC020E831FD92
:100920002064347009F02062205FFC01EC01239602
:1009300000E011E06485662329F070E0C8010E94A0
:10094000A60D6F5F6187322F369F030E30E0311D99
:100950001124311110C01682662311F06150618795
:100960003196EC17FD0731F7DF91CF911F910F9171
:10097000089520E0D4CF31503683EECF4F925F926E
:100980007F928F929F92AF92BF92CF92DF92EF921F
:10099000FF920F931F93CF93DF932C01EB010E94E3
:1009A000FF00F20127853089621B730B6A307105E5
:1009B000B0F3F8948A819B81181619060CF0CBC10C
:1009C000E881F98105B1016075B17E7F75B9BA849E
:1009D0008F812B2D281B822F2F834F85042E000CF7
:1009E000550BAA81BB81ED84DC84CE84E394D3943F
:1009F000C3949E81388599848B84118120E0F32EE5
:100A0000622F322F3181112788943111380F08F469
:100A10003FEF81958894E0FC130F17958894E1FCD3
:100A2000130F17958894E2FC130F17958894E3FC35
:100A3000130F17958894E4FC130F17958894E5FC21
:100A4000130F17958894E6FC130F17958894E7FC0D
:100A5000130F17958894232FE110212F8B0D122F40
:100A6000002C05B900C017FF75B930812227889482
:100A700000C000C0002C75B93111390F00C0002C26
:100A800005B900C016FF75B908F43FEF9195889439
:100A900000C000C0002C75B9D0FC230F00C0002C92
:100AA00005B900C015FF75B927958894D1FC230FAF
:100AB00000C000C0002C75B92795889400C0002C98
:100AC00005B900C014FF75B9D2FC230F279588948F
:100AD00000C000C0002C75B9D3FC230F00C0002C4F
:100AE00005B900C013FF75B927958894D4FC230F6E
:100AF00000C000C0002C75B92795889400C0002C58
:100B000005B900C012FF75B9D5FC230F279588944D
:100B100000C000C0002C75B9D6FC230F00C0002C0B
:100B200005B900C011FF75B927958894D7FC230F2C
:100B300000C000C0002C75B92795889400C0002C17
:100B400005B900C010FF75B9132FD110122F990DE0
:100B500000C000C0002C75B900C000C0002C05B951
:100B600000C017FF75B932812227889400C000C0E9
:100B7000002C75B931113F0D00C0002C05B900C023
:100B800016FF75B908F43FEFE40FF51F00C000C071
:100B9000002C75B9C0FC230F00C0002C05B900C0A3
:100BA00015FF75B927958894C1FC230F00C000C0BC
:100BB000002C75B92795889400C0002C05B900C099
:100BC00014FF75B9C2FC230F2795889400C000C09C
:100BD000002C75B9C3FC230F00C0002C05B900C060
:100BE00013FF75B927958894C4FC230F00C000C07B
:100BF000002C75B92795889400C0002C05B900C059
:100C000012FF75B9C5FC230F2795889400C000C05A
:100C1000002C75B9C6FC230F00C0002C05B900C01C
:100C200011FF75B927958894C7FC230F00C000C039
:100C3000002C75B92795889400C0002C05B900C018
:100C400010FF75B9132FC110122FF19400C000C00E
:100C5000002C75B9F80C00C000C005B900C017FF22
:100C600075B931812227889400C000C0002C75B965
:100C70003111380F00C0002C05B900C016FF75B93E
:100C800008F43FEF8195889400C000C0002C75B92E
:100C9000E0FC230F00C0002C05B900C015FF75B99A
:100CA00027958894E1FC230F00C000C0002C75B983
:100CB0002795889400C0002C05B900C014FF75B9B1
:100CC000E2FC230F2795889400C000C0002C75B962
:100CD000E3FC230F00C0002C05B900C013FF75B959
:100CE00027958894E4FC230F00C000C0002C75B940
:100CF0002795889400C0002C05B900C012FF75B973
:100D0000E5FC230F2795889400C000C0002C75B91E
:100D1000E6FC230F00C0002C05B900C011FF75B917
:100D200027958894E7FC230F00C000C0002C75B9FC
:100D30002795889400C0002C05B900C010FF75B934
:100D4000132FE110122F8B0D00C000C0002C75B9BD
:100D5000119709F086CE4A815B8120EE31E0DA01FD
:100D60000E94BA0DDC01CB01F4E0B695A7959795EA
:100D70008795FA95D1F730E020E0B901EAE94E9F76
:100D8000040E611D5E9F600D711D1124650F711DA4
:100D9000860F971FA11DB11D893E43E09407A10551
:100DA000B10508F434C0885E9340A109B10942E05E
:100DB000B695A795979587954A95D1F747E0849F73
:100DC000080E211D949F200D311D1124290F311D66
:100DD0006091380170E0860F971F820F931F40913A
:100DE0002203509123036091240370912503292F3E
:100DF0003327420F531F611D711D409322035093EF
:100E0000230360932403709325038093380178941F
:100E10000E94FF00F201708B6787DF91CF911F91D5
:100E20000F91FF90EF90DF90CF90BF90AF909F9089
:100E30008F907F905F904F900895209A08956F92C1
:100E40007F928F92CF92DF92EF92FF920F931F9338
:100E5000CF93DF93CDB7DEB762970FB6F894DEBFBE
:100E60000FBECDBF6C017A013801822EDC011C96C9
:100E70002C91CA0157FF04C088279927841B950B22
:100E80007A8369839C838B839E838D836D867E8624
:100E90008F86213049F5CE0101960E94810483E0BE
:100EA000888B1A8A198AF7FE02C08DEF888BD601CB
:100EB000ED91FC910484F585E02DBE016F5F7F4FBD
:100EC000C601099562960FB6F894DEBF0FBECDBF7E
:100ED000DF91CF911F910F91FF90EF90DF90CF9016
:100EE0008F907F906F9008951C861B861A861986B6
:100EF00018861F82D4CFEF92FF920F931F93CF9348
:100F0000DF93CDB7DEB762970FB6F894DEBF0FBEA2
:100F1000CDBF7C01DC011C968C917A8369835C8354
:100F20004B835E834D830D871E872F878130F9F4B5
:100F3000CE0101960E948104188A1A8A198AD70163
:100F4000ED91FC910484F585E02DBE016F5F7F4F2C
:100F5000C701099562960FB6F894DEBF0FBECDBFEC
:100F6000DF91CF911F910F91FF90EF9008951C8614
:100F70001B861A86198618861F82DECF382FE5E574
:100F8000F1E02081239F020E20E0211D208321819A
:100F9000239F020E20E0211D21832281239F020E28
:100FA00020E0211D22831124339683E0E731F807E6
:100FB00041F7089590E080E00895FC0185859685CD
:100FC00008950F931F93CF93DF9300D01F92CDB757
:100FD000DEB7AB0119821A821B82DC01ED91FC9114
:100FE0000190F081E02D00E010E020E0BE016F5F95
:100FF0007F4F09950F900F900F90DF91CF911F9128
:101000000F9108950E94DB0D1F920F920FB60F9261
:1010100011242F933F938F939F93AF93BF9380910E
:10102000220390912303A0912403B09125033091D2
:101030001D0323E0230F2D3758F50196A11DB11D87
:1010400020931D038093220390932303A0932403F2
:10105000B093250380911E0390911F03A09120035C
:10106000B09121030196A11DB11D80931E039093A1
:101070001F03A0932003B0932103BF91AF919F91D1
:101080008F913F912F910F900FBE0F901F90189549
:1010900026E8230F0296A11DB11DD2CF1F920F92F9
:1010A0000FB60F9211242F933F934F935F936F933B
:1010B0007F938F939F93AF93BF93EF93FF9382E3BD
:1010C00093E00E94FE02FF91EF91BF91AF919F913B
:1010D0008F917F916F915F914F913F912F910F90E1
:1010E0000FBE0F901F9018951F920F920FB60F9280
:1010F00011242F938F939F93EF93FF93E0914203DB
:10110000F09143038081E0914803F091490382FD0F
:101110001BC0908180914B038F5F8F7320914C0394
:10112000821741F0E0914B03F0E0EE5CFC4F958FAD
:1011300080934B03FF91EF919F918F912F910F908F
:101140000FBE0F901F9018958081F4CFCF92DF9241
:10115000EF92FF920F931F93E82FF92F05C00150D4
:1011600011092109310961F1908196239417B9F38E
:1011700005C0015011092109310911F1908196230F
:101180009413F7CFC12CD12CE12CF12C0AC08FEF96
:10119000C81AD80AE80AF80A0C151D052E053F05DD
:1011A00079F080818623841791F36C2D7D2D8E2D0F
:1011B0009F2D1F910F91FF90EF90DF90CF9008959A
:1011C00060E070E080E090E01F910F91FF90EF9061
:1011D000DF90CF900895FC010FB6F8946091DC0386
:1011E0007091DD038091DE039091DF030FBE309795
:1011F00021F060837183828393830895E2E3F3E0B7
:101200001382128288EE93E0A0E0B0E0848395839D
:10121000A683B7838AE291E09183808385EC90E096
:101220009587848784EC90E09787868780EC90E0B0
:10123000918B808B81EC90E0938B828B82EC90E0A1
:10124000958B848B86EC90E0978B868B118E128E1B
:10125000138E148EEFECF3E08FEF808312821182F5
:10126000148613868FEF9FEFDC0187839087A18719
:10127000B2870895789484B5826084BD84B5816016
:1012800084BD85B5826085BD85B5816085BD809151
:101290006E00816080936E001092810080918100C9
:1012A00082608093810080918100816080938100C1
:1012B000809180008160809380008091B100846083
:1012C0008093B1008091B00081608093B0008091E4
:1012D0007A00846080937A0080917A0082608093A3
:1012E0007A0080917A00816080937A0080917A0000
:1012F000806880937A001092C100ECE9F0E02491BC
:10130000E8E8F0E08491882399F090E0880F991F35
:10131000FC01E859FF4FA591B491FC01E458FF4F3F
:10132000859194918FB7F894EC91E22BEC938FBF59
:101330004DE9442E40E0542EF201249159E8652EE7
:1013400050E0752EF30184918823C1F090E0880F5E
:10135000991FFC01E859FF4FA591B491FC01E45895
:10136000FF4FC591D4913FB7F8949C91822F8095FF
:1013700098239C939881892388833FBFE0914203FF
:10138000F091430382E08083E0913E03F0913F03BC
:101390001082E0914003F09141038FEC8083109222
:1013A0004A03E0914603F091470386E08083E09191
:1013B0004403F0914503808180618083E091440380
:1013C000F0914503808188608083E0914403F0912F
:1013D0004503808180688083E0914403F091450358
:1013E00080818F7D808390E080E00E94EB08CB01BC
:1013F0000E94F70B68EB7BE080E090E00E944A02DD
:101400008DE893E09093DB038093DA0388E99AE315
:10141000A0E0B0E08093D6039093D703A093D803C5
:10142000B093D90380914D01811145C010923F01C5
:1014300010923E018FEF809342018093430180938D
:10144000440180934501809346018093470181E0E8
:101450008093480110924A01109249011092410173
:101460001092400180912C0390912D03892B31F42F
:101470008CE391E090932D0380932C03E0913A014B
:10148000F0913B01309721F08CE391E095838483C8
:101490008CE391E090933B0180933A0110924C01D0
:1014A00010924B0188E191E090933D0180933C01C3
:1014B00081E080934D01209A85E591E090933F0172
:1014C00080933E0186E990E090934A018093490120
:1014D0008091D2039091D303A091D403B091D5030E
:1014E000843CF9E09F07A105B10520F484EC99E064
:1014F000A0E0B0E08093D2039093D303A093D403F1
:10150000B093D50384E68093CF030E94240113E0B7
:10151000C12ED12C03E2A02EB12C8FE1E82EF12CAC
:1015200090EB392ED0E08D2ED0E09D2EC8EF2C2EE2
:1015300080E00E948C00C6010197F1F781E00E94D3
:101540008C00C5010197F1F780E00E948C00F20148
:101550006491F3018491E82FF0E0EE0FFF1FEE5845
:10156000FF4F8591949100E412E42FE030E0462F84
:101570000E94A608611571058105910529F06F5F2C
:101580007F4F8F4F9F4F9F700E949D0C26E933E441
:101590004BE05DE30E94010D20E030E040E05FE3BE
:1015A0000E94010D0E94650C9B0177FF02C02F5F16
:1015B0003F4FC9019595879590931C0380931B031A
:1015C0000E94F20BB7010E94A60DEC01CF51DF4F34
:1015D000809117039091180397FF8FC00196909305
:1015E0001803809317038091CF030E942401CE013A
:1015F0000E94BE0760E070E0CB010E944A020E9498
:10160000F20BB7010E94A60DEC01CF51DF4F2091E4
:10161000190330911A03263931050CF039C0C9017C
:10162000019690931A0380931903722D45E5749FD8
:10163000070E70E0711D112440E0542F62E866230C
:1016400029F0669F512D112461115F5F152F1095B0
:101650006AEA670F619F060E60E0611D419F040EFC
:1016600040E0411D85E5871B782F719F070E70E0D4
:10167000711D1124C901880F991F820F931FFC014E
:10168000EB5AFE4F650F6083450F4183570F52831E
:101690008091CF030E942401CE010E94BE0760E02A
:1016A00070E0CB010E944A028091190390911A03C5
:1016B0008639910524F010921A0310921903809133
:1016C000170390911803863991055CF080911B03F4
:1016D00090911C03919581959109909318038093A3
:1016E00017038114910409F423CF0E94EA0288238E
:1016F00009F41CCF0E94000015CF863991050CF02B
:1017000072CF9C012F5F3F4F309318032093170334
:10171000232D35E5239F020E20E0211D112420E01A
:10172000432D6AEA469F040E40E0411D11249C01AE
:10173000220F331F820F931FFC01EB5AFE4F1082C2
:101740008BEA841B81834B5A42834DCF8F929F92A9
:10175000AF92BF92CF92DF92EF92FF92CF93DF933F
:10176000EC01688179818A819B8161157105810510
:10177000910521F464E279ED8BE597E02DE133EFFB
:1017800041E050E00E94020C49015A019B01AC016A
:10179000A7EAB1E40E94210C6B017C01ACEEB4EF2E
:1017A000A50194010E942F0CDC01CB018C0D9D1D25
:1017B000AE1DBF1DB7FF03C00197A109B0488883C4
:1017C0009983AA83BB839F77DF91CF91FF90EF909E
:1017D000DF90CF90BF90AF909F908F9008950E9420
:1017E000A60B089580E091E00E94A60B0895B0E05A
:1017F000A0E08093000190930101A0930201B093B7
:1018000003010895052E97FB1EF400940E94190C05
:1018100057FD07D00E94340C07FC03D04EF40C9403
:10182000190C50954095309521953F4F4F4F5F4F84
:10183000089590958095709561957F4F8F4F9F4F3C
:1018400008950E94560CA59F900DB49F900DA49FE3
:10185000800D911D11240895B7FF0C94210C0E9456
:10186000210C821B930B0895A1E21A2EAA1BBB1B0D
:10187000FD010DC0AA1FBB1FEE1FFF1FA217B3075C
:10188000E407F50720F0A21BB30BE40BF50B661F72
:10189000771F881F991F1A9469F760957095809536
:1018A00090959B01AC01BD01CF010895A29FB001AD
:1018B000B39FC001A39F700D811D1124911DB29F84
:1018C000700D811D1124911D08950E946C0C689467
:1018D000B1110C94FB0C08950E94E00C88F09F5706
:1018E00098F0B92F9927B751B0F0E1F0660F771F44
:1018F000881F991F1AF0BA95C9F714C0B13091F03A
:101900000E94FA0CB1E008950C94FA0C672F782F1E
:101910008827B85F39F0B93FCCF3869577956795FE
:10192000B395D9F73EF490958095709561957F4F6A
:101930008F4F9F4F0895E89409C097FB3EF4909510
:101940008095709561957F4F8F4F9F4F9923A9F098
:10195000F92F96E9BB279395F69587957795679527
:10196000B795F111F8CFFAF4BB0F11F460FF1BC06B
:101970006F5F7F4F8F4F9F4F16C0882311F096E9FE
:1019800011C0772321F09EE8872F762F05C06623AC
:1019900071F096E8862F70E060E02AF09A95660F65
:1019A000771F881FDAF7880F9695879597F908951E
:1019B00057FD9058440F551F59F05F3F71F0479500
:1019C000880F97FB991F61F09F3F79F087950895E5
:1019D000121613061406551FF2CF4695F1DF08C004
:1019E000161617061806991FF1CF86957105610521
:1019F00008940895E894BB2766277727CB0197F9C9
:101A000008950E94140D0C94850D0E94770D38F0F6
:101A10000E947E0D20F0952311F00C946E0D0C9415
:101A2000740D11240C94FB0C0E94D80C70F3959F3C
:101A3000C1F3950F50E0551F629FF001729FBB27C5
:101A4000F00DB11D639FAA27F00DB11DAA1F649F61
:101A50006627B00DA11D661F829F2227B00DA11D14
:101A6000621F739FB00DA11D621F839FA00D611D9A
:101A7000221F749F3327A00D611D231F849F600DBB
:101A8000211D822F762F6A2F11249F5750409AF0E4
:101A9000F1F088234AF0EE0FFF1FBB1F661F771F70
:101AA000881F91505040A9F79E3F510580F00C943B
:101AB0006E0D0C94FB0C5F3FE4F3983ED4F38695D7
:101AC00077956795B795F795E7959F5FC1F7FE2BDB
:101AD000880F911D9695879597F9089597F99F67B7
:101AE00080E870E060E008959FEF80EC08950024A6
:101AF0000A941616170618060906089500240A9473
:101B000012161306140605060895092E0394000CF8
:101B100011F4882352F0BB0F40F4BF2B11F460FF87
:101B200004C06F5F7F4F8F4F9F4F0895DB018F93EE
:101B30009F930E94210CBF91AF91A29F800D911D98
:101B4000A39F900DB29F900D1124089597FB072E2F
:101B500016F4009407D077FD09D00E94C10D07FC50
:101B600005D03EF4909581959F4F089570956195AD
:101B70007F4F08950E94560CB7FF0895821B930B68
:101B80000895AA1BBB1B51E107C0AA1FBB1FA617C4
:101B9000B70710F0A61BB70B881F991F5A95A9F716
:101BA00080959095BC01CD010895EE0FFF1F059023
:101BB000F491E02D099481E090E0F8940C94E00D0C
:101BC000F894FFCF010000000000000002080208A6
:101BD0000208E107DD07DA07000000007B071F07A6
:101BE0001D07E107DD077D02BE04000000002003A1
:0C1BF0008002AD026D03DE02BC02D002D8
:107E0000112484B714BE81FFF0D085E080938100F7
:107E100082E08093C00088E18093C10086E0809377
:107E2000C20080E18093C4008EE0C9D0259A86E02C
:107E300020E33CEF91E0309385002093840096BBD3
:107E4000B09BFECF1D9AA8958150A9F7CC24DD24C4
:107E500088248394B5E0AB2EA1E19A2EF3E0BF2EE7
:107E6000A2D0813461F49FD0082FAFD0023811F036
:107E7000013811F484E001C083E08DD089C08234E0
:107E800011F484E103C0853419F485E0A6D080C0E4
:107E9000853579F488D0E82EFF2485D0082F10E0AE
:107EA000102F00270E291F29000F111F8ED06801E7
:107EB0006FC0863521F484E090D080E0DECF843638
:107EC00009F040C070D06FD0082F6DD080E0C81688
:107ED00080E7D80618F4F601B7BEE895C0E0D1E017
:107EE00062D089930C17E1F7F0E0CF16F0E7DF06D8
:107EF00018F0F601B7BEE89568D007B600FCFDCFD4
:107F0000A601A0E0B1E02C9130E011968C91119780
:107F100090E0982F8827822B932B1296FA010C0160
:107F200087BEE89511244E5F5F4FF1E0A038BF0790
:107F300051F7F601A7BEE89507B600FCFDCF97BE46
:107F4000E89526C08437B1F42ED02DD0F82E2BD052
:107F50003CD0F601EF2C8F010F5F1F4F84911BD097
:107F6000EA94F801C1F70894C11CD11CFA94CF0C13
:107F7000D11C0EC0853739F428D08EE10CD085E9AC
:107F80000AD08FE07ACF813511F488E018D01DD067
:107F900080E101D065CF982F8091C00085FFFCCF94
:107FA0009093C60008958091C00087FFFCCF809118
:107FB000C00084FD01C0A8958091C6000895E0E648
:107FC000F0E098E1908380830895EDDF803219F02E
:107FD00088E0F5DFFFCF84E1DECF1F93182FE3DFCA
:107FE0001150E9F7F2DF1F91089580E0E8DFEE27F6
:047FF000FF270994CA
:027FFE00040479
:00000001FF
