:020000040000FA
:100000000C9453000C947B000C947B000C947B00AC
:100010000C947B000C947B000C947B000C947B0074
:100020000C947B000C947B000C947B000C947B0064
:100030000C947B000C947B000C947B000C947B0054
:100040000C9483060C947B000C947B000C947B0036
:100050000C947B000C947B000C947B000C947B0034
:100060000C947B000C947B00000000002300260011
:10007000290000000000250028002B0004040404CF
:100080000404040402020202020203030303030342
:10009000010204081020408001020408102001021F
:1000A00004081020D60711241FBECFEFD8E0DEBF12
:1000B000CDBF11E0A0E0B1E0ECEDF0E102C00590B1
:1000C0000D92A232B107D9F723E0A2E2B1E001C05C
:1000D0001D92A332B207E1F710E0C3E5D0E004C0FF
:1000E0002197FE010E945208C235D107C9F70E942C
:1000F000CD060C946C080C940000DC0117962C9132
:10010000179730E0F901E057FF4FE4911696EC9312
:10011000169724583F4FF9018491E82FF0E0EE0F35
:10012000FF1FEE58FF4F8591949113969C938E93E9
:100130001297F9012491E22FF0E0EE0FFF1FE8592A
:10014000FF4F8591949115969C938E9314970895E3
:100150003FB7F8948091020390910303A0910403A8
:10016000B091050326B5A89B05C02F3F19F0019655
:10017000A11DB11D3FBFBA2FA92F982F8827BC0101
:10018000CD01620F711D811D911D42E0660F771F29
:10019000881F991F4A95D1F708954F925F926F92E9
:1001A0007F929F92AF92BF92CF92DF92EF92FF9297
:1001B0000F931F93CF93DF9300D01F92CDB7DEB77D
:1001C000D82E8091130390911403A0911503B09140
:1001D0001603892B8A2B8B2BD9F00E94A800009143
:1001E0001F03109120032091210330912203601BF3
:1001F000710B820B930B0091130310911403209148
:100200001503309116036017710782079307C8F230
:100210000E94A80060931F03709320038093210322
:1002200090932203E0911B03F0911C03309759F047
:1002300040911703509118036091190370911A03AC
:100240008D2D0995D82EE0901D03F0901E034D2CA6
:10025000512C712C612CE114F10409F459C0D7011F
:100260001C96CC901C9780911103909112038436B8
:10027000910510F41C961C92D701ED91FC91A2807F
:10028000B38019821A821B82DD2079F1F70136963C
:1002900010E000E02191222319F19280992001F1D0
:1002A00030E050E040E02F5F3F4F4F4F5F4FC301C2
:1002B000B2010E94E6079B01AC01892D90E0B0E0FD
:1002C000A0E0BC01CD016F5F7F4F8F4F9F4F0E9419
:1002D000E607A1E0B0E0AC0FBD1FA00FB11F8C93EB
:1002E0000F5F1F4F03301105A9F609811A812B8179
:1002F000F7014585568562817381C701F50109952E
:10030000D7011C96CC921C971496ED90FC90A3CF2D
:1003100080910E0390910F039C012F5F3F4F30930C
:100320000F0320930E0349970CF44AC08FB7F8943B
:10033000209106033091070340910803509109036F
:100340008FBF80910A0390910B03A0910C03B09191
:100350000D03281B390B4A0B5B0B21F421E030E025
:1003600040E050E0E0910E03F0910F0388EE93E03F
:10037000E89FB001E99F700DF89F700D1124072EC2
:10038000000C880B990B0E940A08309312032093EB
:10039000110310920F0310920E032FB7F89480915F
:1003A000060390910703A0910803B09109032FBFA2
:1003B00080930A0390930B03A0930C03B0930D0357
:1003C0000F900F900F90DF91CF911F910F91FF90A1
:1003D000EF90DF90CF90BF90AF909F907F906F9005
:1003E0005F904F9008958F929F92AF92BF92CF925D
:1003F000DF92EF92FF924B015C010E94A8006B011B
:100400007C010E94A8006C197D098E099F09683E35
:10041000734081059105A8F321E0821A9108A10893
:10042000B10888EEC80E83E0D81EE11CF11C8114CF
:100430009104A104B10429F7FF90EF90DF90CF90D1
:10044000BF90AF909F908F90089580E991E00895BC
:100450002F923F924F925F926F927F928F929F92D4
:10046000AF92BF92CF92DF92EF92FF920F931F93C2
:10047000CF93DF93CDB7DEB729970FB6F894DEBFE1
:100480000FBECDBF898749835A836B837C830091DC
:100490001D0310911E03BDE78B2E912CA12CB12CB6
:1004A0000115110509F46BC0D801ED91FC91008490
:1004B000F185E02DC80109951C01D8011296ED9136
:1004C000FC91C12CD12C7601412C512C320120E021
:1004D00030E0A901009791F06081260F311D411D88
:1004E000511D6181460E511C611C711C6281C60E3A
:1004F000D11CE11CF11C01973396ECCFA0E5B0E0D4
:100500000E9433086D837E838F839887A7E3B0E0D2
:10051000A30192010E9433082B013C01ABE4B0E03F
:10052000A70196010E9433082D813E814F81588595
:10053000C32ED42EE52EFF2445E0429D9001439D1D
:10054000300D1124C20ED31EE11CF11C8C0C9D1C1D
:10055000AE1CBF1C452C562C672C7724840C951C94
:10056000A61CB71C472F582F692F7727840E951E7E
:10057000A61EB71ED80114960D911C9191CFB98576
:10058000CB2ED12CF12CE12CA7019601C501B40191
:100590000E94E607872E982EA92EBB2429813A8136
:1005A0004B815C8182169306A406B50668F0A7010C
:1005B000960169817A818B819C810E94E607A50161
:1005C00094010E940A082987898529960FB6F89414
:1005D000DEBF0FBECDBFDF91CF911F910F91FF9076
:1005E000EF90DF90CF90BF90AF909F908F907F90D3
:1005F0006F905F904F903F902F900895FC01A281E3
:10060000B3819C9186812681982381E0921380E0BA
:100610000895FC0186810280F381E02D9081809510
:10062000892380830895FC0196810280F381E02D67
:100630008081892B808308950F931F93CF93DF933D
:10064000209123012F5F322F37703093230120FF39
:100650002BC020E831FD2064347009F02062205F57
:10066000FC01EC01239600E011E06485662329F08B
:1006700070E0C8010E94F6076F5F6187322F369FD6
:10068000030E30E0311D1124311110C01682662393
:1006900011F0615061873196EC17FD0731F7DF915A
:1006A000CF911F910F91089520E0D4CF3150368320
:1006B000EECF4F925F927F928F929F92AF92BF92B6
:1006C000CF92DF92EF92FF920F931F93CF93DF931E
:1006D0002C01EB010E94A800F20127853089621BE2
:1006E000730B6A307105B0F3F8948A819B811816F8
:1006F00019060CF0CBC1E881F98105B1016075B133
:100700007E7F75B9BA848F812B2D281B822F2F8372
:100710004F85042E000C550BAA81BB81ED84DC842F
:10072000CE84E394D394C3949E81388599848B843A
:10073000118120E0F32E622F322F3181112788940E
:100740003111380F08F43FEF81958894E0FC130FC6
:1007500017958894E1FC130F17958894E2FC130F0A
:1007600017958894E3FC130F17958894E4FC130FF6
:1007700017958894E5FC130F17958894E6FC130FE2
:1007800017958894E7FC130F17958894232FE11091
:10079000212F8B0D122F002C05B900C017FF75B942
:1007A00030812227889400C000C0002C75B9311117
:1007B000390F00C0002C05B900C016FF75B908F448
:1007C0003FEF9195889400C000C0002C75B9D0FC13
:1007D000230F00C0002C05B900C015FF75B927957F
:1007E0008894D1FC230F00C000C0002C75B9279558
:1007F000889400C0002C05B900C014FF75B9D2FC64
:10080000230F2795889400C000C0002C75B9D3FC35
:10081000230F00C0002C05B900C013FF75B9279540
:100820008894D4FC230F00C000C0002C75B9279514
:10083000889400C0002C05B900C012FF75B9D5FC22
:10084000230F2795889400C000C0002C75B9D6FCF2
:10085000230F00C0002C05B900C011FF75B9279502
:100860008894D7FC230F00C000C0002C75B92795D1
:10087000889400C0002C05B900C010FF75B9132F73
:10088000D110122F990D00C000C0002C75B900C006
:1008900000C0002C05B900C017FF75B932812227AE
:1008A000889400C000C0002C75B931113F0D00C004
:1008B000002C05B900C016FF75B908F43FEFE40F2E
:1008C000F51F00C000C0002C75B9C0FC230F00C08C
:1008D000002C05B900C015FF75B927958894C1FC97
:1008E000230F00C000C0002C75B92795889400C064
:1008F000002C05B900C014FF75B9C2FC230F279561
:10090000889400C000C0002C75B9C3FC230F00C040
:10091000002C05B900C013FF75B927958894C4FC55
:10092000230F00C000C0002C75B92795889400C023
:10093000002C05B900C012FF75B9C5FC230F27951F
:10094000889400C000C0002C75B9C6FC230F00C0FD
:10095000002C05B900C011FF75B927958894C7FC14
:10096000230F00C000C0002C75B92795889400C0E3
:10097000002C05B900C010FF75B9132FC110122F3C
:10098000F19400C000C0002C75B9F80C00C000C084
:1009900005B900C017FF75B931812227889400C0BE
:1009A00000C0002C75B93111380F00C0002C05B9FA
:1009B00000C016FF75B908F43FEF8195889400C018
:1009C00000C0002C75B9E0FC230F00C0002C05B955
:1009D00000C015FF75B927958894E1FC230F00C06E
:1009E00000C0002C75B92795889400C0002C05B96B
:1009F00000C014FF75B9E2FC230F2795889400C04E
:100A000000C0002C75B9E3FC230F00C0002C05B911
:100A100000C013FF75B927958894E4FC230F00C02C
:100A200000C0002C75B92795889400C0002C05B92A
:100A300000C012FF75B9E5FC230F2795889400C00C
:100A400000C0002C75B9E6FC230F00C0002C05B9CE
:100A500000C011FF75B927958894E7FC230F00C0EB
:100A600000C0002C75B92795889400C0002C05B9EA
:100A700000C010FF75B9132FE110122F8B0D00C0AD
:100A800000C0002C75B9119709F086CE4A815B81B0
:100A900020EE31E0DA010E942C08DC01CB01F4E009
:100AA000B695A79597958795FA95D1F730E020E010
:100AB000B901EAE94E9F040E611D5E9F600D711D34
:100AC0001124650F711D860F971FA11DB11D893E51
:100AD00043E09407A105B10508F434C0885E934053
:100AE000A109B10942E0B695A795979587954A95D2
:100AF000D1F747E0849F080E211D949F200D311DE2
:100B00001124290F311D6091220170E0860F971F7B
:100B1000820F931F409106035091070360910803D1
:100B200070910903292F3327420F531F611D711D37
:100B300040930603509307036093080370930903DF
:100B40008093220178940E94A800F201708B67873D
:100B5000DF91CF911F910F91FF90EF90DF90CF9099
:100B6000BF90AF909F908F907F905F904F9008952F
:100B7000209A08956F927F928F92CF92DF92EF9298
:100B8000FF920F931F93CF93DF93CDB7DEB762979A
:100B90000FB6F894DEBF0FBECDBF6C017A013801ED
:100BA000822EDC011C962C91CA0157FF04C08827B5
:100BB0009927841B950B7A8369839C838B839E83FF
:100BC0008D836D867E868F86213049F5CE01019614
:100BD0000E941C0383E0888B1A8A198AF7FE02C0E0
:100BE0008DEF888BD601ED91FC910484F585E02D85
:100BF000BE016F5F7F4FC601099562960FB6F894EC
:100C0000DEBF0FBECDBFDF91CF911F910F91FF903F
:100C1000EF90DF90CF908F907F906F9008951C861B
:100C20001B861A86198618861F82D4CFEF92FF92F0
:100C30000F931F93CF93DF93CDB7DEB762970FB6B5
:100C4000F894DEBF0FBECDBF7C01DC011C968C91F9
:100C50007A8369835C834B835E834D830D871E8714
:100C60002F878130F9F4CE0101960E941C03188A67
:100C70001A8A198AD701ED91FC910484F585E02D3B
:100C8000BE016F5F7F4FC701099562960FB6F8945A
:100C9000DEBF0FBECDBFDF91CF911F910F91FF90AF
:100CA000EF9008951C861B861A86198618861F8267
:100CB000DECF90E080E00895FC018585968508955B
:100CC0000F931F93CF93DF9300D01F92CDB7DEB762
:100CD000AB0119821A821B82DC01ED91FC9101901B
:100CE000F081E02D00E010E020E0BE016F5F7F4F5B
:100CF00009950F900F900F90DF91CF911F910F9159
:100D000008950E9467081F920F920FB60F92112448
:100D10002F933F938F939F93AF93BF93809106033D
:100D200090910703A0910803B0910903309101034A
:100D300023E0230F2D3758F50196A11DB11D2093F7
:100D400001038093060390930703A0930803B093D5
:100D500009038091020390910303A0910403B091D1
:100D600005030196A11DB11D809302039093030317
:100D7000A0930403B0930503BF91AF919F918F910E
:100D80003F912F910F900FBE0F901F90189526E85E
:100D9000230F0296A11DB11DD2CF789484B5826035
:100DA00084BD84B5816084BD85B5826085BD85B50F
:100DB000816085BD80916E00816080936E0010928D
:100DC0008100809181008260809381008091810008
:100DD0008160809381008091800081608093800099
:100DE0008091B10084608093B1008091B0008160F7
:100DF0008093B00080917A00846080937A00809123
:100E00007A00826080937A0080917A00816080937A
:100E10007A0080917A00806880937A001092C100F5
:100E200068EB7BE080E090E00E94F30188E292E0D2
:100E300090931C0380931B0388E99AE3A0E0B0E041
:100E40008093170390931803A0931903B0931A0388
:100E500080913701811145C010922901109228011B
:100E60008FEF80932C0180932D0180932E0180932E
:100E70002F01809330018093310181E08093320112
:100E8000109234011092330110922B0110922A011A
:100E900080911D0390911E03892B31F486E291E02D
:100EA00090931E0380931D03E0912401F09125018E
:100EB000309721F086E291E09583848386E291E089
:100EC00090932501809324011092360110923501F0
:100ED00084E191E0909327018093260181E0809343
:100EE0003701209A8FE391E09093290180932801A4
:100EF00086E990E09093340180933301809113034D
:100F000090911403A0911503B0911603843C29E03D
:100F10009207A105B10520F484EC99E0A0E0B0E0CF
:100F20008093130390931403A0931503B0931603B7
:100F300084E6809310030E94CD00CC24CA9480E8FC
:100F4000D82E90E0E92E90E0F92E0FE311E0E801B1
:100F500086E0C538D80781F0C88219821A8262E318
:100F600070E080E090E00E94F3011092100380E0B6
:100F70000E94CD002396ECCFC017D10789F0F8016D
:100F80001082D182128262E370E080E090E00E94E1
:100F9000F301809110030E94CD000D5F1F4FECCF35
:100FA000E114F10491F20E940000CFCFE0E1F3E000
:100FB0008FEF808312821182148613868FEF9FEF4A
:100FC000DC0187839087A187B2870895DB018F9327
:100FD0009F930E943308BF91AF91A29F800D911DF6
:100FE000A39F900DB29F900D1124089597FB072E9B
:100FF00016F4009407D077FD09D00E943E0807FC44
:1010000005D03EF4909581959F4F08957095619518
:101010007F4F0895A1E21A2EAA1BBB1BFD010DC034
:10102000AA1FBB1FEE1FFF1FA217B307E407F50798
:1010300020F0A21BB30BE40BF50B661F771F881F74
:10104000991F1A9469F760957095809590959B010A
:10105000AC01BD01CF0108950E945808B7FF089563
:10106000821B930B08950E945808A59F900DB49F72
:10107000900DA49F800D911D11240895AA1BBB1BE8
:1010800051E107C0AA1FBB1FA617B70710F0A61B88
:10109000B70B881F991F5A95A9F780959095BC01A9
:1010A000CD010895EE0FFF1F0590F491E02D0994F6
:1010B000A29FB001B39FC001A39F700D811D112499
:1010C000911DB29F700D811D1124911D089581E025
:1010D00090E0F8940C946C08F894FFCF00000000A6
:1010E00081068106810660065C0659060000000044
:0E10F0001606BA05B80560065C06250259030F
:107E0000112484B714BE81FFF0D085E080938100F7
:107E100082E08093C00088E18093C10086E0809377
:107E2000C20080E18093C4008EE0C9D0259A86E02C
:107E300020E33CEF91E0309385002093840096BBD3
:107E4000B09BFECF1D9AA8958150A9F7CC24DD24C4
:107E500088248394B5E0AB2EA1E19A2EF3E0BF2EE7
:107E6000A2D0813461F49FD0082FAFD0023811F036
:107E7000013811F484E001C083E08DD089C08234E0
:107E800011F484E103C0853419F485E0A6D080C0E4
:107E9000853579F488D0E82EFF2485D0082F10E0AE
:107EA000102F00270E291F29000F111F8ED06801E7
:107EB0006FC0863521F484E090D080E0DECF843638
:107EC00009F040C070D06FD0082F6DD080E0C81688
:107ED00080E7D80618F4F601B7BEE895C0E0D1E017
:107EE00062D089930C17E1F7F0E0CF16F0E7DF06D8
:107EF00018F0F601B7BEE89568D007B600FCFDCFD4
:107F0000A601A0E0B1E02C9130E011968C91119780
:107F100090E0982F8827822B932B1296FA010C0160
:107F200087BEE89511244E5F5F4FF1E0A038BF0790
:107F300051F7F601A7BEE89507B600FCFDCF97BE46
:107F4000E89526C08437B1F42ED02DD0F82E2BD052
:107F50003CD0F601EF2C8F010F5F1F4F84911BD097
:107F6000EA94F801C1F70894C11CD11CFA94CF0C13
:107F7000D11C0EC0853739F428D08EE10CD085E9AC
:107F80000AD08FE07ACF813511F488E018D01DD067
:107F900080E101D065CF982F8091C00085FFFCCF94
:107FA0009093C60008958091C00087FFFCCF809118
:107FB000C00084FD01C0A8958091C6000895E0E648
:107FC000F0E098E1908380830895EDDF803219F02E
:107FD00088E0F5DFFFCF84E1DECF1F93182FE3DFCA
:107FE0001150E9F7F2DF1F91089580E0E8DFEE27F6
:047FF000FF270994CA
:027FFE00040479
:00000001FF
