:020000040000FA
:100000000C9462000C948A000C948A000C948A0070
:100010000C948A000C948A000C948A000C948A0038
:100020000C948A000C948A000C948A000C948A0028
:100030000C948A000C948A000C948A000C948A0018
:100040000C945E080C948A000C94CE080C94A808BA
:100050000C948A000C948A000C948A000C948A00F8
:100060000C948A000C948A000000000024002700F1
:100070002A000000000023002600290000000000E4
:10008000250028002B0004040404040404040202D4
:100090000202020203030303030301020408102007
:1000A0004080010204081020010204081020000012
:1000B0000008000201000003040700000000000027
:1000C0000000580911241FBECFEFD8E0DEBFCDBF1E
:1000D00011E0A0E0B1E0ECE9FDE102C005900D9275
:1000E000AC33B107D9F723E0ACE3B1E001C01D9216
:1000F000A43EB207E1F710E0C2E6D0E004C02197C9
:10010000FE010E94C10EC136D107C9F70E949409B1
:100110000C94CC0E0C940000FB01DC015C91952F3B
:10012000990F990F990F35E5292F239F020E20E093
:10013000211D1124822F252F2074452F407257FD39
:1001400025C0211110C0411106C0982F9095382F5D
:10015000892F90E004C035E5380F90E08BEA80836A
:1001600031839283089541110BC0292F3AEA239FCE
:10017000020E20E0211D11249BEA921B380FE8CFCC
:1001800090E0382F3095982F80E0E9CF211112C0F0
:1001900041110CC0292F3AEA239F020E20E0211DB5
:1001A00011243BEA321B95E5920FEECF982F9095E4
:1001B00030E0D5CF411106C025E5280F9BEA981BFA
:1001C000822FF6CF2AEA280F90E0932FF8CFE0EBAA
:1001D000F0E02491ECE9F0E09491E8E8F0E0E491BB
:1001E000EE23C9F0222339F0233001F1A8F42130A5
:1001F00019F1223029F1F0E0EE0FFF1FE458FF4F14
:10020000A591B4912FB7F894EC91811126C09095E7
:100210009E239C932FBF08952730A9F02830C9F062
:10022000243049F7209180002F7D03C02091800069
:100230002F7720938000DFCF24B52F7724BDDBCF2D
:1002400024B52F7DFBCF2091B0002F772093B000F5
:10025000D2CF2091B0002F7DF9CF9E2BDACFDC01D9
:1002600017962C91179730E0F901E656FF4FE4916D
:100270001696EC9316972A573F4FF9018491E82F71
:10028000F0E0EE0FFF1FE458FF4F85919491139615
:100290009C938E931297F9012491E22FF0E0EE0FD8
:1002A000FF1FEE58FF4F8591949115969C938E9366
:1002B000149708953FB7F8948091220390912303F7
:1002C000A0912403B091250326B5A89B05C02F3F1C
:1002D00019F00196A11DB11D3FBFBA2FA92F982F6C
:1002E0008827BC01CD01620F711D811D911D42E067
:1002F000660F771F881F991F4A95D1F708954F926F
:100300005F926F927F929F92AF92BF92CF92DF9255
:10031000EF92FF920F931F93CF93DF9300D01F9222
:10032000CDB7DEB7D82E8091D6039091D703A09198
:10033000D803B091D903892B8A2B8B2BD9F00E943B
:100340005A0100913203109133032091340330910C
:100350003503601B710B820B930B0091D603109138
:10036000D7032091D8033091D90360177107820712
:100370009307C8F20E945A016093320370933303CB
:100380008093340390933503E091DE03F091DF0313
:10039000309759F04091DA035091DB036091DC0310
:1003A0007091DD038D2D0995D82EE0903003F090EB
:1003B00031034D2C512C712C612CE114F10409F402
:1003C00059C0D7011C96CC901C978091D403909172
:1003D000D5038436910510F41C961C92D701ED913B
:1003E000FC91A280B38019821A821B82DD2079F1F0
:1003F000F701369610E000E02191222319F1928056
:10040000992001F130E050E040E02F5F3F4F4F4F27
:100410005F4FC301B2010E94820E9B01AC01892D86
:1004200090E0B0E0A0E0BC01CD016F5F7F4F8F4F47
:100430009F4F0E94820EA1E0B0E0AC0FBD1FA00F45
:10044000B11F8C930F5F1F4F03301105A9F609816F
:100450001A812B81F7014585568562817381C70119
:10046000F5010995D7011C96CC921C971496ED9036
:10047000FC90A3CF80912E0390912F039C012F5FBE
:100480003F4F30932F0320932E0349970CF44AC01B
:100490008FB7F894209126033091270340912803C9
:1004A000509129038FBF80912A0390912B03A09133
:1004B0002C03B0912D03281B390B4A0B5B0B21F445
:1004C00021E030E040E050E0E0912E03F0912F0376
:1004D00088EE93E0E89FB001E99F700DF89F700DE2
:1004E0001124072E000C880B990B0E94200D3093CD
:1004F000D5032093D40310922F0310922E032FB70D
:10050000F8948091260390912703A0912803B0913D
:1005100029032FBF80932A0390932B03A0932C03CE
:10052000B0932D030F900F900F90DF91CF911F91FB
:100530000F91FF90EF90DF90CF90BF90AF909F9082
:100540007F906F905F904F9008958F929F92AF929F
:10055000BF92CF92DF92EF92FF924B015C010E941B
:100560005A016B017C010E945A016C197D098E09A8
:100570009F09683E734081059105A8F321E0821A26
:100580009108A108B10888EEC80E83E0D81EE11CCE
:10059000F11C81149104A104B10429F7FF90EF909C
:1005A000DF90CF90BF90AF909F908F90089580E99B
:1005B00091E00895AF92BF92CF92DF92EF92FF92B7
:1005C0000F931F93CF93DF936C017B018B01040F7B
:1005D000151FEB015E01AE18BF08C017D10759F017
:1005E0006991D601ED91FC910190F081E02DC60159
:1005F0000995892B79F7C501DF91CF911F910F9153
:10060000FF90EF90DF90CF90BF90AF900895FC01E6
:10061000538D448D252F30E0842F90E0821B930B67
:10062000541710F0CF96089501970895FC01918D0D
:10063000828D981761F0A28DAE0FBF2FB11D5D9610
:100640008C91928D9F5F9F73928F90E008958FEFB2
:100650009FEF0895FC01918D828D981731F0828D66
:10066000E80FF11D858D90E008958FEF9FEF0895BD
:10067000FC01918D228D892F90E0805C9F4F821B21
:1006800091098F739927089586E393E00E943803B8
:1006900021E0892B09F420E0822F089580E090E08A
:1006A000892B29F00E94440381110C9400000895C5
:1006B000FC01A48DA80FB92FB11DA35ABF4F2C91D7
:1006C000848D90E001968F739927848FA689B789CE
:1006D0002C93A089B1898C91837080648C93938DC5
:1006E000848D981306C00288F389E02D80818F7D68
:1006F00080830895EF92FF920F931F93CF93DF9320
:10070000EC0181E0888F9B8D8C8D98131AC0E8894D
:10071000F989808185FF15C09FB7F894EE89FF891C
:100720006083E889F98980818370806480839FBFBA
:1007300081E090E0DF91CF911F910F91FF90EF90BA
:100740000895F62E0B8D10E00F5F1F4F0F731127CA
:10075000E02E8C8D8E110CC00FB607FCFACFE88905
:10076000F989808185FFF5CFCE010E945803F1CF32
:10077000EB8DEC0FFD2FF11DE35AFF4FF0829FB779
:10078000F8940B8FEA89FB8980818062CFCFCF9369
:10079000DF93EC01888D8823B9F0AA89BB89E889A9
:1007A000F9898C9185FD03C0808186FD0DC00FB64F
:1007B00007FCF7CF8C9185FFF2CF808185FFEDCFCD
:1007C000CE010E945803E9CFDF91CF9108952F9277
:1007D0003F924F925F926F927F928F929F92AF92D1
:1007E000BF92CF92DF92EF92FF920F931F93CF931E
:1007F000DF93CDB7DEB729970FB6F894DEBF0FBEF3
:10080000CDBF898749835A836B837C8300913003F2
:1008100010913103BDE78B2E912CA12CB12C011529
:10082000110509F46BC0D801ED91FC910084F185AC
:10083000E02DC80109951C01D8011296ED91FC919B
:10084000C12CD12C7601412C512C320120E030E01A
:10085000A901009791F06081260F311D411D511DA6
:100860006181460E511C611C711C6281C60ED11C37
:10087000E11CF11C01973396ECCFA0E5B0E00E949B
:100880000D0D6D837E838F839887A7E3B0E0A3016E
:1008900092010E940D0D2B013C01ABE4B0E0A701D9
:1008A00096010E940D0D2D813E814F815885C32EEA
:1008B000D42EE52EFF2445E0429D9001439D300D4E
:1008C0001124C20ED31EE11CF11C8C0C9D1CAE1C0D
:1008D000BF1C452C562C672C7724840C951CA61C19
:1008E000B71C472F582F692F7727840E951EA61EF9
:1008F000B71ED80114960D911C9191CFB985CB2EBE
:10090000D12CF12CE12CA7019601C501B4010E9464
:10091000820E872E982EA92EBB2429813A814B81E5
:100920005C8182169306A406B50668F0A7019601BD
:1009300069817A818B819C810E94820EA50194013C
:100940000E94200D2987898529960FB6F894DEBF6D
:100950000FBECDBFDF91CF911F910F91FF90EF9010
:10096000DF90CF90BF90AF909F908F907F906F90CF
:100970005F904F903F902F900895FC01A281B3812A
:100980009C9186812681982381E0921380E00895CE
:10099000FC0186810280F381E02D9081809589237E
:1009A00080830895FC0196810280F381E02D80818F
:1009B000892B808308950F931F93CF93DF9320910A
:1009C0003D012F5F322F377030933D0120FF2BC048
:1009D00020E831FD2064347009F02062205FFC01C2
:1009E000EC01239600E011E06485662329F070E0B5
:1009F000C8010E94920E6F5F6187322F369F030EEF
:100A000030E0311D1124311110C01682662311F01F
:100A1000615061873196EC17FD0731F7DF91CF9177
:100A20001F910F91089520E0D4CF31503683EECF3F
:100A30004F925F927F928F929F92AF92BF92CF928E
:100A4000DF92EF92FF920F931F93CF93DF932C01CE
:100A5000EB010E945A01F20127853089621B730B5A
:100A60006A307105B0F3F8948A819B8118161906D3
:100A70000CF0CBC1E881F98105B1016075B17E7FD1
:100A800075B9BA848F812B2D281B822F2F834F8518
:100A9000042E000C550BAA81BB81ED84DC84CE842E
:100AA000E394D394C3949E81388599848B84118177
:100AB00020E0F32E622F322F3181112788943111DB
:100AC000380F08F43FEF81958894E0FC130F1795D9
:100AD0008894E1FC130F17958894E2FC130F179587
:100AE0008894E3FC130F17958894E4FC130F179573
:100AF0008894E5FC130F17958894E6FC130F17955F
:100B00008894E7FC130F17958894232FE110212F69
:100B10008B0D122F002C05B900C017FF75B930815D
:100B20002227889400C000C0002C75B93111390FFC
:100B300000C0002C05B900C016FF75B908F43FEFDE
:100B40009195889400C000C0002C75B9D0FC230F8B
:100B500000C0002C05B900C015FF75B92795889411
:100B6000D1FC230F00C000C0002C75B927958894D4
:100B700000C0002C05B900C014FF75B9D2FC230FCA
:100B80002795889400C000C0002C75B9D3FC230FB2
:100B900000C0002C05B900C013FF75B927958894D3
:100BA000D4FC230F00C000C0002C75B92795889491
:100BB00000C0002C05B900C012FF75B9D5FC230F89
:100BC0002795889400C000C0002C75B9D6FC230F6F
:100BD00000C0002C05B900C011FF75B92795889495
:100BE000D7FC230F00C000C0002C75B9279588944E
:100BF00000C0002C05B900C010FF75B9132FD1102B
:100C0000122F990D00C000C0002C75B900C000C0A3
:100C1000002C05B900C017FF75B9328122278894CE
:100C200000C000C0002C75B931113F0D00C0002C70
:100C300005B900C016FF75B908F43FEFE40FF51FC2
:100C400000C000C0002C75B9C0FC230F00C0002CF0
:100C500005B900C015FF75B927958894C1FC230F0D
:100C600000C000C0002C75B92795889400C0002CE6
:100C700005B900C014FF75B9C2FC230F27958894ED
:100C800000C000C0002C75B9C3FC230F00C0002CAD
:100C900005B900C013FF75B927958894C4FC230FCC
:100CA00000C000C0002C75B92795889400C0002CA6
:100CB00005B900C012FF75B9C5FC230F27958894AC
:100CC00000C000C0002C75B9C6FC230F00C0002C6A
:100CD00005B900C011FF75B927958894C7FC230F8B
:100CE00000C000C0002C75B92795889400C0002C66
:100CF00005B900C010FF75B9132FC110122FF19460
:100D000000C000C0002C75B9F80C00C000C005B9C7
:100D100000C017FF75B931812227889400C000C038
:100D2000002C75B93111380F00C0002C05B900C076
:100D300016FF75B908F43FEF8195889400C000C094
:100D4000002C75B9E0FC230F00C0002C05B900C0D1
:100D500015FF75B927958894E1FC230F00C000C0EA
:100D6000002C75B92795889400C0002C05B900C0E7
:100D700014FF75B9E2FC230F2795889400C000C0CA
:100D8000002C75B9E3FC230F00C0002C05B900C08E
:100D900013FF75B927958894E4FC230F00C000C0A9
:100DA000002C75B92795889400C0002C05B900C0A7
:100DB00012FF75B9E5FC230F2795889400C000C089
:100DC000002C75B9E6FC230F00C0002C05B900C04B
:100DD00011FF75B927958894E7FC230F00C000C068
:100DE000002C75B92795889400C0002C05B900C067
:100DF00010FF75B9132FE110122F8B0D00C000C02A
:100E0000002C75B9119709F086CE4A815B8120EEDE
:100E100031E0DA010E94A60EDC01CB01F4E0B695C8
:100E2000A79597958795FA95D1F730E020E0B9011D
:100E3000EAE94E9F040E611D5E9F600D711D112435
:100E4000650F711D860F971FA11DB11D893E43E0DF
:100E50009407A105B10508F434C0885E9340A10948
:100E6000B10942E0B695A795979587954A95D1F730
:100E700047E0849F080E211D949F200D311D1124F1
:100E8000290F311D60913C0170E0860F971F820F82
:100E9000931F40912603509127036091280370917E
:100EA0002903292F3327420F531F611D711D4093C2
:100EB000260350932703609328037093290380939C
:100EC0003C0178940E945A01F201708B6787DF9190
:100ED000CF911F910F91FF90EF90DF90CF90BF9037
:100EE000AF909F908F907F905F904F900895209A41
:100EF00008956F927F928F92CF92DF92EF92FF923E
:100F00000F931F93CF93DF93CDB7DEB762970FB6E2
:100F1000F894DEBF0FBECDBF6C017A013801822E7E
:100F2000DC011C962C91CA0157FF04C08827992721
:100F3000841B950B7A8369839C838B839E838D832B
:100F40006D867E868F86213049F5CE0101960E94FE
:100F5000DB0483E0888B1A8A198AF7FE02C08DEFC2
:100F6000888BD601ED91FC910484F585E02DBE01BE
:100F70006F5F7F4FC601099562960FB6F894DEBF8A
:100F80000FBECDBFDF91CF911F910F91FF90EF90DA
:100F9000DF90CF908F907F906F9008951C861B8676
:100FA0001A86198618861F82D4CFEF92FF920F936C
:100FB0001F93CF93DF93CDB7DEB762970FB6F89448
:100FC000DEBF0FBECDBF7C01DC011C968C917A8305
:100FD00069835C834B835E834D830D871E872F87D8
:100FE0008130F9F4CE0101960E94DB04188A1A8A36
:100FF000198AD701ED91FC910484F585E02DBE019D
:101000006F5F7F4FC701099562960FB6F894DEBFF8
:101010000FBECDBFDF91CF911F910F91FF90EF9049
:1010200008951C861B861A86198618861F82DECFB5
:10103000382FE9E5F1E02081239F020E20E0211DF9
:1010400020832181239F020E20E0211D2183228104
:10105000239F020E20E0211D22831124339683E07A
:10106000EB31F80741F7089590E080E00895FC0126
:101070008585968508950F931F93CF93DF9300D0B6
:101080001F92CDB7DEB7AB0119821A821B82DC0139
:10109000ED91FC910190F081E02D00E010E020E066
:1010A000BE016F5F7F4F09950F900F900F90DF91FA
:1010B000CF911F910F9108950E94C70E1F920F921A
:1010C0000FB60F9211242F933F938F939F93AF935B
:1010D000BF938091260390912703A0912803B0919C
:1010E00029033091210323E0230F2D3758F5019672
:1010F000A11DB11D20932103809326039093270304
:10110000A0932803B0932903809122039091230395
:10111000A0912403B09125030196A11DB11D8093D8
:10112000220390932303A0932403B0932503BF913C
:10113000AF919F918F913F912F910F900FBE0F9084
:101140001F90189526E8230F0296A11DB11DD2CF3E
:101150001F920F920FB60F9211242F933F934F932C
:101160005F936F937F938F939F93AF93BF93EF930F
:10117000FF9386E393E00E945803FF91EF91BF91A4
:10118000AF919F918F917F916F915F914F913F911F
:101190002F910F900FBE0F901F9018951F920F92D6
:1011A0000FB60F9211242F938F939F93EF93FF937A
:1011B000E0914603F09147038081E0914C03F09168
:1011C0004D0382FD1BC0908180914F038F5F8F7311
:1011D00020915003821741F0E0914F03F0E0EA5C68
:1011E000FC4F958F80934F03FF91EF919F918F91CB
:1011F0002F910F900FBE0F901F9018958081F4CF04
:10120000CF92DF92EF92FF920F931F93E82FF92F67
:1012100005C0015011092109310961F1908196231E
:101220009417B9F305C0015011092109310911F1D1
:10123000908196239413F7CFC12CD12CE12CF12C63
:101240000AC08FEFC81AD80AE80AF80A0C151D055B
:101250002E053F0579F080818623841791F36C2D4C
:101260007D2D8E2D9F2D1F910F91FF90EF90DF9080
:10127000CF90089560E070E080E090E01F910F91C2
:10128000FF90EF90DF90CF900895FC010FB6F89497
:101290006091E0037091E1038091E2039091E30398
:1012A0000FBE309721F0608371838283938308950A
:1012B000E6E3F3E01382128288EE93E0A0E0B0E070
:1012C00084839583A683B7838AE291E091838083A8
:1012D00085EC90E09587848784EC90E097878687FB
:1012E00080EC90E0918B808B81EC90E0938B828BF3
:1012F00082EC90E0958B848B86EC90E0978B868BCC
:10130000118E128E138E148EE3EDF3E08FEF808337
:1013100012821182148613868FEF9FEFDC01878380
:101320009087A187B2870895CF93DF93CDB7DEB7BB
:10133000A1970FB6F894DEBF0FBECDBF789484B5E9
:10134000826084BD84B5816084BD85B5826085BDC1
:1013500085B5816085BD80916E00816080936E004F
:101360001092810080918100826080938100809141
:1013700081008160809381008091800081608093F2
:1013800080008091B10084608093B1008091B000B2
:1013900081608093B00080917A00846080937A00AD
:1013A00080917A00826080937A0080917A008160D7
:1013B00080937A0080917A00806880937A001092FE
:1013C000C100ECE9F0E02491E8E8F0E084918823A2
:1013D00099F090E0880F991FFC01E859FF4FA59103
:1013E000B491FC01E458FF4F859194918FB7F89424
:1013F000EC91E22BEC938FBFEDE9F0E02491E9E86A
:10140000F0E084918823C9F090E0880F991FFC01D7
:10141000E859FF4FA591B491FC01E458FF4F459165
:1014200054913FB7F8949C91822F809598239C9378
:10143000FA019081892380833FBFE0914603F091B8
:10144000470382E08083E0914203F09143031082DE
:10145000E0914403F09145038FEC808310924E039A
:10146000E0914A03F0914B0386E08083E0914803CA
:10147000F0914903808180618083E0914803F0917D
:101480004903808188608083E0914803F09149039B
:10149000808180688083E0914803F09149038081D6
:1014A0008F7D808390E080E00E944509CB010E94FF
:1014B000E30C68EB7BE080E090E00E94A50287EE01
:1014C00093E09093DF038093DE0388E99AE3A0E042
:1014D000B0E08093DA039093DB03A093DC03B09336
:1014E000DD0380915101811145C01092430110929A
:1014F00042018FEF8093460180934701809348011A
:101500008093490180934A0180934B0181E080934D
:101510004C0110924E0110924D0110924501109213
:1015200044018091300390913103892B31F480E4A0
:1015300091E09093310380933003E0913E01F0916C
:101540003F01309721F080E491E09583848380E42B
:1015500091E090933F0180933E01109250011092D0
:101560004F0188E191E0909341018093400181E037
:1015700080935101209A89E591E0909343018093F3
:10158000420186E990E090934E0180934D01809155
:10159000D6039091D703A091D803B091D903843C8E
:1015A000F9E09F07A105B10520F484EC99E0A0E0E3
:1015B000B0E08093D6039093D703A093D803B09361
:1015C000D90384E68093D3030E947F01EAE08E2E44
:1015D000912CA12CB12C73E2272E312C66E9E62E3A
:1015E000FF24FA9480E00E94E70083E090E00197F6
:1015F000F1F781E00E94E700C1010197F1F780E077
:101600000E94E700EDE9F0E06491E9E8F0E0849100
:10161000E82FF0E0EE0FFF1FEE58FF4F85919491F9
:1016200000E412E42FE030E0462F0E94000961152B
:1016300071058105910529F06F5F7F4F8F4F9F4F97
:101640009F700E94890D26E933E44BE05DE30E9420
:10165000ED0D20E030E040E05FE30E94ED0D0E94E0
:10166000510D9B0177FF02C02F5F3F4FC901959538
:1016700087959093200380931F030E94DE0C6AE1FC
:1016800070E00E94920E6C01F6EECF0ED11C00911C
:101690001D0310911E0317FFAFC080911F0390918F
:1016A000200362E070E0889714F061E070E0060FBC
:1016B000171F10931E0300931D038091D3030E94F4
:1016C0007F01C6010E9418080E94DE0C6AE170E0EA
:1016D0000E94920E6C0126EEC20ED11C80911B035B
:1016E00090911C0397FFC3C020911F0330912003EA
:1016F00002E010E02832310514F001E010E0080F9C
:10170000191F10931C0300931B038091D3030E94A5
:101710007F01C6010E94180840901F0350902003CB
:10172000052C000C6608770877FEE6C06DE286E3BC
:1017300093E00E947A0322273327A901241935094F
:101740004609570919A28E010F5D1F4FCA01B90141
:10175000A50194010E94200D605DF80162938F0144
:10176000211531054105510589F70115110561F074
:1017700001900020E9F73197AF01401B510BB801F0
:1017800086E393E00E94DA0242E050E068E371E011
:1017900086E393E00E94DA0280911D0390911E037C
:1017A0008739910524F010921E0310921D0361E009
:1017B00070E080E090E00E94A50280911B03909170
:1017C0001C03863991055CF080911F0390912003E2
:1017D00091958195910990931C0380931B0380E060
:1017E00090E0892B09F4FECE0E944403882309F47B
:1017F000F5CE0E940000EFCE073911050CF05DCF49
:1018000080911F039091200362E070E0889714F0AC
:1018100061E070E0060F171F10931E0300931D0375
:10182000E982FA82FB82B801660F771F600F711F91
:10183000675A7E4FCE0101960E948C000639110531
:101840008CF4E982FA82FB820F5F1F4FB801660FAA
:10185000771F600F711F675A7E4FCE0101960E945D
:101860008C002BCF10921E0310921D0326CF8639B9
:1018700091050CF04ACF20911F033091200302E024
:1018800010E02832310514F001E010E00F5F1F4F27
:10189000080F191F10931C0300931B03F982FA828F
:1018A000FB82B801660F771F600F711F675A7E4F6A
:1018B000CE0101960E948C00053911050CF025CF50
:1018C000F982FA82FB820F5F1F4FB801660F771F04
:1018D000060F171FB801675A7E4FCE0101960E946E
:1018E0008C00F982FA82FB82B801645A7E4FCE01E5
:1018F00001960E948C0009CFA301920119A28E01CA
:101900000F5D1F4FCA01B901A50194010E94200D6E
:10191000605DF80162938F01211531054105510584
:1019200089F723CF8F929F92AF92BF92CF92DF928F
:10193000EF92FF92CF93DF93EC01688179818A81E6
:101940009B81611571058105910521F464E279EDB2
:101950008BE597E02DE133EF41E050E00E94EE0C83
:1019600049015A019B01AC01A7EAB1E40E940D0DA7
:101970006B017C01ACEEB4EFA50194010E941B0D3C
:10198000DC01CB018C0D9D1DAE1DBF1DB7FF03C03B
:101990000197A109B04888839983AA83BB839F7765
:1019A000DF91CF91FF90EF90DF90CF90BF90AF90FD
:1019B0009F908F9008950E94920C089580E091E08E
:1019C0000E94920C0895B0E0A0E0809300019093F3
:1019D0000101A0930201B09303010895052E97FB26
:1019E0001EF400940E94050D57FD07D00E94200DA3
:1019F00007FC03D04EF40C94050D5095409530959E
:101A000021953F4F4F4F5F4F08959095809570956A
:101A100061957F4F8F4F9F4F08950E94420DA59F64
:101A2000900DB49F900DA49F800D911D11240895D9
:101A3000B7FF0C940D0D0E940D0D821B930B0895A2
:101A4000A1E21A2EAA1BBB1BFD010DC0AA1FBB1FC2
:101A5000EE1FFF1FA217B307E407F50720F0A21B34
:101A6000B30BE40BF50B661F771F881F991F1A94A1
:101A700069F760957095809590959B01AC01BD01CB
:101A8000CF010895A29FB001B39FC001A39F700D25
:101A9000811D1124911DB29F700D811D1124911D76
:101AA00008950E94580D6894B1110C94E70D0895A3
:101AB0000E94CC0D88F09F5798F0B92F9927B75105
:101AC000B0F0E1F0660F771F881F991F1AF0BA95E2
:101AD000C9F714C0B13091F00E94E60DB1E008954D
:101AE0000C94E60D672F782F8827B85F39F0B93F3F
:101AF000CCF3869577956795B395D9F73EF4909595
:101B00008095709561957F4F8F4F9F4F0895E89412
:101B100009C097FB3EF490958095709561957F4F35
:101B20008F4F9F4F9923A9F0F92F96E9BB279395E3
:101B3000F695879577956795B795F111F8CFFAF4F3
:101B4000BB0F11F460FF1BC06F5F7F4F8F4F9F4F24
:101B500016C0882311F096E911C0772321F09EE882
:101B6000872F762F05C0662371F096E8862F70E0E8
:101B700060E02AF09A95660F771F881FDAF7880FC2
:101B80009695879597F9089557FD9058440F551FDE
:101B900059F05F3F71F04795880F97FB991F61F0EF
:101BA0009F3F79F087950895121613061406551F66
:101BB000F2CF4695F1DF08C0161617061806991FD2
:101BC000F1CF86957105610508940895E894BB27C7
:101BD00066277727CB0197F908950E94000E0C9491
:101BE000710E0E94630E38F00E946A0E20F0952359
:101BF00011F00C945A0E0C94600E11240C94E70D05
:101C00000E94C40D70F3959FC1F3950F50E0551FCE
:101C1000629FF001729FBB27F00DB11D639FAA2741
:101C2000F00DB11DAA1F649F6627B00DA11D661F90
:101C3000829F2227B00DA11D621F739FB00DA11DB1
:101C4000621F839FA00D611D221F749F3327A00D6B
:101C5000611D231F849F600D211D822F762F6A2F07
:101C600011249F5750409AF0F1F088234AF0EE0F6C
:101C7000FF1FBB1F661F771F881F91505040A9F799
:101C80009E3F510580F00C945A0E0C94E70D5F3F77
:101C9000E4F3983ED4F3869577956795B795F795D5
:101CA000E7959F5FC1F7FE2B880F911D969587954D
:101CB00097F9089597F99F6780E870E060E00895CC
:101CC0009FEF80EC089500240A9416161706180654
:101CD0000906089500240A94121613061406050630
:101CE0000895092E0394000C11F4882352F0BB0FC1
:101CF00040F4BF2B11F460FF04C06F5F7F4F8F4F24
:101D00009F4F0895DB018F939F930E940D0DBF910C
:101D1000AF91A29F800D911DA39F900DB29F900D3A
:101D20001124089597FB072E16F4009407D077FD31
:101D300009D00E94AD0E07FC05D03EF49095819528
:101D40009F4F0895709561957F4F08950E94420DB1
:101D5000B7FF0895821B930B0895AA1BBB1B51E18B
:101D600007C0AA1FBB1FA617B70710F0A61BB70B0B
:101D7000881F991F5A95A9F780959095BC01CD01B0
:101D80000895EE0FFF1F0590F491E02D099481E076
:101D900090E0F8940C94CC0EF894FFCF0100000072
:101DA000000000005C085C085C083B083708340849
:101DB00000000000D507790777073B083708D702EE
:101DC0001805000000007A03DA020703C70338038E
:081DD00016032A030D0A0000AE
:107E0000112484B714BE81FFF0D085E080938100F7
:107E100082E08093C00088E18093C10086E0809377
:107E2000C20080E18093C4008EE0C9D0259A86E02C
:107E300020E33CEF91E0309385002093840096BBD3
:107E4000B09BFECF1D9AA8958150A9F7CC24DD24C4
:107E500088248394B5E0AB2EA1E19A2EF3E0BF2EE7
:107E6000A2D0813461F49FD0082FAFD0023811F036
:107E7000013811F484E001C083E08DD089C08234E0
:107E800011F484E103C0853419F485E0A6D080C0E4
:107E9000853579F488D0E82EFF2485D0082F10E0AE
:107EA000102F00270E291F29000F111F8ED06801E7
:107EB0006FC0863521F484E090D080E0DECF843638
:107EC00009F040C070D06FD0082F6DD080E0C81688
:107ED00080E7D80618F4F601B7BEE895C0E0D1E017
:107EE00062D089930C17E1F7F0E0CF16F0E7DF06D8
:107EF00018F0F601B7BEE89568D007B600FCFDCFD4
:107F0000A601A0E0B1E02C9130E011968C91119780
:107F100090E0982F8827822B932B1296FA010C0160
:107F200087BEE89511244E5F5F4FF1E0A038BF0790
:107F300051F7F601A7BEE89507B600FCFDCF97BE46
:107F4000E89526C08437B1F42ED02DD0F82E2BD052
:107F50003CD0F601EF2C8F010F5F1F4F84911BD097
:107F6000EA94F801C1F70894C11CD11CFA94CF0C13
:107F7000D11C0EC0853739F428D08EE10CD085E9AC
:107F80000AD08FE07ACF813511F488E018D01DD067
:107F900080E101D065CF982F8091C00085FFFCCF94
:107FA0009093C60008958091C00087FFFCCF809118
:107FB000C00084FD01C0A8958091C6000895E0E648
:107FC000F0E098E1908380830895EDDF803219F02E
:107FD00088E0F5DFFFCF84E1DECF1F93182FE3DFCA
:107FE0001150E9F7F2DF1F91089580E0E8DFEE27F6
:047FF000FF270994CA
:027FFE00040479
:00000001FF
