:100000000C94F8000C9429010C9429010C942901FA
:100010000C9429010C9429010C9429010C942901B8
:100020000C9429010C9429010C9429010C942901A8
:100030000C9429010C9429010C9429010C94290198
:100040000C9429010C9429010C9429010C94290188
:100050000C9429010C9429010C9429010C94240A74
:100060000C9429010C9429010C9429010C94290168
:100070000C9429010C9429010C9429010C94290158
:100080000C9429010C9429010C9429010C94290148
:100090000C9429010C9429010C9429010C94290138
:1000A0000C9429010C9429010C9429010C94290128
:1000B0000C9429010C9429010C9429010C94290118
:1000C0000C9429010C9429010C9429010C94290108
:1000D0000C9429010C9429010C9429010C942901F8
:1000E0000C9429010C94220A0C9469050C9426089E
:1000F0000C94D5090C94CE090C94CB0C0C9463058C
:100100000C94C8070C94A7020C94D1090C94CA074C
:100110000C94E70200002200250028002B002E008E
:100120003100340002010000050108010B0100004C
:100130002100240027002A002D0030003300010197
:100140000000040107010A0100002000230026002E
:1001500029002C002F0032000001000003010601DD
:10016000090105050505070508080808020202023D
:100170000A0A080804040404010101010101010143
:100180000303030303030303040707070C0C0C0C0E
:100190000C0C0C0C020202020606060606060606F7
:1001A0000B0B0B0B0B0B0B0B010210202008081084
:1001B00020401020408002010201080402010102D7
:1001C00004081020408080402010080402018004B0
:1001D000020180402010080402010804020101020B
:1001E0000408102040800102040810204080CB0C3D
:1001F00011241FBECFEFD1E2DEBFCDBF00E00CBFA8
:1002000012E0A0E0B2E0ECE2FDE100E00BBF02C0D2
:1002100007900D92AC34B107D9F727E0ACE4B2E017
:1002200001C01D92AC3EB207E1F710E0C8EFD0E08C
:1002300000E006C021970109802FFE010E94780E80
:10024000C73FD10780E00807A9F70E94B30A0C94C2
:10025000940E0C9400003FB7F8948091CB079091D6
:10026000CC07A091CD07B091CE0726B5A89B05C0BD
:100270002F3F19F00196A11DB11D3FBFBA2FA92F25
:10028000982F8827BC01CD01620F711D811D911D22
:1002900042E0660F771F881F991F4A95D1F708958E
:1002A0004F925F926F927F929F92AF92BF92CF9246
:1002B000DF92EF92FF920F931F93CF93DF9300D0C3
:1002C000CDB7DEB7D82E8091DC079091DD07A091E5
:1002D000DE07B091DF07892B8A2B8B2BD9F00E9488
:1002E0002B010091E8071091E9072091EA0730916E
:1002F000EB07601B710B820B930B0091DC071091D5
:10030000DD072091DE073091DF0760177107820754
:100310009307C8F20E942B016093E8077093E907E6
:100320008093EA079093EB07E091E407F091E507EB
:10033000309759F04091E0075091E1076091E20752
:100340007091E3078D2D1995D82EE090E607F09077
:10035000E7074D2C512C712C612CE114F10409F4A8
:1003600059C0D7011C96CC901C978091DA079091C8
:10037000DB078436910510F41C961C92D701ED9191
:10038000FC91A280B38019821A821B82DD2079F150
:10039000F701369610E000E02191222319F19280B6
:1003A000992001F130E050E040E02F5F3F4F4F4F88
:1003B0005F4FC301B2010E940C0E9B01AC01892D5D
:1003C00090E0B0E0A0E0BC01CD016F5F7F4F8F4FA8
:1003D0009F4F0E940C0EA1E0B0E0AC0FBD1FA00F1C
:1003E000B11F8C930F5F1F4F03301105A9F60981D0
:1003F0001A812B81F7014585568562817381C7017A
:10040000F5011995D7011C96CC921C971496ED9086
:10041000FC90A3CF8091D7079091D8079C012F5FC4
:100420003F4F3093D8072093D70749970CF44AC021
:100430008FB7F8942091CF073091D0074091D10722
:100440005091D2078FBF8091D3079091D407A0918C
:10045000D507B091D607281B390B4A0B5B0B21F44B
:1004600021E030E040E050E0E091D707F091D8077C
:1004700088EE93E0E89FB001E99F700DF89F700D42
:100480001124072E000C880B990B0E94300E30931C
:10049000DB072093DA071092D8071092D7072FB7FF
:1004A000F8948091CF079091D007A091D107B09197
:1004B000D2072FBF8093D3079093D407A093D5077B
:1004C000B093D6070F900F900F90DF91CF911F91AF
:1004D0000F91FF90EF90DF90CF90BF90AF909F90E3
:1004E0007F906F905F904F9008958F929F92AF9200
:1004F000BF92CF92DF92EF92FF924B015C010E947C
:100500002B016B017C010E942B016C197D098E0966
:100510009F09683E734081059105A8F321E0821A86
:100520009108A108B10888EEC80E83E0D81EE11C2E
:10053000F11C81149104A104B10429F7FF90EF90FC
:10054000DF90CF90BF90AF909F908F90089580E9FB
:1005500091E008950F931F93CF93DF9320914F0263
:100560002F5F322F377030934F0220FF2BC020E8CF
:1005700031FD2064347009F02062205FFC01EC0141
:10058000239600E011E06485662329F070E0C8013D
:100590000E941C0E6F5F6187322F369F030E30E082
:1005A000311D1124311110C01682662311F06150E3
:1005B00061873196EC17FD0731F7DF91CF911F91DD
:1005C0000F91089520E0D4CF31503683EECF4F9273
:1005D0005F927F928F929F92AF92BF92CF92DF9263
:1005E000EF92FF920F931F93CF93DF932C01EB01B8
:1005F0000E942B01F20127853089621B730B6A3040
:100600007105B0F3F8948A819B81181619060CF0D5
:10061000E8C1E881F9810091020100627091020154
:100620007F7D70930201BA848F812B2D281B822F2E
:100630002F834F85042E000C550BAA81BB81ED84BE
:10064000DC84CE84E394D394C3949E8138859984CA
:100650008B84118120E0F32E622F322F31811127FC
:1006600088943111380F08F43FEF81958894E0FCAD
:10067000130F17958894E1FC130F17958894E2FCEB
:10068000130F17958894E3FC130F17958894E4FCD7
:10069000130F17958894E5FC130F17958894E6FCC3
:1006A000130F17958894E7FC130F17958894232F41
:1006B000E110212F8B0D122F002C00930201002C32
:1006C00017FF7093020130812227889400C000C078
:1006D000709302013111390F00C000930201002C08
:1006E00016FF7093020108F43FEF9195889400C0C3
:1006F00000C070930201D0FC230F00C000930201E0
:10070000002C15FF7093020127958894D1FC230FCC
:1007100000C000C0709302012795889400C0009328
:100720000201002C14FF70930201D2FC230F2795C5
:10073000889400C000C070930201D3FC230F00C056
:1007400000930201002C13FF7093020127958894F7
:10075000D4FC230F00C000C0709302012795889439
:1007600000C000930201002C12FF70930201D5FC1F
:10077000230F2795889400C000C070930201D6FC17
:10078000230F00C000930201002C11FF709302019F
:1007900027958894D7FC230F00C000C070930201F6
:1007A0002795889400C000930201002C10FF7093DD
:1007B0000201132FD110122F990D00C000C07093A9
:1007C000020100C000C000930201002C17FF7093CB
:1007D000020132812227889400C000C07093020178
:1007E00031113F0D00C000930201002C16FF7093E1
:1007F000020108F43FEFE40FF51F00C000C0709342
:100800000201C0FC230F00C000930201002C15FF61
:100810007093020127958894C1FC230F00C000C08B
:10082000709302012795889400C000930201002C68
:1008300014FF70930201C2FC230F2795889400C017
:1008400000C070930201C3FC230F00C0009302019B
:10085000002C13FF7093020127958894C4FC230F8A
:1008600000C000C0709302012795889400C00093D7
:100870000201002C12FF70930201C5FC230F279583
:10088000889400C000C070930201C6FC230F00C012
:1008900000930201002C11FF7093020127958894A8
:1008A000C7FC230F00C000C07093020127958894F5
:1008B00000C000930201002C10FF70930201132F5F
:1008C000C110122FF19400C000C070930201F80C07
:1008D00000C0002C00930201002C17FF709302014E
:1008E00031812227889400C000C070930201311129
:1008F000380F00C000930201002C16FF7093020114
:1009000008F43FEF8195889400C000C07093020105
:10091000E0FC230F00C000930201002C15FF709330
:10092000020127958894E1FC230F00C000C070935A
:1009300002012795889400C000930201002C14FF47
:1009400070930201E2FC230F2795889400C000C039
:1009500070930201E3FC230F00C000930201002CFE
:1009600013FF7093020127958894E4FC230F00C0C5
:1009700000C0709302012795889400C00093020183
:10098000002C12FF70930201E5FC230F2795889439
:1009900000C000C070930201E6FC230F00C000936A
:1009A0000201002C11FF7093020127958894E7FC47
:1009B000230F00C000C0709302012795889400C0E7
:1009C00000930201002C10FF70930201132FE1101D
:1009D000122F8B0D00C000C070930201119709F017
:1009E0006CCE4A815B8120EE31E0DA010E94520E2A
:1009F000DC01CB01F4E0B695A79597958795FA951C
:100A0000D1F730E020E0B901EAE94E9F040E611D04
:100A10005E9F600D711D1124650F711D860F971F5C
:100A2000A11DB11D893E43E09407A105B10508F45D
:100A300034C0885E9340A109B10942E0B695A795FC
:100A4000979587954A95D1F747E0849F080E211D19
:100A5000949F200D311D1124290F311D60914E02EC
:100A600070E0860F971F820F931F4091CF07509120
:100A7000D0076091D1077091D207292F3327420FF9
:100A8000531F611D711D4093CF075093D007609392
:100A9000D1077093D20780934E0278940E942B0165
:100AA000F201708B6787DF91CF911F910F91FF90BB
:100AB000EF90DF90CF90BF90AF909F908F907F90FE
:100AC0005F904F900895E1E0F1E080818062808343
:100AD00008954F925F927F928F929F92AF92BF92B2
:100AE000CF92DF92EF92FF920F931F93CF93DF93FA
:100AF0002C01EB010E942B01F20127853089621B3A
:100B0000730B6A307105B0F3F8948A819B811816D3
:100B100019060CF0CBC1E881F98105B1006175B10E
:100B20007F7E75B9BA848F812B2D281B822F2F834E
:100B30004F85042E000C550BAA81BB81ED84DC840B
:100B4000CE84E394D394C3949E81388599848B8416
:100B5000118120E0F32E622F322F318111278894EA
:100B60003111380F08F43FEF81958894E0FC130FA2
:100B700017958894E1FC130F17958894E2FC130FE6
:100B800017958894E3FC130F17958894E4FC130FD2
:100B900017958894E5FC130F17958894E6FC130FBE
:100BA00017958894E7FC130F17958894232FE1106D
:100BB000212F8B0D122F002C05B900C017FF75B91E
:100BC00030812227889400C000C0002C75B93111F3
:100BD000390F00C0002C05B900C016FF75B908F424
:100BE0003FEF9195889400C000C0002C75B9D0FCEF
:100BF000230F00C0002C05B900C015FF75B927955B
:100C00008894D1FC230F00C000C0002C75B9279533
:100C1000889400C0002C05B900C014FF75B9D2FC3F
:100C2000230F2795889400C000C0002C75B9D3FC11
:100C3000230F00C0002C05B900C013FF75B927951C
:100C40008894D4FC230F00C000C0002C75B92795F0
:100C5000889400C0002C05B900C012FF75B9D5FCFE
:100C6000230F2795889400C000C0002C75B9D6FCCE
:100C7000230F00C0002C05B900C011FF75B92795DE
:100C80008894D7FC230F00C000C0002C75B92795AD
:100C9000889400C0002C05B900C010FF75B9132F4F
:100CA000D110122F990D00C000C0002C75B900C0E2
:100CB00000C0002C05B900C017FF75B9328122278A
:100CC000889400C000C0002C75B931113F0D00C0E0
:100CD000002C05B900C016FF75B908F43FEFE40F0A
:100CE000F51F00C000C0002C75B9C0FC230F00C068
:100CF000002C05B900C015FF75B927958894C1FC73
:100D0000230F00C000C0002C75B92795889400C03F
:100D1000002C05B900C014FF75B9C2FC230F27953C
:100D2000889400C000C0002C75B9C3FC230F00C01C
:100D3000002C05B900C013FF75B927958894C4FC31
:100D4000230F00C000C0002C75B92795889400C0FF
:100D5000002C05B900C012FF75B9C5FC230F2795FB
:100D6000889400C000C0002C75B9C6FC230F00C0D9
:100D7000002C05B900C011FF75B927958894C7FCF0
:100D8000230F00C000C0002C75B92795889400C0BF
:100D9000002C05B900C010FF75B9132FC110122F18
:100DA000F19400C000C0002C75B9F80C00C000C060
:100DB00005B900C017FF75B931812227889400C09A
:100DC00000C0002C75B93111380F00C0002C05B9D6
:100DD00000C016FF75B908F43FEF8195889400C0F4
:100DE00000C0002C75B9E0FC230F00C0002C05B931
:100DF00000C015FF75B927958894E1FC230F00C04A
:100E000000C0002C75B92795889400C0002C05B946
:100E100000C014FF75B9E2FC230F2795889400C029
:100E200000C0002C75B9E3FC230F00C0002C05B9ED
:100E300000C013FF75B927958894E4FC230F00C008
:100E400000C0002C75B92795889400C0002C05B906
:100E500000C012FF75B9E5FC230F2795889400C0E8
:100E600000C0002C75B9E6FC230F00C0002C05B9AA
:100E700000C011FF75B927958894E7FC230F00C0C7
:100E800000C0002C75B92795889400C0002C05B9C6
:100E900000C010FF75B9132FE110122F8B0D00C089
:100EA00000C0002C75B9119709F086CE4A815B818C
:100EB00020EE31E0DA010E94520EDC01CB01F4E0B9
:100EC000B695A79597958795FA95D1F730E020E0EC
:100ED000B901EAE94E9F040E611D5E9F600D711D10
:100EE0001124650F711D860F971FA11DB11D893E2D
:100EF00043E09407A105B10508F434C0885E93402F
:100F0000A109B10942E0B695A795979587954A95AD
:100F1000D1F747E0849F080E211D949F200D311DBD
:100F20001124290F311D60914E0270E0860F971F2A
:100F3000820F931F4091CF075091D0076091D10746
:100F40007091D207292F3327420F531F611D711D46
:100F50004093CF075093D0076093D1077093D20787
:100F600080934E0278940E942B01F201708B678768
:100F7000DF91CF911F910F91FF90EF90DF90CF9075
:100F8000BF90AF909F908F907F905F904F9008950B
:100F9000249A08956F927F928F92CF92DF92EF9270
:100FA000FF920F931F93CF93DF93CDB7DEB7629776
:100FB0000FB6F894DEBF0FBECDBF6C017A013801C9
:100FC000822EDC011C962C91CA0157FF04C0882791
:100FD0009927841B950B7A8369839C838B839E83DB
:100FE0008D836D867E868F86213049F5CE010196F0
:100FF0000E94AA0283E0888B1A8A198AF7FE02C02F
:101000008DEF888BD601ED91FC910484F585E02D60
:10101000BE016F5F7F4FC601199562960FB6F894B7
:10102000DEBF0FBECDBFDF91CF911F910F91FF901B
:10103000EF90DF90CF908F907F906F9008951C86F7
:101040001B861A86198618861F82D4CFEF92FF92CC
:101050000F931F93CF93DF93CDB7DEB762970FB691
:10106000F894DEBF0FBECDBF7C01DC011C968C91D5
:101070007A8369835C834B835E834D830D871E87F0
:101080002F878130F9F4CE0101960E94AA02188AB6
:101090001A8A198AD701ED91FC910484F585E02D17
:1010A000BE016F5F7F4FC701199562960FB6F89426
:1010B000DEBF0FBECDBFDF91CF911F910F91FF908B
:1010C000EF9008951C861B861A86198618861F8243
:1010D000DECFAF92BF92CF92DF92EF92FF920F934B
:1010E0001F93CF93DF93FC015B017A01E9018091AB
:1010F00016029091170261E070E0C29714F462E06A
:1011000070E088819981D5012D913C91281739078C
:1011100024F0860F971F9983888328813981D50110
:101120008D919C91821793072CF4119501951109CB
:10113000198308838881998197FDCFC08091160219
:1011400090911702803591058CF4D7018D919C9177
:1011500011978F3F910519F014F01D921C92D70141
:101160008D919C91119701968D939C93D7014C91F1
:10117000888199818C01000F111F080F191F0E0F14
:101180001F1F842F880F880F880F55E5382F359F34
:10119000030E30E0311D1124932F342F3074242F8F
:1011A000207247FD6DC0311156C0211106C0392F84
:1011B0003095892F932F30E004C085E5890F30E00A
:1011C0009BEAD8019C9311968C93119712963C93AD
:1011D000D7014D915C910881198135E5D32EC12C41
:1011E000ABEAEA2EAAEAC801861B970B97FD72C0EC
:1011F00020911602309117022035310544F44F3FFB
:10120000510519F014F050E040E04F5F5F4FEC01E2
:10121000CC0FDD1FC80FD91FCE0FDF1FB42FBB0FA0
:10122000BB0FBB0F2B2F3D2D239F020E20E0211D56
:101230001124922F242F2074842F8072F82E47FDC2
:101240007EC021116AC081113EC0292F2095892FAF
:10125000922F20E03CC021110DC0382F4AEA349F64
:10126000030E30E0311D11248BEA831B382F8AEAEC
:10127000890FA0CF80E0892F8095392F90E0A1CFF2
:10128000311111C021110BC0382F2AEA329F030EF1
:1012900030E0311D11248BEA831B3B5AEFCF392FED
:1012A000309580E08ECF211106C085E5890F3BEA9D
:1012B000391B982FF6CF8AEA890F20E0352FF8CF17
:1012C00061E070E090CF85E5890F20E09BEA98838C
:1012D00089832A836130710599F7D5014D915C911D
:1012E00090E080E03AEF841795070CF047C020812A
:1012F000239F020E20E0211D20832181239F020EC7
:1013000020E0211D21832281239F020E20E0211D48
:101310002283112401963396E6CF81110BC09D01E3
:10132000329F030E30E0311D11242E2D231B8AEA3B
:10133000890F8ECF892F8095292F90E0C8CF21115A
:1013400011C081110BC02B2F3A2F239F020E20E0DA
:10135000211D11248E2D821B2B5AEFCF292F209572
:1013600080E0B5CF811106C085E5890F2E2D291BA0
:10137000982FF6CF8AEA890F2D2DF9CF61E070E022
:1013800080E090E0DF91CF911F910F91FF90EF905F
:10139000DF90CF90BF90AF900C94750290E080E00A
:1013A0000895FC018585968508950F931F93CF932B
:1013B000DF9300D0CDB7DEB7AB0119821A821B8252
:1013C000DC01ED91FC910190F081E02D00E010E056
:1013D00020E0BE016F5F7F4F19950F900F900F9027
:1013E000DF91CF911F910F910895FC018CE192E064
:1013F00091838083138212828FEF86838783808715
:1014000081878287838781E0848716861586158287
:1014100014828091E6079091E707892B21F4F093DD
:10142000E707E093E607A0914C02B0914D021097B8
:1014300021F01596FC93EE931497F0934D02E093F0
:101440004C0208950E948F0E1F920F920FB60F92BA
:1014500011242F933F938F939F93AF93BF938091CA
:10146000CF079091D007A091D107B091D2073091CA
:10147000CA0723E0230F2D3758F50196A11DB11D92
:101480002093CA078093CF079093D007A093D107EA
:10149000B093D2078091CB079091CC07A091CD0754
:1014A000B091CE070196A11DB11D8093CB079093FB
:1014B000CC07A093CD07B093CE07BF91AF919F917A
:1014C0008F913F912F910F900FBE0F901F90189505
:1014D00026E8230F0296A11DB11DD2CFCF92DF9235
:1014E000EF92FF920F931F93E82FF92F05C0015041
:1014F00011092109310961F1908196239417B9F3FB
:1015000005C0015011092109310911F1908196237B
:101510009413F7CFC12CD12CE12CF12C0AC08FEF02
:10152000C81AD80AE80AF80A0C151D052E053F0549
:1015300079F080818623841791F36C2D7D2D8E2D7B
:101540009F2D1F910F91FF90EF90DF90CF90089506
:1015500060E070E080E090E01F910F91FF90EF90CD
:10156000DF90CF900895CF93DF931F921F92CDB756
:10157000DEB7789484B5826084BD84B5816084BD13
:1015800085B5826085BD85B5816085BD80916E0021
:10159000816080936E001092810080918100826052
:1015A000809381008091810081608093810080918F
:1015B00080008160809380008091B100846080937E
:1015C000B1008091B00081608093B0008091910063
:1015D000826080939100809191008160809391005E
:1015E000809190008160809390008091A100826042
:1015F0008093A1008091A10081608093A1008091DF
:10160000A00081608093A00080912101826080937E
:10161000210180912101816080932101809120012D
:1016200081608093200180917A00846080937A00A9
:1016300080917A00826080937A0080917A00816044
:1016400080937A0080917A00806880937A0010926B
:10165000C100EBEAF1E02491E5E6F1E08491882312
:1016600099F090E0880F991FFC01E25DFE4FA59173
:10167000B491FC01EC5EFE4F859194918FB7F89484
:10168000EC91E22BEC938FBF7AEA272E71E0372E94
:10169000F1012491E4E64E2EE1E05E2EF201849108
:1016A0008823C9F090E0880F991FFC01E25DFE4F8E
:1016B000A591B491FC01EC5EFE4F459154913FB76A
:1016C000F8949C91822F809598239C93FA019081A5
:1016D000892380833FBF80916102811111C080E521
:1016E00092E00E94F5091092600210925F028CE273
:1016F00092E0909351028093500281E080936102C6
:1017000080E592E00E94630588E096E090935302A2
:101710008093520286E990E090935E0280935D028E
:101720008091DC079091DD07A091DE07B091DF0783
:10173000843CF9E09F07A105B10520F484EC99E011
:10174000A0E0B0E08093DC079093DD07A093DE0774
:10175000B093DF0780917A02811111C089E692E08F
:101760000E94F50910927902109278028EE392E0BD
:1017700090936A028093690281E080937A0289E6FD
:1017800092E00E94C80784E892E090936C028093F4
:101790006B028CE291E090937702809376028091C5
:1017A000DC079091DD07A091DE07B091DF07843C54
:1017B00029E09207A105B10520F484EC99E0A0E0AE
:1017C000B0E08093DC079093DD07A093DE07B09331
:1017D000DF0784E68093D9070E94500164EF71E02F
:1017E00080E090E00E94750293E0A92EB12C23E2E4
:1017F000822E912C36E9E32EF12C4CE2C42EDD240E
:10180000D39450E0652E50E0752E759AC50101976E
:10181000F1F77598C4010197F1F7759AF101649198
:10182000F2018491E82FF0E0EE0FFF1FE85BFE4F1E
:101830008591949100E412E42FE030E0462F0E945D
:101840006E0A611571058105910529F06F5F7F4F63
:101850008F4F9F4F9F70693071058105910520F46E
:1018600069E070E080E090E00E94130D26E933E427
:101870004BE05DE30E94770D20E030E040E05FE365
:101880000E94770D0E94DB0C709317026093160282
:10189000FA82E98210E000E022E132E044E152E025
:1018A000BE016F5F7F4F88E096E00E946908FA8270
:1018B000E9820AE010E02EE032E040E152E0BE01B1
:1018C0006F5F7F4F88E096E00E946908FA82E982A4
:1018D00004E110E02AE032E04CE052E0BE016F5F2C
:1018E0007F4F88E096E00E946908FA82E9820EE163
:1018F00010E026E032E048E052E0BE016F5F7F4F2B
:1019000088E096E00E946908DA82C98204E110E06A
:1019100024E032E044E152E0BE016F5F7F4F84E893
:1019200092E00E946908DA82C9820EE110E022E8A2
:1019300032E040E152E0BE016F5F7F4F84E892E009
:101940000E946908DA82C98210E000E022E032E0F9
:101950004CE052E0BE016F5F7F4F84E892E00E944E
:101960006908DA82C9820AE010E020E032E048E04B
:1019700052E0BE016F5F7F4F84E892E00E946908E9
:101980008091D9070E9450016114710409F43DCF80
:101990000E9400003ACFE9EDF7E08FEF80831282DA
:1019A0001182148613868FEF9FEFDC018783908767
:1019B000A187B28708950E94E20C6894B1110C943B
:1019C000710D08950E94560D88F09F5798F0B92F19
:1019D0009927B751B0F0E1F0660F771F881F991F64
:1019E0001AF0BA95C9F714C0B13091F00E94700D89
:1019F000B1E008950C94700D672F782F8827B85F99
:101A000039F0B93FCCF3869577956795B395D9F7BB
:101A10003EF490958095709561957F4F8F4F9F4FC5
:101A20000895E89409C097FB3EF4909580957095D1
:101A300061957F4F8F4F9F4F9923A9F0F92F96E91A
:101A4000BB279395F695879577956795B795F1118F
:101A5000F8CFFAF4BB0F11F460FF1BC06F5F7F4F2C
:101A60008F4F9F4F16C0882311F096E911C077233E
:101A700021F09EE8872F762F05C0662371F096E847
:101A8000862F70E060E02AF09A95660F771F881F16
:101A9000DAF7880F9695879597F9089557FD90582E
:101AA000440F551F59F05F3F71F04795880F97FB22
:101AB000991F61F09F3F79F08795089512161306DC
:101AC0001406551FF2CF4695F1DF08C0161617060B
:101AD0001806991FF1CF8695710561050894089540
:101AE000E894BB2766277727CB0197F908950E94D2
:101AF0008A0D0C94FB0D0E94ED0D38F00E94F40D40
:101B000020F0952311F00C94E40D0C94EA0D1124AF
:101B10000C94710D0E944E0D70F3959FC1F3950FBB
:101B200050E0551F629FF001729FBB27F00DB11D61
:101B3000639FAA27F00DB11DAA1F649F6627B00DF1
:101B4000A11D661F829F2227B00DA11D621F739FDA
:101B5000B00DA11D621F839FA00D611D221F749FE8
:101B60003327A00D611D231F849F600D211D822F2F
:101B7000762F6A2F11249F5750409AF0F1F0882356
:101B80004AF0EE0FFF1FBB1F661F771F881F915083
:101B90005040A9F79E3F510580F00C94E40D0C9441
:101BA000710D5F3FE4F3983ED4F386957795679582
:101BB000B795F795E7959F5FC1F7FE2B880F911DAD
:101BC0009695879597F9089597F99F6780E870E053
:101BD00060E008959FEF80EC089500240A941616A3
:101BE000170618060906089500240A94121613060B
:101BF000140605060895092E0394000C11F4882399
:101C000052F0BB0F40F4BF2B11F460FF04C06F5FB4
:101C10007F4F8F4F9F4F0895DB018F939F930E94BB
:101C2000590EBF91AF91A29F800D911DA39F900D62
:101C3000B29F900D1124089597FB072E16F400947F
:101C400007D077FD09D00E94640E07FC05D03EF452
:101C5000909581959F4F0895709561957F4F089558
:101C6000A1E21A2EAA1BBB1BFD010DC0AA1FBB1FA0
:101C7000EE1FFF1FA217B307E407F50720F0A21B12
:101C8000B30BE40BF50B661F771F881F991F1A947F
:101C900069F760957095809590959B01AC01BD01A9
:101CA000CF0108950E94800EB7FF0895821B930B09
:101CB00008950E94800EA59F900DB49F900DA49F43
:101CC000800D911D11240895AA1BBB1B51E107C073
:101CD000AA1FBB1FA617B70710F0A61BB70B881FBC
:101CE000991F5A95A9F780959095BC01CD0108954B
:101CF000EE0FFF1F881F8BBF0790F691E02D199400
:101D0000A29FB001B39FC001A39F700D811D11243C
:101D1000911DB29F700D811D1124911D089581E0C8
:0C1D200090E0F8940C94940EF894FFCF1F
:101D2C00CEFF9CFFDDFFCEFF64009CFF1E00F6FF84
:101D3C009600E2FFFA00010000000000220A220ACD
:101D4C00220AD509D109CE09000000002608CA07CD
:101D5C006305D509D109A702E70200000000260897
:0C1D6C00CA07C807D509D109A7026905FC
:00000001FF
