:020000040000FA
:100000000C9449010C947A010C947A010C947A01B5
:100010000C947A010C947A010C947A010C947A0174
:100020000C947A010C947A010C947A010C947A0164
:100030000C947A010C947A010C947A010C947A0154
:100040000C947A010C947A010C947A010C947A0144
:100050000C947A010C947A010C947A010C94D50AD0
:100060000C947A010C94490B0C941F0B0C947A019C
:100070000C947A010C947A010C947A010C947A0114
:100080000C947A010C947A010C947A010C947A0104
:100090000C947A010C947A010C947A010C947A01F4
:1000A0000C947A010C947A010C947A010C947A01E4
:1000B0000C947A010C947A010C947A010C947A01D4
:1000C0000C947A010C947A010C947A010C947A01C4
:1000D0000C947A010C947A010C947A010C947A01B4
:1000E0000C947A010C94E6010C94F0010C94080530
:1000F0000C94C40B0C94CB010C94BF010C94C30161
:100100000C943D070C9439050C9417050C94AD0123
:100110000C94BE050C94E2010C94DB040C94FA01DF
:100120000C9471050C94B9090C94EC010C94DE014B
:100130000C94610A0C941B0A0C94D4010C94D80101
:100140000C94A8010C94D30A0C94F4010C940F069F
:100150000C94BF090C94C7010C94FE010C94650A21
:100160000C94D8040C942B050C945E0A0C94CE01CC
:1001700000002100240027002A002D003000330059
:1001800001010000040107010A0100002000230012
:10019000260029002C002F0032000001000003017E
:1001A0000601090100002200250028002B002E0076
:1001B0003100340002010000050108010B010505B2
:1001C0000505070508080808020202020A0A0808CD
:1001D00004040404010101010101010103030303FB
:1001E00003030303040707070C0C0C0C0C0C0C0C8A
:1001F0000202020206060606060606060B0B0B0B9B
:100200000B0B0B0B010210202008081020401020BF
:1002100040800201020108040201010204081020CA
:1002200040808040201008040201800402018040C8
:100230002010080402010804020101020408102031
:100240004080010204081020408000000A0B0209CF
:100250000C0D0E0807030401000000000000000060
:10026000000000000000000000000000000000008E
:10027000000000000000121110000000000000004B
:10028000000000000000000000000000000000006E
:10029000C40B11241FBECFEFD1E2DEBFCDBF00E003
:1002A0000CBF12E0A0E0B2E0E2E0F0E200E00BBF41
:1002B00002C007900D92AA34B107D9F724E0AAE44E
:1002C000B2E001C01D92A83EB207E1F711E0C9E417
:1002D000D1E000E006C021970109802FFE010E94B5
:1002E000BD0FC834D10780E00807A9F70E94000CB1
:1002F0000C94FF0F0C940000382FECE4F2E0849192
:10030000E6E0F2E02491E0ECF1E09491992309F425
:1003100035C0882311F181508231F8F4E82FF0E0E4
:100320008827EA56FE4F8F4F0C94BD0FC701CB01B3
:10033000A801BF01C301AD01CE01D401D801DE0186
:10034000E201E601EC01F001AD01F401FA01FE0168
:10035000809180008F7780938000E92FF0E0EE0F8E
:10036000FF1FEC55FE4FA591B4918FB7F894EC9117
:10037000311148C020952E232C938FBF0895809172
:1003800080008F7DE8CF80918000877FE4CF84B5A7
:100390008F7784BDE2CF84B58F7DFBCF8091B00095
:1003A0008F778093B000D9CF8091B0008F7DF9CF47
:1003B000809190008F7780939000CFCF80919000B4
:1003C0008F7DF9CF80919000877FF5CF8091A0003D
:1003D0008F778093A000C1CF8091A0008F7DF9CF4F
:1003E0008091A000877FF5CF809120018F77809347
:1003F0002001B3CF809120018F7DF9CF8091200122
:10040000877FF5CF2E2BB8CFDC0117962C9117974D
:1004100030E0F901EC5FFD4FE4911696EC931697EE
:1004200022543E4FF9018491E82FF0E0EE0FFF1FB8
:10043000EC55FE4F8591949113969C938E93129751
:10044000F9012491E22FF0E0EE0FFF1FE657FE4F77
:100450008591949115969C938E93149708953FB728
:10046000F8948091680290916902A0916A02B0911B
:100470006B0226B5A89B05C02F3F19F00196A11D60
:10048000B11D3FBFBA2FA92F982F8827BC01CD01DE
:10049000620F711D811D911D42E0660F771F881F3D
:1004A000991F4A95D1F708954F925F926F927F926C
:1004B0009F92AF92BF92CF92DF92EF92FF920F93F3
:1004C0001F93CF93DF9300D0CDB7DEB7D82E8091A6
:1004D000DE049091DF04A091E004B091E104892B47
:1004E0008A2B8B2BD9F00E942F0200913A04109195
:1004F0003B0420913C0430913D04601B710B820B46
:10050000930B0091DE041091DF042091E004309100
:10051000E1046017710782079307C8F20E942F0257
:1005200060933A0470933B0480933C0490933D04A1
:10053000E091E604F091E704309759F04091E2042D
:100540005091E3046091E4047091E5048D2D1995B8
:10055000D82EE0903804F09039044D2C512C712C99
:10056000612CE114F10409F459C0D7011C96CC9018
:100570001C978091DC049091DD048436910510F481
:100580001C961C92D701ED91FC91A280B380198238
:100590001A821B82DD2079F1F701369610E000E027
:1005A0002191222319F19280992001F130E050E04D
:1005B00040E02F5F3F4F4F4F5F4FC301B2010E949A
:1005C000770F9B01AC01892D90E0B0E0A0E0BC0169
:1005D000CD016F5F7F4F8F4F9F4F0E94770FA1E03C
:1005E000B0E0AC0FBD1FA00FB11F8C930F5F1F4F6A
:1005F00003301105A9F609811A812B81F701458580
:10060000568562817381C701F5011995D7011C9642
:10061000CC921C971496ED90FC90A3CF8091360459
:10062000909137049C012F5F3F4F30933704209304
:10063000360449970CF44AC08FB7F89420912E04E1
:1006400030912F0440913004509131048FBF80913C
:10065000320490913304A0913404B0913504281BE6
:10066000390B4A0B5B0B21F421E030E040E050E015
:10067000E0913604F091370488EE93E0E89FB001F2
:10068000E99F700DF89F700D1124072E000C880B48
:10069000990B0E949B0F3093DD042093DC04109291
:1006A0003704109236042FB7F89480912E0490915D
:1006B0002F04A0913004B09131042FBF80933204F5
:1006C00090933304A0933404B09335040F900F90AB
:1006D0000F90DF91CF911F910F91FF90EF90DF90DE
:1006E000CF90BF90AF909F907F906F905F904F9012
:1006F0000895CF92DF92EF92FF920F931F93CF93C3
:10070000DF936C01DB018091100290911102E1E016
:10071000F0E0C29714F4E2E0F0E0EA018881998108
:100720008739910524F48E0F9F1F99838883EA01EE
:1007300068817981E601888199818617970734F469
:10074000319521953109EA0139832883EA018881AD
:10075000998197FDCBC080911002909111028C3845
:1007600091058CF48D919C9111978F3F910521F00B
:100770001CF011961C921E928D919C9111970196DE
:1007800011969C938E930C91EA0188819981BC010A
:10079000660F771F680F791F64597D4F902F990F4F
:1007A000990F990F35E5292F239F020E20E0211D77
:1007B0001124822F202F2074102F107207FD66C085
:1007C000211151C0111106C0982F9095382F892FF3
:1007D00090E004C035E5380F90E08BEAEB018883A8
:1007E00039839A836D917C91DA010D911C9135E5E5
:1007F000F32EE12C5BEACAEAC8018E1B9F0B97FD22
:1008000073C020911002309111022C38310544F44C
:100810006F3F710519F014F070E060E06F5F7F4F7B
:10082000DC01AA0FBB1FA80FB91FA459BD4F962FFB
:10083000990F990F990F292F3F2D239F020E20E02A
:10084000211D1124822F262F2074462F407267FD10
:1008500086C0211171C041113DC0982F9095382F4D
:10086000892F90E03BC011110BC0292F3AEA239F3A
:10087000020E20E0211D11249BEA921B380FA7CF06
:1008800090E0382F3095982F80E0A8CF211112C02A
:1008900011110CC0292F3AEA239F020E20E0211DDE
:1008A00011243BEA321B95E5920FEECF982F9095DD
:1008B00030E094CF111106C025E5280F9BEA981B64
:1008C000822FF6CF2AEA280F90E0932FF8CFE1E0AD
:1008D000F0E092CF35E5380F90E08BEA8C931196DB
:1008E0003C93119712969C93319789F78091DB0482
:1008F0000E945402D6014D915C91ECE6F2E090E04A
:1009000080E03AEF841795070CF049C02081239FBF
:10091000020E20E0211D20832181239F020E20E072
:10092000211D21832281239F020E20E0211D22838D
:10093000112401963396E6CF41110CC0292F3C2F8C
:10094000239F020E20E0211D1124952F921B3AEACD
:10095000380F86CF382F3095982F80E0BFCF2111E8
:1009600012C041110CC0292F3C2F239F020E20E002
:10097000211D1124352F321B95E5920FEECF982FB4
:10098000909530E0ABCF411106C025E5280F952F9B
:10099000981B822FF6CF2AEA280F9F2DF9CFDF91DF
:1009A000CF911F910F91FF90EF90DF90CF9008951E
:1009B00080E991E00895AF92BF92CF92DF92EF92DB
:1009C000FF920F931F93CF93DF936C017B018B01F9
:1009D000040F151FEB015E01AE18BF08C017D10749
:1009E00059F06991D601ED91FC910190F081E02DD3
:1009F000C6011995892B79F7C501DF91CF911F9118
:100A00000F91FF90EF90DF90CF90BF90AF9008953F
:100A1000FC01538D448D252F30E0842F90E0821B04
:100A2000930B541710F0CF96089501970895FC0189
:100A3000918D828D981761F0A28DAE0FBF2FB11DE1
:100A40005D968C91928D9F5F9F73928F90E0089539
:100A50008FEF9FEF0895FC01918D828D981731F0F3
:100A6000828DE80FF11D858D90E008958FEF9FEF47
:100A70000895FC01918D228D892F90E0805C9F4F1D
:100A8000821B91098F73992708958EE394E00E9449
:100A9000390521E0892B09F420E0822F0895FC011B
:100AA000A48DA80FB92FB11DA35ABF4F2C91848DCF
:100AB00090E001968F739927848FA689B7892C932C
:100AC000A089B1898C91837080648C93938D848D7F
:100AD000981306C00288F389E02D80818F7D808382
:100AE0000895EF92FF920F931F93CF93DF93EC0142
:100AF00081E0888F9B8D8C8D98131AC0E889F989C5
:100B0000808185FF15C09FB7F894EE89FF896083C7
:100B1000E889F98980818370806480839FBF81E048
:100B200090E0DF91CF911F910F91FF90EF9008958A
:100B3000F62E0B8D10E00F5F1F4F0F731127E02E65
:100B40008C8D8E110CC00FB607FCFACFE889F9899D
:100B5000808185FFF5CFCE010E944F05F1CFEB8D4F
:100B6000EC0FFD2FF11DE35AFF4FF0829FB7F89471
:100B70000B8FEA89FB8980818062CFCFCF93DF938F
:100B8000EC01888D8823B9F0AA89BB89E889F989A5
:100B90008C9185FD03C0808186FD0DC00FB607FCDA
:100BA000F7CF8C9185FFF2CF808185FFEDCFCE010D
:100BB0000E944F05E9CFDF91CF91089580E090E04A
:100BC000892B29F00E94450581110E94000080E0D8
:100BD00090E0892B49F080E090E0892B29F00E9479
:100BE000000081110E94000080E090E0892B49F014
:100BF00080E090E0892B29F00E94000081110E9482
:100C0000000080E090E0892B49F080E090E0892BA3
:100C100029F00E94000081110C94000008952F9289
:100C20003F924F925F926F927F928F929F92AF927C
:100C3000BF92CF92DF92EF92FF920F931F93CF93C9
:100C4000DF9300D000D000D0CDB7DEB789874983CD
:100C50005A836B837C830091380410913904BDE77B
:100C60008B2E912CA12CB12C0115110509F46BC010
:100C7000D801ED91FC910084F185E02DC801199512
:100C80001C01D8011296ED91FC91C12CD12C76015A
:100C9000412C512C320120E030E0A901009791F065
:100CA0006081260F311D411D511D6181460E511C71
:100CB000611C711C6281C60ED11CE11CF11C0197E4
:100CC0003396ECCFA0E5B0E00E94CC0F6D837E831D
:100CD0008F839887A7E3B0E0A30192010E94CC0F15
:100CE0002B013C01ABE4B0E0A70196010E94CC0FC0
:100CF0002D813E814F815885C32ED42EE52EFF24B1
:100D000045E0429D9001439D300D1124C20ED31E3B
:100D1000E11CF11C8C0C9D1CAE1CBF1C452C562CE0
:100D2000672C7724840C951CA61CB71C472F582FC2
:100D3000692F7727840E951EA61EB71ED80114961C
:100D40000D911C9191CFB985CB2ED12CF12CE12C9A
:100D5000A7019601C501B4010E94770F872E982E36
:100D6000A92EBB2429813A814B815C81821693068E
:100D7000A406B50668F0A701960169817A818B8186
:100D80009C810E94770FA50194010E949B0F2987E7
:100D9000898529960FB6F894DEBF0FBECDBFDF91CF
:100DA000CF911F910F91FF90EF90DF90CF90BF9068
:100DB000AF909F908F907F906F905F904F903F90FB
:100DC0002F900895FC01A281B3819C918681268198
:100DD000982381E0921380E00895FC0186810280CF
:100DE000F381E02D90818095892380830895FC0113
:100DF00096810280F381E02D8081892B8083089584
:100E00000F931F93CF93DF9320914B022F5F322FCD
:100E1000377030934B0220FF2BC020E831FD206457
:100E2000347009F02062205FFC01EC01239600E0A1
:100E300011E06485662329F070E0C8010E94870FE5
:100E40006F5F6187322F369F030E30E0311D112412
:100E5000311110C01682662311F0615061873196FE
:100E6000EC17FD0731F7DF91CF911F910F91089596
:100E700020E0D4CF31503683EECF4F925F927F92F5
:100E80008F929F92AF92BF92CF92DF92EF92FF929A
:100E90000F931F93CF93DF932C01EB010E942F023E
:100EA000F20127853089621B730B6A307105B0F33C
:100EB000F8948A819B81181619060CF0E8C1E88124
:100EC000F981009102010062709102017F7D7093AF
:100ED0000201BA848F812B2D281B822F2F834F85EF
:100EE000042E000C550BAA81BB81ED84DC84CE84DA
:100EF000E394D394C3949E81388599848B84118123
:100F000020E0F32E622F322F318111278894311186
:100F1000380F08F43FEF81958894E0FC130F179584
:100F20008894E1FC130F17958894E2FC130F179532
:100F30008894E3FC130F17958894E4FC130F17951E
:100F40008894E5FC130F17958894E6FC130F17950A
:100F50008894E7FC130F17958894232FE110212F15
:100F60008B0D122F002C00930201002C17FF7093A1
:100F7000020130812227889400C000C070930201D2
:100F80003111390F00C000930201002C16FF70933D
:100F9000020108F43FEF9195889400C000C070935F
:100FA0000201D0FC230F00C000930201002C15FFAA
:100FB0007093020127958894D1FC230F00C000C0D4
:100FC000709302012795889400C000930201002CC1
:100FD00014FF70930201D2FC230F2795889400C060
:100FE00000C070930201D3FC230F00C000930201E4
:100FF000002C13FF7093020127958894D4FC230FD3
:1010000000C000C0709302012795889400C000932F
:101010000201002C12FF70930201D5FC230F2795CB
:10102000889400C000C070930201D6FC230F00C05A
:1010300000930201002C11FF709302012795889400
:10104000D7FC230F00C000C070930201279588943D
:1010500000C000930201002C10FF70930201132FB7
:10106000D110122F990D00C000C07093020100C072
:1010700000C000930201002C17FF7093020132811F
:101080002227889400C000C07093020131113F0DE7
:1010900000C000930201002C16FF7093020108F4B7
:1010A0003FEFE40FF51F00C000C070930201C0FCC9
:1010B000230F00C000930201002C15FF7093020162
:1010C00027958894C1FC230F00C000C070930201D3
:1010D0002795889400C000930201002C14FF7093A0
:1010E0000201C2FC230F2795889400C000C07093B2
:1010F0000201C3FC230F00C000930201002C13FF68
:101100007093020127958894C4FC230F00C000C08F
:10111000709302012795889400C000930201002C6F
:1011200012FF70930201C5FC230F2795889400C01D
:1011300000C070930201C6FC230F00C0009302019F
:10114000002C11FF7093020127958894C7FC230F90
:1011500000C000C0709302012795889400C00093DE
:101160000201002C10FF70930201132FC110122FE7
:10117000F19400C000C070930201F80C00C0002C74
:1011800000930201002C17FF709302013181222786
:10119000889400C000C0709302013111380F00C064
:1011A00000930201002C16FF7093020108F43FEF38
:1011B0008195889400C000C070930201E0FC230F69
:1011C00000C000930201002C15FF709302012795C7
:1011D0008894E1FC230F00C000C0709302012795A2
:1011E000889400C000930201002C14FF7093020148
:1011F000E2FC230F2795889400C000C07093020181
:10120000E3FC230F00C000930201002C13FF709336
:10121000020127958894E4FC230F00C000C070935E
:1012200002012795889400C000930201002C12FF50
:1012300070930201E5FC230F2795889400C000C03D
:1012400070930201E6FC230F00C000930201002C02
:1012500011FF7093020127958894E7FC230F00C0CB
:1012600000C0709302012795889400C0009302018A
:10127000002C10FF70930201132FE110122F8B0D21
:1012800000C000C070930201119709F06CCE4A8132
:101290005B8120EE31E0DA010E94C50FDC01CB0159
:1012A000F4E0B695A79597958795FA95D1F730E034
:1012B00020E0B901EAE94E9F040E611D5E9F600DBA
:1012C000711D1124650F711D860F971FA11DB11D82
:1012D000893E43E09407A105B10508F434C0885E57
:1012E0009340A109B10942E0B695A79597958795D6
:1012F0004A95D1F747E0849F080E211D949F200D49
:10130000311D1124290F311D60914A0270E0860FB2
:10131000971F820F931F40912E0450912F046091CC
:10132000300470913104292F3327420F531F611D60
:10133000711D40932E0450932F04609330047093DA
:10134000310480934A0278940E942F02F201708B3C
:101350006787DF91CF911F910F91FF90EF90DF9002
:10136000CF90BF90AF909F908F907F905F904F9065
:101370000895E1E0F1E080818062808308956F92BA
:101380007F928F92CF92DF92EF92FF920F931F93F3
:10139000CF93DF93CDB7DEB762970FB6F894DEBF79
:1013A0000FBECDBF6C017A013801822EDC011C9684
:1013B0002C91CA0157FF04C088279927841B950BDD
:1013C0007A8369839C838B839E838D836D867E86DF
:1013D0008F86213049F5CE0101960E94000783E0F7
:1013E000888B1A8A198AF7FE02C08DEF888BD60186
:1013F000ED91FC910484F585E02DBE016F5F7F4F78
:10140000C601199562960FB6F894DEBF0FBECDBF28
:10141000DF91CF911F910F91FF90EF90DF90CF90D0
:101420008F907F906F9008951C861B861A86198670
:1014300018861F82D4CFEF92FF920F931F93CF9302
:10144000DF93CDB7DEB762970FB6F894DEBF0FBE5D
:10145000CDBF7C01DC011C968C917A8369835C830F
:101460004B835E834D830D871E872F878130F9F470
:10147000CE0101960E940007188A1A8A198AD7019C
:10148000ED91FC910484F585E02DBE016F5F7F4FE7
:10149000C701199562960FB6F894DEBF0FBECDBF97
:1014A000DF91CF911F910F91FF90EF9008951C86CF
:1014B0001B861A86198618861F82DECF90E080E090
:1014C0000895FC018585968508950F931F93CF930A
:1014D000DF9300D0CDB7DEB7AB0119821A821B8231
:1014E000DC01ED91FC910190F081E02D00E010E035
:1014F00020E0BE016F5F7F4F19950F900F900F9006
:10150000DF91CF911F910F9108958F929F92AF928B
:10151000BF920F931F93CF93DF93CDB7DEB7A19701
:101520000FB6F894DEBF0FBECDBF19A2423008F44B
:101530004AE08E010F5D1F4F842E912CB12CA12CFF
:10154000A50194010E949B0FE62FB901CA01EA3060
:1015500044F5E05DD801EE938D01232B242B252B40
:1015600079F790E080E0109769F0FD01019000208C
:10157000E9F73197AF014A1B5B0BBD018EE394E0A5
:101580000E94DB04A1960FB6F894DEBF0FBECDBF5C
:10159000DF91CF911F910F91BF90AF909F908F904F
:1015A0000895E95CD7CF0E94FA0F1F920F920FB6F1
:1015B0000F9211242F933F938F939F93AF93BF93D9
:1015C00080912E0490912F04A0913004B0913104A9
:1015D0003091670223E0230F2D3758F50196A11DA6
:1015E000B11D2093670280932E0490932F04A09343
:1015F0003004B09331048091680290916902A09107
:101600006A02B0916B020196A11DB11D8093680220
:1016100090936902A0936A02B0936B02BF91AF915D
:101620009F918F913F912F910F900FBE0F901F9020
:10163000189526E8230F0296A11DB11DD2CF1F9247
:101640000F920FB60F9211240BB60F922F933F9368
:101650004F935F936F937F938F939F93AF93BF93BA
:10166000EF93FF938EE394E00E944F05FF91EF917B
:10167000BF91AF919F918F917F916F915F914F91AA
:101680003F912F910F900BBE0F900FBE0F901F90A8
:1016900018951F920F920FB60F9211240BB60F924E
:1016A0002F938F939F93EF93FF93E0914E04F091CC
:1016B0004F048081E0915404F091550482FD1DC0D7
:1016C0009081809157048F5F8F7320915804821707
:1016D00041F0E0915704F0E0E25CFB4F958F80937E
:1016E0005704FF91EF919F918F912F910F900BBE17
:1016F0000F900FBE0F901F9018958081F2CFCF9260
:10170000DF92EF92FF920F931F93E82FF92F05C0FE
:10171000015011092109310961F190819623941733
:10172000B9F305C0015011092109310911F1908166
:1017300096239413F7CFC12CD12CE12CF12C0AC0A5
:101740008FEFC81AD80AE80AF80A0C151D052E05ED
:101750003F0579F080818623841791F36C2D7D2DD0
:101760008E2D9F2D1F910F91FF90EF90DF90CF90C6
:10177000089560E070E080E090E01F910F91FF908D
:10178000EF90DF90CF900895EEE3F4E013821282A1
:1017900088EE93E0A0E0B0E084839583A683B783CE
:1017A00088E392E09183808385EC90E0958784873D
:1017B00084EC90E09787868780EC90E0918B808B1B
:1017C00081EC90E0938B828B82EC90E0958B848B04
:1017D00086EC90E0978B868B118E128E138E148E72
:1017E000EBEDF4E08FEF8083128211821486138672
:1017F0008FEF9FEFDC0187839087A187B2870895E1
:10180000CF93DF931F921F92CDB7DEB7789484B544
:10181000826084BD84B5816084BD85B5826085BDEC
:1018200085B5816085BD80916E00816080936E007A
:10183000109281008091810082608093810080916C
:10184000810081608093810080918000816080931D
:1018500080008091B10084608093B1008091B000DD
:1018600081608093B00080919100826080939100AC
:1018700080919100816080939100809190008160BF
:10188000809390008091A10082608093A10080915C
:10189000A10081608093A1008091A000816080936D
:1018A000A00080912101826080932101809121011B
:1018B00081608093210180912001816080932001CB
:1018C00080917A00846080937A0080917A008260AF
:1018D00080937A0080917A00816080937A00809171
:1018E0007A00806880937A001092C100E6E0F2E00E
:1018F0002491E0ECF1E08491882399F090E0880F46
:10190000991FFC01E059FE4FA591B491FC01EC55E3
:10191000FE4F859194918FB7F894EC91E22BEC9364
:101920008FBF67E0E62E62E0F62EF701249171EC9E
:10193000C72E71E0D72EF60184918823C9F090E07C
:10194000880F991FFC01E059FE4FA591B491FC014D
:10195000EC55FE4F459154913FB7F8949C91822FDE
:10196000809598239C93FA019081892380833FBFBF
:10197000E0914E04F0914F0482E08083E0914A04AC
:10198000F0914B041082E0914C04F0914D048FECE7
:10199000808310925604E0915204F091530486E043
:1019A0008083E0915004F0915104808180618083B4
:1019B000E0915004F0915104808188608083E0912F
:1019C0005004F0915104808180688083E09150043C
:1019D000F091510480818F7D80838FE096E0909319
:1019E000E7048093E60488E99AE3A0E0B0E08093FE
:1019F000E2049093E304A093E404B093E50480919F
:101A00005F02811145C010925102109250028FEF77
:101A1000809354028093550280935602809357021C
:101A2000809358028093590281E080935A02109269
:101A30005C0210925B02109253021092520280914B
:101A4000380490913904892B31F48EE492E090931C
:101A5000390480933804E0914C02F0914D023097A4
:101A600021F08EE492E0958384838EE492E090935B
:101A70004D0280934C0210925E0210925D0286E24B
:101A800092E090934F0280934E0281E080935F0238
:101A9000809101018062809301018CE692E0909335
:101AA00051028093500286E990E090935C0280930B
:101AB0005B028091DE049091DF04A091E004B0917C
:101AC000E104843CF9E09F07A105B10520F484EC12
:101AD00099E0A0E0B0E08093DE049093DF04A0934F
:101AE000E004B093E10484E68093DB040E94540296
:101AF0000E942F022B013C0148EE842E43E0942EDD
:101B0000A12CB12C0E942F0264197509860997092E
:101B1000683E734081059105A8F321E0821A91087F
:101B2000A108B10888EE480E83E0581E611C711CA4
:101B300081149104A104B10429F793E0892E912C1A
:101B400023E2622E712C36E9A32EB12C80E00E9494
:101B50007C01C4010197F1F781E00E947C01C3017F
:101B60000197F1F780E00E947C01F7016491F60192
:101B70008491E82FF0E0EE0FFF1FE657FE4F8591AE
:101B8000949100E412E42FE030E0462F0E947F0B96
:101B9000611571058105910529F06F5F7F4F8F4FAA
:101BA0009F4F9F70693071058105910520F469E0B0
:101BB00070E080E090E00E947E0E26E933E44BE086
:101BC0005DE30E94E20E20E030E040E05FE30E942F
:101BD000E20E0E94460E7093110260931002BA82C8
:101BE000A98230E020E04CE052E06EE072E0CE01ED
:101BF00001960E947903BA82A9822AE030E048E087
:101C000052E06AE072E0CE0101960E947903BA8246
:101C1000A98224E130E044E052E066E072E0CE01C7
:101C200001960E947903BA82A9822EE130E040E059
:101C300052E062E072E0CE0101960E9479032090AA
:101C40000E0230900F02032C000C440855084AE0A5
:101C5000C201B10157FE0DC06DE28EE394E00E9417
:101C6000710566277727CB016219730984099509E5
:101C70004AE00E94850A42E050E066E472E08EE3AA
:101C800094E00E94DB040E94DE0560CF0E944D0EAE
:101C90006894B1110C94DC0E08950E94C10E88F076
:101CA0009F5798F0B92F9927B751B0F0E1F0660F20
:101CB000771F881F991F1AF0BA95C9F714C0B13061
:101CC00091F00E94DB0EB1E008950C94DB0E672FBB
:101CD000782F8827B85F39F0B93FCCF38695779590
:101CE0006795B395D9F73EF4909580957095619579
:101CF0007F4F8F4F9F4F0895E89409C097FB3EF4A4
:101D000090958095709561957F4F8F4F9F4F992348
:101D1000A9F0F92F96E9BB279395F69587957795C6
:101D20006795B795F111F8CFFAF4BB0F11F460FF86
:101D30001BC06F5F7F4F8F4F9F4F16C0882311F0DE
:101D400096E911C0772321F09EE8872F762F05C0F2
:101D5000662371F096E8862F70E060E02AF09A958D
:101D6000660F771F881FDAF7880F9695879597F982
:101D7000089557FD9058440F551F59F05F3F71F07B
:101D80004795880F97FB991F61F09F3F79F08795E2
:101D90000895121613061406551FF2CF4695F1DF6B
:101DA00008C0161617061806991FF1CF86957105FB
:101DB000610508940895E894BB2766277727CB012F
:101DC00097F908950E94F50E0C94660F0E94580F23
:101DD00038F00E945F0F20F0952311F00C944F0F04
:101DE0000C94550F11240C94DC0E0E94B90E70F364
:101DF000959FC1F3950F50E0551F629FF001729FB0
:101E0000BB27F00DB11D639FAA27F00DB11DAA1FBE
:101E1000649F6627B00DA11D661F829F2227B00D0B
:101E2000A11D621F739FB00DA11D621F839FA00D96
:101E3000611D221F749F3327A00D611D231F849FE6
:101E4000600D211D822F762F6A2F11249F5750403D
:101E50009AF0F1F088234AF0EE0FFF1FBB1F661FB8
:101E6000771F881F91505040A9F79E3F510580F081
:101E70000C944F0F0C94DC0E5F3FE4F3983ED4F3C8
:101E8000869577956795B795F795E7959F5FC1F725
:101E9000FE2B880F911D9695879597F9089597F9D0
:101EA0009F6780E870E060E008959FEF80EC089500
:101EB00000240A9416161706180609060895002429
:101EC0000A9412161306140605060895092E0394A3
:101ED000000C11F4882352F0BB0F40F4BF2B11F417
:101EE00060FF04C06F5F7F4F8F4F9F4F0895DB01EE
:101EF0008F939F930E94CC0FBF91AF91A29F800DB3
:101F0000911DA39F900DB29F900D1124089597FBF2
:101F1000072E16F4009407D077FD09D00E94D70F42
:101F200007FC05D03EF4909581959F4F08957095DC
:101F300061957F4F0895A1E21A2EAA1BBB1BFD01DC
:101F40000DC0AA1FBB1FEE1FFF1FA217B307E40798
:101F5000F50720F0A21BB30BE40BF50B661F771FF0
:101F6000881F991F1A9469F76095709580959095D0
:101F70009B01AC01BD01CF010895EE0FFF1F881F2B
:101F80008BBF0790F691E02D19940E94EB0FB7FFDD
:101F90000895821B930B08950E94EB0FA59F900D4F
:101FA000B49F900DA49F800D911D11240895AA1B2C
:101FB000BB1B51E107C0AA1FBB1FA617B70710F034
:101FC000A61BB70B881F991F5A95A9F78095909566
:101FD000BC01CD010895A29FB001B39FC001A39F92
:101FE000700D811D1124911DB29F700D811D112452
:101FF000911D089581E090E0F8940C94FF0FF894FF
:10200000FFCFCEFF64009CFF1E00F6FF9600E2FFAC
:10201000FA00010000000000D30AD30AD30A650ABF
:10202000610A5E0A000000001B0ABF09B909650ABF
:10203000610AD8043D07000000007105DB040805B3
:0C204000BE05390517052B050D0A000030
:020000040003F7
:10E000000D9489F10D94B2F10D94B2F10D94B2F129
:10E010000D94B2F10D94B2F10D94B2F10D94B2F1F0
:10E020000D94B2F10D94B2F10D94B2F10D94B2F1E0
:10E030000D94B2F10D94B2F10D94B2F10D94B2F1D0
:10E040000D94B2F10D94B2F10D94B2F10D94B2F1C0
:10E050000D94B2F10D94B2F10D94B2F10D94B2F1B0
:10E060000D94B2F10D94B2F10D94B2F10D94B2F1A0
:10E070000D94B2F10D94B2F10D94B2F10D94B2F190
:10E080000D94B2F10D94B2F10D94B2F10D94B2F180
:10E090000D94B2F10D94B2F10D94B2F10D94B2F170
:10E0A0000D94B2F10D94B2F10D94B2F10D94B2F160
:10E0B0000D94B2F10D94B2F10D94B2F10D94B2F150
:10E0C0000D94B2F10D94B2F10D94B2F10D94B2F140
:10E0D0000D94B2F10D94B2F10D94B2F10D94B2F130
:10E0E0000D94B2F141546D656761323536300041AF
:10E0F000726475696E6F206578706C6F72657220DE
:10E1000073746B3530305632206279204D4C530099
:10E11000426F6F746C6F616465723E004875683F52
:10E1200000436F6D70696C6564206F6E203D200048
:10E130004350552054797065202020203D20005FF9
:10E140005F4156525F415243485F5F3D2000415658
:10E1500052204C696243205665723D20004743437C
:10E160002056657273696F6E203D20004350552024
:10E1700049442020202020203D20004C6F7720663D
:10E18000757365202020203D20004869676820665F
:10E190007573652020203D200045787420667573D6
:10E1A00065202020203D20004C6F636B2066757336
:10E1B000652020203D20004D617220203720323024
:10E1C000313300312E362E3800342E332E350056A2
:10E1D00023202020414444522020206F7020636F70
:10E1E00064652020202020696E73747275637469E1
:10E1F0006F6E2061646472202020496E74657272B3
:10E20000757074006E6F20766563746F7200726A49
:10E210006D702020006A6D70200057686174207056
:10E220006F72743A00506F7274206E6F7420737541
:10E2300070706F72746564004D7573742062652030
:10E2400061206C6574746572002000577269747483
:10E25000696E672045450052656164696E672045B7
:10E26000450045452065727220636E743D00504F35
:10E27000525400303D5A65726F2061646472003FF1
:10E280003D43505520737461747300403D454550C3
:10E29000524F4D207465737400423D426C696E6B41
:10E2A000204C454400453D44756D70204545505215
:10E2B0004F4D00463D44756D7020464C415348001B
:10E2C000483D48656C70004C3D4C69737420492F83
:10E2D0004F20506F72747300513D51756974005234
:10E2E0003D44756D702052414D00563D73686F7707
:10E2F00020696E7465727275707420566563746FF0
:10E30000727300593D506F727420626C696E6B00BD
:10E310002A0011241FBECFEFD1E2DEBFCDBF01E046
:10E320000CBF12E0A0E0B2E0EEE1FDEF03E00BBFB6
:10E3300002C007900D92A030B107D9F712E0A0E01B
:10E34000B2E001C01D92AE30B107E1F70F9460F367
:10E350000D948DFE01E20EBF0FEF0DBF11241FBE05
:10E360000D9460F30D9400F020E030E040ED57E0B4
:10E3700005C0FA013197F1F72F5F3F4F2817390792
:10E38000C0F308959C01260F311DC901A0E0B0E043
:10E390002F5F3F4FABBFFC018791882361F08093D3
:10E3A000C6008091C00086FFFCCF8091C0008064D1
:10E3B0008093C000EACF08958DE08093C6008091DD
:10E3C000C00086FFFCCF8091C00080648093C000B5
:10E3D0008AE08093C6008091C00086FFFCCF8091C8
:10E3E000C00080648093C00008950F94C2F10F9420
:10E3F000DCF10895FC019081992359F09093C600B7
:10E400008091C00086FFFCCF8091C0008064809323
:10E41000C0003196992379F70895282F982F929567
:10E420009F70892F805D8A3308F0895F8093C600D2
:10E430008091C00086FFFCCF8091C00080648093F3
:10E44000C000822F8F70982F905D9A3308F0995FEB
:10E450009093C6008091C00086FFFCCF8091C000E1
:10E4600080648093C00008959C01FB01853691056E
:10E470001CF46330710594F0C90164E670E00F94F8
:10E480002EFE605D7F4F6093C6008091C00086FFC6
:10E49000FCCF8091C00080648093C0002B30310598
:10E4A00014F43297B4F0C90164E670E00F942EFEC4
:10E4B0006AE070E00F942EFE605D7F4F6093C600AF
:10E4C0008091C00086FFFCCF8091C0008064809363
:10E4D000C000C9016AE070E00F942EFEC0968093E0
:10E4E000C6008091C00086FFFCCF8091C000806490
:10E4F0008093C00008951F93182F8EE692EE60E07F
:10E500000F94C2F11093C6008091C00086FFFCCF2B
:10E510008091C00080648093C0000F94DCF11F9153
:10E5200008952F923F924F925F926F927F928F92B7
:10E530009F92AF92BF92CF92DF92EF92FF920F9392
:10E540001F93DF93CF93CDB7DEB762970FB6F894E2
:10E55000DEBF0FBECDBF382E622ECA01DB015C01CB
:10E560006D01772420E2222E2E010894411C511CBB
:10E570008BC081E0A81680E0B80681E0C80680E084
:10E58000D80628F0C601AA27BB270F940DF2BB2797
:10E59000AD2D9C2D8B2D0F940DF28A2D0F940DF225
:10E5A0002092C6008091C00086FFFCCF8091C00001
:10E5B00080648093C0009DE29093C6008091C0006B
:10E5C00086FFFCCF8091C00080648093C0002092C1
:10E5D000C6008091C00086FFFCCF8091C00080649F
:10E5E0008093C00019828601750188249924A1E0D6
:10E5F0003A1651F03A1620F0B2E03B1661F409C029
:10E600000BBFF701779007C0C7010F9477FE782EF4
:10E6100002C0F7017080872D0F940DF22092C60082
:10E620008091C00086FFFCCF8091C0008064809301
:10E63000C000872D8052F401EF70F0708F3520F408
:10E64000E40DF51D708204C0E40DF51D8EE280839B
:10E650000894E11CF11C011D111D0894811C911CE2
:10E6600090E18916910409F0C2CF80E190E0A0E02A
:10E67000B0E0A80EB91ECA1EDB1E198AC2010F9493
:10E68000FAF10F94DCF16A94662009F072CF629679
:10E690000FB6F894DEBF0FBECDBFCF91DF911F91B3
:10E6A0000F91FF90EF90DF90CF90BF90AF909F9031
:10E6B0008F907F906F905F904F903F902F90089534
:10E6C0002F923F924F925F926F927F928F929F9282
:10E6D000AF92BF92CF92DF92EF92FF920F931F9370
:10E6E000DF93CF93CDB7DEB7CD53D1400FB6F894BB
:10E6F000DEBF0FBECDBF01E20EBF0FEF0DBF94B75F
:10E70000F894A89514BE80916000886180936000A1
:10E7100010926000789493FF05C0E0910002F091A0
:10E7200001021995279A2F9A8091C00082608093E8
:10E73000C00080E18093C40088E18093C1000000A4
:10E74000EE24FF24870144E0A42EB12CCC24DD2448
:10E7500024C0C5010197F1F70894E11CF11C011DCB
:10E76000111D21E2E2162EE4F20620E0020720E06D
:10E77000120718F031E0C32ED12CC801B70127ECE5
:10E780003BE140E050E00F9441FE611571058105C9
:10E79000910519F485B1805885B98091C00087FD35
:10E7A00003C0C114D104A9F2A6014F5F5F4FC25E3E
:10E7B000DE4F59834883CE51D140C25EDE4F8881FF
:10E7C0009981CE51D140019711F00D9410FEC05D9A
:10E7D000DE4F19821882C053D14060E0C15DDE4F28
:10E7E0001882CF52D14088249924C35DDE4F19820C
:10E7F0001882CD52D140C05EDE4F188219821A8233
:10E800001B82C052D140CE5CDE4F188219821A8220
:10E810001B82C253D140EE24FF2487010BBFF701B6
:10E8200007911691C45CDE4F19830883CC53D14005
:10E830000D940BFEC25EDE4F28813981CE51D1404E
:10E840002130310509F52091C600C25EDE4F1982E4
:10E850001882CE51D14022C02F5F3F4F4F4F5F4FA4
:10E86000213082E138078AE7480780E0580780F0C6
:10E87000C45CDE4FE881F981CC53D140EF5FFF4F9C
:10E8800019F0EE27FF27099420E030E040E050E047
:10E890008091C00087FFE0CF2091C600C35DDE4FAE
:10E8A00048815981CD52D1404F5F5F4FC35DDE4FEC
:10E8B00059834883CD52D140213209F063C64A3092
:10E8C000510508F05FC60894811C911C53E0851621
:10E8D000910409F059C600E010E018C081E280936D
:10E8E000C6008091C00086FFFCCF8091C00080648C
:10E8F0008093C0002F5F3F4F2931310579F70F9486
:10E90000DCF10F5F1F4F0530110519F020E030E0FA
:10E91000E5CF10920A0210920B0210920C02109294
:10E920000D02109206021092070210920802109235
:10E930000902109202021092030210920402109235
:10E9400005028FEE90EE60E00F94F5F180E191EE1C
:10E9500060E00F94C2F18091C00087FFFCCF9091DE
:10E96000C600903608F09F759032B8F09093C600BC
:10E970008091C00086FFFCCF8091C00080648093AE
:10E98000C000A0E2A093C6008091C00086FFFCCF2B
:10E990008091C00080648093C000983409F4D7C18E
:10E9A0009934B8F4923409F459C1933458F490333B
:10E9B00019F1903308F4E3C59F33A1F1903409F0C5
:10E9C000DEC5BDC0953409F470C1963409F0D7C5D1
:10E9D00098C1923509F42BC2933538F49C3409F46C
:10E9E000F5C1913509F0CBC518C2963509F445C279
:10E9F000993509F0C4C567C483E792EE62E00F94CD
:10EA0000F5F110920602109207021092080210927D
:10EA1000090210920A0210920B0210920C0210923C
:10EA20000D0213C18FE792EE62E00F94F5F18FEEC5
:10EA300090EE60E00F94F5F181E291EE60E00F94CA
:10EA4000C2F187EB91EE60E00F94F5F180E391EE77
:10EA500060E00F94C2F184EE90EE60E00F94F5F167
:10EA60008FE391EE60E00F94C2F186E090E061E008
:10EA700070E00F9434F20F94DCF18DE591EE60E0DC
:10EA80000F94C2F189EC91EE60E00F94F5F18EE401
:10EA900091EE60E00F94C2F183EC91EE60E00F9490
:10EAA000F5F18CE691EE60E00F94C2F18EE10F94E7
:10EAB0000DF288E90F940DF281E00F940DF20F949E
:10EAC000DCF18BE791EE60E00F94C2F119E0E0E039
:10EAD000F0E010935700E4918E2F0F940DF20F94F5
:10EAE000DCF18AE891EE60E00F94C2F1E3E0F0E03F
:10EAF00010935700E4918E2F0F940DF20F94DCF1D8
:10EB000089E991EE60E00F94C2F1E2E0F0E0109349
:10EB10005700E4918E2F0F940DF20F94DCF188EAE8
:10EB200091EE60E00F94C2F1E1E0F0E01093570045
:10EB30001491812F0F940DF20F94DCF107CF8BE825
:10EB400092EE62E00F94F5F18BE492EE60E00F94A8
:10EB5000F5F10F94DCF100E010E019C0C8016F2D51
:10EB60000F947FFEFF2031F489E492EE60E00F9471
:10EB7000C2F10BC0F092C6008091C00086FFFCCFAE
:10EB80008091C00080648093C0000F5F1F4FC80158
:10EB900081519F41A0E0B0E0ABBFFC01F790BAE229
:10EBA000FB1621F0E2E000301E07C1F60F94DCF105
:10EBB0000F94DCF187E592EE60E00F94F5F10F948D
:10EBC000DCF1CC24DD2400E010E01EC0C8010F946D
:10EBD00077FEF82E882331F489E492EE60E00F94FA
:10EBE000C2F10BC08093C6008091C00086FFFCCFAD
:10EBF0008091C00080648093C000FE1419F00894D6
:10EC0000C11CD11C0F5F1F4FC80181519F41A0E063
:10EC1000B0E0ABBFFC01E790FAE2EF1621F022E092
:10EC20000030120799F60F94DCF10F94DCF182E6C4
:10EC300092EE60E00F94C2F1C60161E070E00F94C3
:10EC400034F20F94DCF10F94DCF110920202109276
:10EC50000302109204021092050278CE89E992EE26
:10EC600062E00F94F5F1279A2F9A16C02F9880E052
:10EC700090E0E0EDF7E03197F1F7019684369105E9
:10EC8000C1F72F9A80E090E0E0EDF7E03197F1F7DF
:10EC9000019684369105C1F78091C00087FFE6CFC9
:10ECA0008091C00087FFFCCF64C485EA92EE62E0E9
:10ECB0000F94F5F140910202509103026091040219
:10ECC0007091050281E020E10F9491F2809102029F
:10ECD00090910302A0910402B091050280509F4FD1
:10ECE000AF4FBF4F8093020290930302A0930402A0
:10ECF000B093050280509041A040B04008F426CE69
:10ED0000A4CF83EB92EE62E00F94F5F140910602FE
:10ED100050910702609108027091090280E020E1A1
:10ED20000F9491F28091060290910702A09108023F
:10ED3000B091090280509F4FAF4FBF4F80930602A2
:10ED400090930702A0930802B0930902FFCD80ECD4
:10ED500092EE62E00F94F5F183E792EE60E00F949B
:10ED6000F5F18FE792EE60E00F94F5F18BE892EE0B
:10ED700060E00F94F5F189E992EE60E00F94F5F10F
:10ED800085EA92EE60E00F94F5F183EB92EE60E09D
:10ED90000F94F5F180EC92EE60E00F94F5F187ECC2
:10EDA00092EE60E00F94F5F188ED92EE60E00F9442
:10EDB000F5F18FED92EE60E00F94F5F18AEE92EEB0
:10EDC00060E00F94F5F183E093EEBDCD87EC92EE19
:10EDD00062E00F94F5F181E40F947BF282E40F94EA
:10EDE0007BF283E40F947BF284E40F947BF285E45E
:10EDF0000F947BF286E40F947BF287E40F947BF20E
:10EE000088E40F947BF28AE40F947BF28BE40F94F6
:10EE10007BF28CE40F947BF299CD88ED92EE62E068
:10EE20000F94F5F1772473948824992409C48FED05
:10EE300092EE62E00F94F5F140910A0250910B02BC
:10EE400060910C0270910D0282E020E10F9491F22A
:10EE500080910A0290910B02A0910C02B0910D02D8
:10EE600080509F4FAF4FBF4F80930A0290930B0289
:10EE7000A0930C02B0930D0269CD8AEE92EE62E08F
:10EE80000F94F5F184EE90EE60E00F94F5F18FECC5
:10EE900091EE60E00F94F5F1662477244301CC5D98
:10EEA000DE4F19821882C452D140D401C301B695F5
:10EEB000A79597958795CA5DDE4F88839983AA8326
:10EEC000BB83C652D140CC5DDE4FA881B981C4520C
:10EED000D1401196CC5DDE4FB983A883C452D14096
:10EEE000CD0162E070E00F9434F2B0E2B093C6005E
:10EEF0008091C00086FFFCCF8091C0008064809329
:10EF0000C000EDE2E093C6008091C00086FFFCCF18
:10EF10008091C00080648093C000F0E2F093C6004E
:10EF20008091C00086FFFCCF8091C00080648093F8
:10EF3000C000CA5DDE4FE880F9800A811B81C6529D
:10EF4000D140BB27A12F902F8F2D0F940DF2CA5DBA
:10EF5000DE4F8881C652D1400F940DF2B0E2FB2EF5
:10EF6000F092C6008091C00086FFFCCF8091C00067
:10EF700080648093C0000DE30093C6008091C000C0
:10EF800086FFFCCF8091C00080648093C00010E2B7
:10EF90001093C6008091C00086FFFCCF8091C00016
:10EFA00080648093C0008BBEF3012791C65DDE4F65
:10EFB0002883CA52D140A22EBB24CC24DD2408943D
:10EFC000611C711C811C911C8BBEF3018791282E42
:10EFD0003324442455240894611C711C811C911C09
:10EFE0008BBEF3013791C55DDE4F3883CB52D140E4
:10EFF0000894611C711C811C911C8BBEF30147910C
:10F00000C45DDE4F4883CC52D140ADEFEA2EAFEF66
:10F01000FA2EAFEF0A2FAFEF1A2F6E0C7F1C801E57
:10F02000911E142D032DF22CEE24EA0CFB1C0C1D5A
:10F030001D1D0F940DF220E22093C6008091C000A8
:10F0400086FFFCCF8091C00080648093C000C65DC5
:10F05000DE4F8881CA52D1400F940DF230E23093D6
:10F06000C6008091C00086FFFCCF8091C000806404
:10F070008093C000C45DDE4F8881CC52D1400F9494
:10F080000DF240E24093C6008091C00086FFFCCFA5
:10F090008091C00080648093C000C55DDE4F888190
:10F0A000CB52D1400F940DF250E25093C6008091A4
:10F0B000C00086FFFCCF8091C00080648093C000B8
:10F0C0008FEFE8168FEFF80680E0080780E018075A
:10F0D00031F484E092EE60E00F94C2F1DFC0D80119
:10F0E000C7018070907CA070B0708050904CA040A0
:10F0F000B040D1F52FEF3FE340E050E0E222F322B1
:10F1000004231523CA5DDE4FA880B980CA80DB8046
:10F11000C652D140AE0CBF1CC01ED11EAA0CBB1CD7
:10F12000CC1CDD1C8EE092EE60E00F94C2F1BB2798
:10F13000A12F902F8F2D0F940DF28E2D0F940DF285
:10F1400030E23093C6008091C00086FFFCCF8091F2
:10F15000C00080648093C0004EE34093C60080915D
:10F16000C00086FFFCCF87C08EE09EEFA0E0B0E03D
:10F17000E822F9220A231B239CE0E91694E9F90608
:10F1800090E0090790E0190709F088C0C45DDE4FE0
:10F19000A881CC52D140EA2EFF2400E010E0102FCD
:10F1A0000F2DFE2CEE24C55DDE4FB881CB52D14031
:10F1B000EB0EF11C011D111DD601C501817090706F
:10F1C000A070B070DC0199278827E80EF91E0A1F8D
:10F1D0001B1F20EF30E040E050E0A222B322C42207
:10F1E000D52241E1AA0CBB1CCC1CDD1C4A95D1F7F1
:10F1F000EA0CFB1C0C1D1D1D81E090E0A0E0B0E0BE
:10F20000282239224A225B2235E1220C331C441C7D
:10F21000551C3A95D1F7E20CF31C041D151D57013E
:10F220006801AA0CBB1CCC1CDD1C85E192EE60E0E1
:10F230000F94C2F1C801AA27BB270F940DF2BB2778
:10F24000A12F902F8F2D0F940DF28E2D0F940DF274
:10F2500090E29093C6008091C00086FFFCCF809121
:10F26000C00080648093C000AEE3A093C60080918C
:10F27000C00086FFFCCF8091C00080648093C000F6
:10F28000C601AA27BB270F940DF2BB27AD2D9C2DDD
:10F290008B2D0F940DF28A2D0F940DF20F94DCF14B
:10F2A000CC5DDE4FE881F981C452D140F99709F471
:10F2B0004DCBF4E0EF2EF12C012D112D6E0C7F1CA7
:10F2C000801E911EF2CD83E093EE62E00F94F5F183
:10F2D0008AE192EE60E00F94C2F18091C00087FF56
:10F2E000FCCF1091C6001F751093C6008091C0001E
:10F2F00086FFFCCF8091C00080648093C0000F9493
:10F30000DCF1812F81548A3108F036C1163409F4BA
:10F3100095C0173490F4133409F44EC0143430F40B
:10F320001134F1F0123409F01DC130C0143409F465
:10F3300059C0153409F016C16BC01A3409F4C4C0A1
:10F340001B3438F4173409F48FC0183409F00AC19B
:10F35000A1C01B3409F4D2C01C3409F003C1E8C0B9
:10F360008FEF81B90DC082B1809582B980E090E0C5
:10F37000E0EDF7E03197F1F70196883C9105C1F790
:10F380008091C00087FFEFCF12B8EFC08FEF84B934
:10F390000DC085B1809585B980E090E0E0EDF7E0A3
:10F3A0003197F1F70196883C9105C1F78091C00033
:10F3B00087FFEFCF15B8D9C08FEF87B90DC088B1DF
:10F3C000809588B980E090E0E0EDF7E03197F1F7C3
:10F3D0000196883C9105C1F78091C00087FFEFCF6F
:10F3E00018B8C3C08FEF8AB90DC08BB180958BB9A7
:10F3F00080E090E0E0EDF7E03197F1F70196883C8E
:10F400009105C1F78091C00087FFEFCF1BB8ADC059
:10F410008FEF8DB90DC08EB180958EB980E090E0F0
:10F42000E0EDF7E03197F1F70196883C9105C1F7DF
:10F430008091C00087FFEFCF1EB897C08FEF80BBD1
:10F440000DC081B3809581BB80E090E0E0EDF7E0F6
:10F450003197F1F70196883C9105C1F78091C00082
:10F4600087FFEFCF11BA81C08FEF83BB0DC084B38C
:10F47000809584BB80E090E0E0EDF7E03197F1F714
:10F480000196883C9105C1F78091C00087FFEFCFBE
:10F4900014BA6BC08FEF809301010FC080910201FD
:10F4A00080958093020180E090E0E0EDF7E03197F5
:10F4B000F1F70196883C9105C1F78091C00087FF64
:10F4C000EDCF1092020151C08FEF809304010FC065
:10F4D0008091050180958093050180E090E0E0ED4A
:10F4E000F7E03197F1F70196883C9105C1F78091DB
:10F4F000C00087FFEDCF1092050137C08FEF8093DA
:10F5000007010FC08091080180958093080180E079
:10F5100090E0E0EDF7E03197F1F70196883C910536
:10F52000C1F78091C00087FFEDCF109208011DC088
:10F530008FEF80930A010FC080910B01809580931B
:10F540000B0180E090E0E0EDF7E03197F1F70196F4
:10F55000883C9105C1F78091C00087FFEDCF1092E4
:10F560000B0103C085E292EEEEC98091C00087FFD7
:10F57000FCCF8091C600EAC988E392EEE4C98CE131
:10F5800091EEE1C988249924933011F1943028F444
:10F59000913089F09230B8F408C0953061F195301F
:10F5A000F0F0963009F048C043C02B3109F042C951
:10F5B00091E06BE13FC96227C15DDE4F2883CF52E6
:10F5C000D14092E037C9B22FA0E0622793E032C960
:10F5D000822F90E0A82BB92B622794E02BC92E3004
:10F5E00009F039C3622795E0C05DDE4F19821882A9
:10F5F000C053D1401FC9E1E0F0E0EC0FFD1FC05D3A
:10F60000DE4F08811981C053D140E00FF11F2083E4
:10F610000F5F1F4FC05DDE4F19830883C053D14079
:10F6200062270A171B0709F005C9D80196E002C92D
:10F63000261709F010C303C0973009F0FBC87724E0
:10F640009981933109F412C19431C8F4963009F4C8
:10F65000D8C0973050F4923009F406C1933009F4C1
:10F660006DC0913009F059C253C0913109F477C08F
:10F67000923108F0BBC0903109F04FC2F5C098310B
:10F6800009F487C0993150F4953109F4EFC09531F0
:10F6900008F4C6C1963109F040C2C2C19A3109F4DA
:10F6A0006CC09A3108F491C09B3109F45BC09D3164
:10F6B00009F033C29D81903359F48F81882311F46E
:10F6C0009EE11CC0813011F091E018C098E916C08D
:10F6D000892F807591F0903539F4E0E0F0E089E011
:10F6E0008093570094910AC0983539F4E3E0F0E034
:10F6F00089E080935700949101C090E01A821B82A8
:10F700008D818C831D829E831F8227E030E009C299
:10F710001A8288E08B8381E48C8386E58D8382E581
:10F720008E8389E48F8383E5888780E589878FE5E9
:10F730008A8782E38B872BE030E0F3C18A818139AD
:10F7400041F0823941F0803911F48FE005C080E04A
:10F7500003C082E001C08AE01A828B8344C0772410
:10F76000739482C08D81882311F48EE12CC0813086
:10F7700011F081E028C088E926C01A82E1E0F0E0BB
:10F7800089E08093570084918B831C8224E030E0D1
:10F79000C8C18B81803589F48C81883039F4E2E0EE
:10F7A000F0E089E08093570084910DC0E0E0F0E044
:10F7B00089E080935700849106C0E3E0F0E089E09F
:10F7C0008093570084911A82DFCF8D81836C99E0FA
:10F7D000E1E0F0E0082E90935700E89507B600FCB2
:10F7E000FDCF1A821B8223E030E09BC180EC8A832C
:10F7F000CE5CDE4F188219821A821B82C253D1401E
:10F800008EC18A8190E0A0E0B0E0582F44273327D2
:10F8100022278B8190E0A0E0B0E0DC0199278827C7
:10F82000282B392B4A2B5B2B8D8190E0A0E0B0E098
:10F83000282B392B4A2B5B2B8C8190E0A0E0B0E089
:10F84000BA2FA92F982F8827282B392B4A2B5B2BCF
:10F85000220F331F441F551FC05EDE4F288339839C
:10F860004A835B83C052D1401A8259C13A81C95C34
:10F87000DE4F3883C753D140CA5CDE4F1882C6536F
:10F88000D1408B81C82EDD24CA5CDE4F488159816E
:10F89000C653D140C42AD52A933109F082C0CE5C28
:10F8A000DE4F88819981AA81BB81C253D1408050AB
:10F8B000904CA340B04030F583E0CE5CDE4FE88052
:10F8C000F9800A811B81C253D140F70100935B008C
:10F8D00080935700E89507B600FCFDCFCE5CDE4F65
:10F8E000088119812A813B81C253D14000501F4FAA
:10F8F0002F4F3F4FCE5CDE4F088319832A833B8313
:10F90000C253D140C05EDE4F488159816A817B81FC
:10F91000C052D140DE011B9631E08C9111962C91A2
:10F9200011971296C75CDE4F2883C953D140C85C3B
:10F93000DE4F1882C853D14090E0C85CDE4FE881AA
:10F94000F981C853D1408E2B9F2B0C01FA01609393
:10F950005B0030935700E89511244E5F5F4F6F4F67
:10F960007F4F0EEFE02E0FEFF02ECE0CDF1CC114F8
:10F97000D10499F685E0C05EDE4F088119812A81A5
:10F980003B81C052D140F80120935B008093570027
:10F99000E89507B600FCFDCF81E180935700E8951C
:10F9A00035C0C05EDE4F88819981AA81BB81C0527B
:10F9B000D140B695A795979587957C018601ABE0D8
:10F9C000AA2EB12CAC0EBD1E0BC0D5016D915D01F0
:10F9D000C7010F947FFE0894E11CF11C01501040F8
:10F9E0000115110591F7A60160E070E0440F551F65
:10F9F000661F771FC05EDE4FE880F9800A811B8199
:10FA0000C052D1404E0D5F1D601F711F1A82C05E33
:10FA1000DE4F488359836A837B83C052D1407FC0C5
:10FA2000FA80C55CDE4FF882CB53D140C65CDE4F16
:10FA30001882CA53D1408B81C82EDD24C65CDE4FAC
:10FA400008811981CA53D140C02AD12A1A828981DA
:10FA5000BE016D5F7F4F843121F59601C05EDE4FA0
:10FA6000E880F9800A811B81C052D1400BBFF701A9
:10FA700087919691DB018C9311969C936E5F7F4FDB
:10FA8000D801C7010296A11DB11DC05EDE4F88835B
:10FA90009983AA83BB83C052D14022503040F1F6F3
:10FAA00036C0C05EDE4F288139814A815B81C052F9
:10FAB000D1400894C108D108760100E010E0089414
:10FAC000C11CD11C0894E11CF11C011D111DE20E8A
:10FAD000F31E041F151F21BDBB27A52F942F832FB5
:10FAE00082BD2F5F3F4F4F4F5F4FF89A80B5DB01CC
:10FAF0008D93BD012E153F054007510761F7C05E8C
:10FB0000DE4F288339834A835B83C052D1409601FC
:10FB10002D5F3F4FFB01108204C080EC8A8322E0FE
:10FB200030E08BE18093C6008091C00086FFFCCF5F
:10FB30008091C00080648093C000C15DDE4FF88179
:10FB4000CF52D140F093C6008091C00086FFFCCF19
:10FB50008091C00080648093C000432F3093C60022
:10FB60008091C00086FFFCCF8091C00080648093AC
:10FB7000C000922F2093C6008091C00086FFFCCF6A
:10FB80008091C00080648093C0008EE08093C600A6
:10FB90008091C00086FFFCCF8091C000806480937C
:10FBA000C00065E1C15DDE4FE880CF52D1406E25D7
:10FBB00069276427FE01319610C090819093C6009A
:10FBC0008091C00086FFFCCF31968091C000806498
:10FBD0008093C0006927215030402115310569F715
:10FBE0006093C6008091C00086FFFCCF8091C0006A
:10FBF00080648093C00085B1805885B9772081F4F6
:10FC0000C15DDE4F0881CF52D1400F5FC15DDE4F35
:10FC10000883CF52D14090E0A0E0B0E00D941AF4F8
:10FC200027982F9880E090E020ED37E0F901319798
:10FC3000F1F7019684369105C9F700008091C00064
:10FC40008D7F8093C00081E180935700E895EE2777
:10FC5000FF270994FFCF90E00D941AF497FB092E2B
:10FC600007260AD077FD04D02ED006D000201AF443
:10FC7000709561957F4F0895F6F7909581959F4F08
:10FC80000895A1E21A2EAA1BBB1BFD010DC0AA1FDD
:10FC9000BB1FEE1FFF1FA217B307E407F50720F0F5
:10FCA000A21BB30BE40BF50B661F771F881F991F70
:10FCB0001A9469F760957095809590959B01AC01B9
:10FCC000BD01CF010895AA1BBB1B51E107C0AA1FAC
:10FCD000BB1FA617B70710F0A61BB70B881F991FED
:10FCE0005A95A9F780959095BC01CD010895F99991
:10FCF000FECF92BD81BDF89A992780B50895262F31
:10FD0000F999FECF1FBA92BD81BD20BD0FB6F89400
:0EFD1000FA9AF99A0FBE01960895F894FFCF63
:00000001FF
