:100000000C9449010C947A010C947A010C947A01B5
:100010000C947A010C947A010C947A010C947A0174
:100020000C947A010C947A010C947A010C947A0164
:100030000C947A010C947A010C947A010C947A0154
:100040000C947A010C947A010C947A010C947A0144
:100050000C947A010C947A010C947A010C94D50AD0
:100060000C947A010C94490B0C941F0B0C947A019C
:100070000C947A010C947A010C947A010C947A0114
:100080000C947A010C947A010C947A010C947A0104
:100090000C947A010C947A010C947A010C947A01F4
:1000A0000C947A010C947A010C947A010C947A01E4
:1000B0000C947A010C947A010C947A010C947A01D4
:1000C0000C947A010C947A010C947A010C947A01C4
:1000D0000C947A010C947A010C947A010C947A01B4
:1000E0000C947A010C94E6010C94F0010C94080530
:1000F0000C94C40B0C94CB010C94BF010C94C30161
:100100000C943D070C9439050C9417050C94AD0123
:100110000C94BE050C94E2010C94DB040C94FA01DF
:100120000C9471050C94B9090C94EC010C94DE014B
:100130000C94610A0C941B0A0C94D4010C94D80101
:100140000C94A8010C94D30A0C94F4010C940F069F
:100150000C94BF090C94C7010C94FE010C94650A21
:100160000C94D8040C942B050C945E0A0C94CE01CC
:1001700000002100240027002A002D003000330059
:1001800001010000040107010A0100002000230012
:10019000260029002C002F0032000001000003017E
:1001A0000601090100002200250028002B002E0076
:1001B0003100340002010000050108010B010505B2
:1001C0000505070508080808020202020A0A0808CD
:1001D00004040404010101010101010103030303FB
:1001E00003030303040707070C0C0C0C0C0C0C0C8A
:1001F0000202020206060606060606060B0B0B0B9B
:100200000B0B0B0B010210202008081020401020BF
:1002100040800201020108040201010204081020CA
:1002200040808040201008040201800402018040C8
:100230002010080402010804020101020408102031
:100240004080010204081020408000000A0B0209CF
:100250000C0D0E0807030401000000000000000060
:10026000000000000000000000000000000000008E
:10027000000000000000121110000000000000004B
:10028000000000000000000000000000000000006E
:10029000C40B11241FBECFEFD1E2DEBFCDBF00E003
:1002A0000CBF12E0A0E0B2E0E2E0F0E200E00BBF41
:1002B00002C007900D92AA34B107D9F724E0AAE44E
:1002C000B2E001C01D92A83EB207E1F711E0C9E417
:1002D000D1E000E006C021970109802FFE010E94B5
:1002E000BD0FC834D10780E00807A9F70E94000CB1
:1002F0000C94FF0F0C940000382FECE4F2E0849192
:10030000E6E0F2E02491E0ECF1E09491992309F425
:1003100035C0882311F181508231F8F4E82FF0E0E4
:100320008827EA56FE4F8F4F0C94BD0FC701CB01B3
:10033000A801BF01C301AD01CE01D401D801DE0186
:10034000E201E601EC01F001AD01F401FA01FE0168
:10035000809180008F7780938000E92FF0E0EE0F8E
:10036000FF1FEC55FE4FA591B4918FB7F894EC9117
:10037000311148C020952E232C938FBF0895809172
:1003800080008F7DE8CF80918000877FE4CF84B5A7
:100390008F7784BDE2CF84B58F7DFBCF8091B00095
:1003A0008F778093B000D9CF8091B0008F7DF9CF47
:1003B000809190008F7780939000CFCF80919000B4
:1003C0008F7DF9CF80919000877FF5CF8091A0003D
:1003D0008F778093A000C1CF8091A0008F7DF9CF4F
:1003E0008091A000877FF5CF809120018F77809347
:1003F0002001B3CF809120018F7DF9CF8091200122
:10040000877FF5CF2E2BB8CFDC0117962C9117974D
:1004100030E0F901EC5FFD4FE4911696EC931697EE
:1004200022543E4FF9018491E82FF0E0EE0FFF1FB8
:10043000EC55FE4F8591949113969C938E93129751
:10044000F9012491E22FF0E0EE0FFF1FE657FE4F77
:100450008591949115969C938E93149708953FB728
:10046000F8948091680290916902A0916A02B0911B
:100470006B0226B5A89B05C02F3F19F00196A11D60
:10048000B11D3FBFBA2FA92F982F8827BC01CD01DE
:10049000620F711D811D911D42E0660F771F881F3D
:1004A000991F4A95D1F708954F925F926F927F926C
:1004B0009F92AF92BF92CF92DF92EF92FF920F93F3
:1004C0001F93CF93DF9300D0CDB7DEB7D82E8091A6
:1004D000DE049091DF04A091E004B091E104892B47
:1004E0008A2B8B2BD9F00E942F0200913A04109195
:1004F0003B0420913C0430913D04601B710B820B46
:10050000930B0091DE041091DF042091E004309100
:10051000E1046017710782079307C8F20E942F0257
:1005200060933A0470933B0480933C0490933D04A1
:10053000E091E604F091E704309759F04091E2042D
:100540005091E3046091E4047091E5048D2D1995B8
:10055000D82EE0903804F09039044D2C512C712C99
:10056000612CE114F10409F459C0D7011C96CC9018
:100570001C978091DC049091DD048436910510F481
:100580001C961C92D701ED91FC91A280B380198238
:100590001A821B82DD2079F1F701369610E000E027
:1005A0002191222319F19280992001F130E050E04D
:1005B00040E02F5F3F4F4F4F5F4FC301B2010E949A
:1005C000770F9B01AC01892D90E0B0E0A0E0BC0169
:1005D000CD016F5F7F4F8F4F9F4F0E94770FA1E03C
:1005E000B0E0AC0FBD1FA00FB11F8C930F5F1F4F6A
:1005F00003301105A9F609811A812B81F701458580
:10060000568562817381C701F5011995D7011C9642
:10061000CC921C971496ED90FC90A3CF8091360459
:10062000909137049C012F5F3F4F30933704209304
:10063000360449970CF44AC08FB7F89420912E04E1
:1006400030912F0440913004509131048FBF80913C
:10065000320490913304A0913404B0913504281BE6
:10066000390B4A0B5B0B21F421E030E040E050E015
:10067000E0913604F091370488EE93E0E89FB001F2
:10068000E99F700DF89F700D1124072E000C880B48
:10069000990B0E949B0F3093DD042093DC04109291
:1006A0003704109236042FB7F89480912E0490915D
:1006B0002F04A0913004B09131042FBF80933204F5
:1006C00090933304A0933404B09335040F900F90AB
:1006D0000F90DF91CF911F910F91FF90EF90DF90DE
:1006E000CF90BF90AF909F907F906F905F904F9012
:1006F0000895CF92DF92EF92FF920F931F93CF93C3
:10070000DF936C01DB018091100290911102E1E016
:10071000F0E0C29714F4E2E0F0E0EA018881998108
:100720008739910524F48E0F9F1F99838883EA01EE
:1007300068817981E601888199818617970734F469
:10074000319521953109EA0139832883EA018881AD
:10075000998197FDCBC080911002909111028C3845
:1007600091058CF48D919C9111978F3F910521F00B
:100770001CF011961C921E928D919C9111970196DE
:1007800011969C938E930C91EA0188819981BC010A
:10079000660F771F680F791F64597D4F902F990F4F
:1007A000990F990F35E5292F239F020E20E0211D77
:1007B0001124822F202F2074102F107207FD66C085
:1007C000211151C0111106C0982F9095382F892FF3
:1007D00090E004C035E5380F90E08BEAEB018883A8
:1007E00039839A836D917C91DA010D911C9135E5E5
:1007F000F32EE12C5BEACAEAC8018E1B9F0B97FD22
:1008000073C020911002309111022C38310544F44C
:100810006F3F710519F014F070E060E06F5F7F4F7B
:10082000DC01AA0FBB1FA80FB91FA459BD4F962FFB
:10083000990F990F990F292F3F2D239F020E20E02A
:10084000211D1124822F262F2074462F407267FD10
:1008500086C0211171C041113DC0982F9095382F4D
:10086000892F90E03BC011110BC0292F3AEA239F3A
:10087000020E20E0211D11249BEA921B380FA7CF06
:1008800090E0382F3095982F80E0A8CF211112C02A
:1008900011110CC0292F3AEA239F020E20E0211DDE
:1008A00011243BEA321B95E5920FEECF982F9095DD
:1008B00030E094CF111106C025E5280F9BEA981B64
:1008C000822FF6CF2AEA280F90E0932FF8CFE1E0AD
:1008D000F0E092CF35E5380F90E08BEA8C931196DB
:1008E0003C93119712969C93319789F78091DB0482
:1008F0000E945402D6014D915C91ECE6F2E090E04A
:1009000080E03AEF841795070CF049C02081239FBF
:10091000020E20E0211D20832181239F020E20E072
:10092000211D21832281239F020E20E0211D22838D
:10093000112401963396E6CF41110CC0292F3C2F8C
:10094000239F020E20E0211D1124952F921B3AEACD
:10095000380F86CF382F3095982F80E0BFCF2111E8
:1009600012C041110CC0292F3C2F239F020E20E002
:10097000211D1124352F321B95E5920FEECF982FB4
:10098000909530E0ABCF411106C025E5280F952F9B
:10099000981B822FF6CF2AEA280F9F2DF9CFDF91DF
:1009A000CF911F910F91FF90EF90DF90CF9008951E
:1009B00080E991E00895AF92BF92CF92DF92EF92DB
:1009C000FF920F931F93CF93DF936C017B018B01F9
:1009D000040F151FEB015E01AE18BF08C017D10749
:1009E00059F06991D601ED91FC910190F081E02DD3
:1009F000C6011995892B79F7C501DF91CF911F9118
:100A00000F91FF90EF90DF90CF90BF90AF9008953F
:100A1000FC01538D448D252F30E0842F90E0821B04
:100A2000930B541710F0CF96089501970895FC0189
:100A3000918D828D981761F0A28DAE0FBF2FB11DE1
:100A40005D968C91928D9F5F9F73928F90E0089539
:100A50008FEF9FEF0895FC01918D828D981731F0F3
:100A6000828DE80FF11D858D90E008958FEF9FEF47
:100A70000895FC01918D228D892F90E0805C9F4F1D
:100A8000821B91098F73992708958EE394E00E9449
:100A9000390521E0892B09F420E0822F0895FC011B
:100AA000A48DA80FB92FB11DA35ABF4F2C91848DCF
:100AB00090E001968F739927848FA689B7892C932C
:100AC000A089B1898C91837080648C93938D848D7F
:100AD000981306C00288F389E02D80818F7D808382
:100AE0000895EF92FF920F931F93CF93DF93EC0142
:100AF00081E0888F9B8D8C8D98131AC0E889F989C5
:100B0000808185FF15C09FB7F894EE89FF896083C7
:100B1000E889F98980818370806480839FBF81E048
:100B200090E0DF91CF911F910F91FF90EF9008958A
:100B3000F62E0B8D10E00F5F1F4F0F731127E02E65
:100B40008C8D8E110CC00FB607FCFACFE889F9899D
:100B5000808185FFF5CFCE010E944F05F1CFEB8D4F
:100B6000EC0FFD2FF11DE35AFF4FF0829FB7F89471
:100B70000B8FEA89FB8980818062CFCFCF93DF938F
:100B8000EC01888D8823B9F0AA89BB89E889F989A5
:100B90008C9185FD03C0808186FD0DC00FB607FCDA
:100BA000F7CF8C9185FFF2CF808185FFEDCFCE010D
:100BB0000E944F05E9CFDF91CF91089580E090E04A
:100BC000892B29F00E94450581110E94000080E0D8
:100BD00090E0892B49F080E090E0892B29F00E9479
:100BE000000081110E94000080E090E0892B49F014
:100BF00080E090E0892B29F00E94000081110E9482
:100C0000000080E090E0892B49F080E090E0892BA3
:100C100029F00E94000081110C94000008952F9289
:100C20003F924F925F926F927F928F929F92AF927C
:100C3000BF92CF92DF92EF92FF920F931F93CF93C9
:100C4000DF9300D000D000D0CDB7DEB789874983CD
:100C50005A836B837C830091380410913904BDE77B
:100C60008B2E912CA12CB12C0115110509F46BC010
:100C7000D801ED91FC910084F185E02DC801199512
:100C80001C01D8011296ED91FC91C12CD12C76015A
:100C9000412C512C320120E030E0A901009791F065
:100CA0006081260F311D411D511D6181460E511C71
:100CB000611C711C6281C60ED11CE11CF11C0197E4
:100CC0003396ECCFA0E5B0E00E94CC0F6D837E831D
:100CD0008F839887A7E3B0E0A30192010E94CC0F15
:100CE0002B013C01ABE4B0E0A70196010E94CC0FC0
:100CF0002D813E814F815885C32ED42EE52EFF24B1
:100D000045E0429D9001439D300D1124C20ED31E3B
:100D1000E11CF11C8C0C9D1CAE1CBF1C452C562CE0
:100D2000672C7724840C951CA61CB71C472F582FC2
:100D3000692F7727840E951EA61EB71ED80114961C
:100D40000D911C9191CFB985CB2ED12CF12CE12C9A
:100D5000A7019601C501B4010E94770F872E982E36
:100D6000A92EBB2429813A814B815C81821693068E
:100D7000A406B50668F0A701960169817A818B8186
:100D80009C810E94770FA50194010E949B0F2987E7
:100D9000898529960FB6F894DEBF0FBECDBFDF91CF
:100DA000CF911F910F91FF90EF90DF90CF90BF9068
:100DB000AF909F908F907F906F905F904F903F90FB
:100DC0002F900895FC01A281B3819C918681268198
:100DD000982381E0921380E00895FC0186810280CF
:100DE000F381E02D90818095892380830895FC0113
:100DF00096810280F381E02D8081892B8083089584
:100E00000F931F93CF93DF9320914B022F5F322FCD
:100E1000377030934B0220FF2BC020E831FD206457
:100E2000347009F02062205FFC01EC01239600E0A1
:100E300011E06485662329F070E0C8010E94870FE5
:100E40006F5F6187322F369F030E30E0311D112412
:100E5000311110C01682662311F0615061873196FE
:100E6000EC17FD0731F7DF91CF911F910F91089596
:100E700020E0D4CF31503683EECF4F925F927F92F5
:100E80008F929F92AF92BF92CF92DF92EF92FF929A
:100E90000F931F93CF93DF932C01EB010E942F023E
:100EA000F20127853089621B730B6A307105B0F33C
:100EB000F8948A819B81181619060CF0E8C1E88124
:100EC000F981009102010062709102017F7D7093AF
:100ED0000201BA848F812B2D281B822F2F834F85EF
:100EE000042E000C550BAA81BB81ED84DC84CE84DA
:100EF000E394D394C3949E81388599848B84118123
:100F000020E0F32E622F322F318111278894311186
:100F1000380F08F43FEF81958894E0FC130F179584
:100F20008894E1FC130F17958894E2FC130F179532
:100F30008894E3FC130F17958894E4FC130F17951E
:100F40008894E5FC130F17958894E6FC130F17950A
:100F50008894E7FC130F17958894232FE110212F15
:100F60008B0D122F002C00930201002C17FF7093A1
:100F7000020130812227889400C000C070930201D2
:100F80003111390F00C000930201002C16FF70933D
:100F9000020108F43FEF9195889400C000C070935F
:100FA0000201D0FC230F00C000930201002C15FFAA
:100FB0007093020127958894D1FC230F00C000C0D4
:100FC000709302012795889400C000930201002CC1
:100FD00014FF70930201D2FC230F2795889400C060
:100FE00000C070930201D3FC230F00C000930201E4
:100FF000002C13FF7093020127958894D4FC230FD3
:1010000000C000C0709302012795889400C000932F
:101010000201002C12FF70930201D5FC230F2795CB
:10102000889400C000C070930201D6FC230F00C05A
:1010300000930201002C11FF709302012795889400
:10104000D7FC230F00C000C070930201279588943D
:1010500000C000930201002C10FF70930201132FB7
:10106000D110122F990D00C000C07093020100C072
:1010700000C000930201002C17FF7093020132811F
:101080002227889400C000C07093020131113F0DE7
:1010900000C000930201002C16FF7093020108F4B7
:1010A0003FEFE40FF51F00C000C070930201C0FCC9
:1010B000230F00C000930201002C15FF7093020162
:1010C00027958894C1FC230F00C000C070930201D3
:1010D0002795889400C000930201002C14FF7093A0
:1010E0000201C2FC230F2795889400C000C07093B2
:1010F0000201C3FC230F00C000930201002C13FF68
:101100007093020127958894C4FC230F00C000C08F
:10111000709302012795889400C000930201002C6F
:1011200012FF70930201C5FC230F2795889400C01D
:1011300000C070930201C6FC230F00C0009302019F
:10114000002C11FF7093020127958894C7FC230F90
:1011500000C000C0709302012795889400C00093DE
:101160000201002C10FF70930201132FC110122FE7
:10117000F19400C000C070930201F80C00C0002C74
:1011800000930201002C17FF709302013181222786
:10119000889400C000C0709302013111380F00C064
:1011A00000930201002C16FF7093020108F43FEF38
:1011B0008195889400C000C070930201E0FC230F69
:1011C00000C000930201002C15FF709302012795C7
:1011D0008894E1FC230F00C000C0709302012795A2
:1011E000889400C000930201002C14FF7093020148
:1011F000E2FC230F2795889400C000C07093020181
:10120000E3FC230F00C000930201002C13FF709336
:10121000020127958894E4FC230F00C000C070935E
:1012200002012795889400C000930201002C12FF50
:1012300070930201E5FC230F2795889400C000C03D
:1012400070930201E6FC230F00C000930201002C02
:1012500011FF7093020127958894E7FC230F00C0CB
:1012600000C0709302012795889400C0009302018A
:10127000002C10FF70930201132FE110122F8B0D21
:1012800000C000C070930201119709F06CCE4A8132
:101290005B8120EE31E0DA010E94C50FDC01CB0159
:1012A000F4E0B695A79597958795FA95D1F730E034
:1012B00020E0B901EAE94E9F040E611D5E9F600DBA
:1012C000711D1124650F711D860F971FA11DB11D82
:1012D000893E43E09407A105B10508F434C0885E57
:1012E0009340A109B10942E0B695A79597958795D6
:1012F0004A95D1F747E0849F080E211D949F200D49
:10130000311D1124290F311D60914A0270E0860FB2
:10131000971F820F931F40912E0450912F046091CC
:10132000300470913104292F3327420F531F611D60
:10133000711D40932E0450932F04609330047093DA
:10134000310480934A0278940E942F02F201708B3C
:101350006787DF91CF911F910F91FF90EF90DF9002
:10136000CF90BF90AF909F908F907F905F904F9065
:101370000895E1E0F1E080818062808308956F92BA
:101380007F928F92CF92DF92EF92FF920F931F93F3
:10139000CF93DF93CDB7DEB762970FB6F894DEBF79
:1013A0000FBECDBF6C017A013801822EDC011C9684
:1013B0002C91CA0157FF04C088279927841B950BDD
:1013C0007A8369839C838B839E838D836D867E86DF
:1013D0008F86213049F5CE0101960E94000783E0F7
:1013E000888B1A8A198AF7FE02C08DEF888BD60186
:1013F000ED91FC910484F585E02DBE016F5F7F4F78
:10140000C601199562960FB6F894DEBF0FBECDBF28
:10141000DF91CF911F910F91FF90EF90DF90CF90D0
:101420008F907F906F9008951C861B861A86198670
:1014300018861F82D4CFEF92FF920F931F93CF9302
:10144000DF93CDB7DEB762970FB6F894DEBF0FBE5D
:10145000CDBF7C01DC011C968C917A8369835C830F
:101460004B835E834D830D871E872F878130F9F470
:10147000CE0101960E940007188A1A8A198AD7019C
:10148000ED91FC910484F585E02DBE016F5F7F4FE7
:10149000C701199562960FB6F894DEBF0FBECDBF97
:1014A000DF91CF911F910F91FF90EF9008951C86CF
:1014B0001B861A86198618861F82DECF90E080E090
:1014C0000895FC018585968508950F931F93CF930A
:1014D000DF9300D0CDB7DEB7AB0119821A821B8231
:1014E000DC01ED91FC910190F081E02D00E010E035
:1014F00020E0BE016F5F7F4F19950F900F900F9006
:10150000DF91CF911F910F9108958F929F92AF928B
:10151000BF920F931F93CF93DF93CDB7DEB7A19701
:101520000FB6F894DEBF0FBECDBF19A2423008F44B
:101530004AE08E010F5D1F4F842E912CB12CA12CFF
:10154000A50194010E949B0FE62FB901CA01EA3060
:1015500044F5E05DD801EE938D01232B242B252B40
:1015600079F790E080E0109769F0FD01019000208C
:10157000E9F73197AF014A1B5B0BBD018EE394E0A5
:101580000E94DB04A1960FB6F894DEBF0FBECDBF5C
:10159000DF91CF911F910F91BF90AF909F908F904F
:1015A0000895E95CD7CF0E94FA0F1F920F920FB6F1
:1015B0000F9211242F933F938F939F93AF93BF93D9
:1015C00080912E0490912F04A0913004B0913104A9
:1015D0003091670223E0230F2D3758F50196A11DA6
:1015E000B11D2093670280932E0490932F04A09343
:1015F0003004B09331048091680290916902A09107
:101600006A02B0916B020196A11DB11D8093680220
:1016100090936902A0936A02B0936B02BF91AF915D
:101620009F918F913F912F910F900FBE0F901F9020
:10163000189526E8230F0296A11DB11DD2CF1F9247
:101640000F920FB60F9211240BB60F922F933F9368
:101650004F935F936F937F938F939F93AF93BF93BA
:10166000EF93FF938EE394E00E944F05FF91EF917B
:10167000BF91AF919F918F917F916F915F914F91AA
:101680003F912F910F900BBE0F900FBE0F901F90A8
:1016900018951F920F920FB60F9211240BB60F924E
:1016A0002F938F939F93EF93FF93E0914E04F091CC
:1016B0004F048081E0915404F091550482FD1DC0D7
:1016C0009081809157048F5F8F7320915804821707
:1016D00041F0E0915704F0E0E25CFB4F958F80937E
:1016E0005704FF91EF919F918F912F910F900BBE17
:1016F0000F900FBE0F901F9018958081F2CFCF9260
:10170000DF92EF92FF920F931F93E82FF92F05C0FE
:10171000015011092109310961F190819623941733
:10172000B9F305C0015011092109310911F1908166
:1017300096239413F7CFC12CD12CE12CF12C0AC0A5
:101740008FEFC81AD80AE80AF80A0C151D052E05ED
:101750003F0579F080818623841791F36C2D7D2DD0
:101760008E2D9F2D1F910F91FF90EF90DF90CF90C6
:10177000089560E070E080E090E01F910F91FF908D
:10178000EF90DF90CF900895EEE3F4E013821282A1
:1017900088EE93E0A0E0B0E084839583A683B783CE
:1017A00088E392E09183808385EC90E0958784873D
:1017B00084EC90E09787868780EC90E0918B808B1B
:1017C00081EC90E0938B828B82EC90E0958B848B04
:1017D00086EC90E0978B868B118E128E138E148E72
:1017E000EBEDF4E08FEF8083128211821486138672
:1017F0008FEF9FEFDC0187839087A187B2870895E1
:10180000CF93DF931F921F92CDB7DEB7789484B544
:10181000826084BD84B5816084BD85B5826085BDEC
:1018200085B5816085BD80916E00816080936E007A
:10183000109281008091810082608093810080916C
:10184000810081608093810080918000816080931D
:1018500080008091B10084608093B1008091B000DD
:1018600081608093B00080919100826080939100AC
:1018700080919100816080939100809190008160BF
:10188000809390008091A10082608093A10080915C
:10189000A10081608093A1008091A000816080936D
:1018A000A00080912101826080932101809121011B
:1018B00081608093210180912001816080932001CB
:1018C00080917A00846080937A0080917A008260AF
:1018D00080937A0080917A00816080937A00809171
:1018E0007A00806880937A001092C100E6E0F2E00E
:1018F0002491E0ECF1E08491882399F090E0880F46
:10190000991FFC01E059FE4FA591B491FC01EC55E3
:10191000FE4F859194918FB7F894EC91E22BEC9364
:101920008FBF67E0E62E62E0F62EF701249171EC9E
:10193000C72E71E0D72EF60184918823C9F090E07C
:10194000880F991FFC01E059FE4FA591B491FC014D
:10195000EC55FE4F459154913FB7F8949C91822FDE
:10196000809598239C93FA019081892380833FBFBF
:10197000E0914E04F0914F0482E08083E0914A04AC
:10198000F0914B041082E0914C04F0914D048FECE7
:10199000808310925604E0915204F091530486E043
:1019A0008083E0915004F0915104808180618083B4
:1019B000E0915004F0915104808188608083E0912F
:1019C0005004F0915104808180688083E09150043C
:1019D000F091510480818F7D80838FE096E0909319
:1019E000E7048093E60488E99AE3A0E0B0E08093FE
:1019F000E2049093E304A093E404B093E50480919F
:101A00005F02811145C010925102109250028FEF77
:101A1000809354028093550280935602809357021C
:101A2000809358028093590281E080935A02109269
:101A30005C0210925B02109253021092520280914B
:101A4000380490913904892B31F48EE492E090931C
:101A5000390480933804E0914C02F0914D023097A4
:101A600021F08EE492E0958384838EE492E090935B
:101A70004D0280934C0210925E0210925D0286E24B
:101A800092E090934F0280934E0281E080935F0238
:101A9000809101018062809301018CE692E0909335
:101AA00051028093500286E990E090935C0280930B
:101AB0005B028091DE049091DF04A091E004B0917C
:101AC000E104843CF9E09F07A105B10520F484EC12
:101AD00099E0A0E0B0E08093DE049093DF04A0934F
:101AE000E004B093E10484E68093DB040E94540296
:101AF0000E942F022B013C0148EE842E43E0942EDD
:101B0000A12CB12C0E942F0264197509860997092E
:101B1000683E734081059105A8F321E0821A91087F
:101B2000A108B10888EE480E83E0581E611C711CA4
:101B300081149104A104B10429F793E0892E912C1A
:101B400023E2622E712C36E9A32EB12C80E00E9494
:101B50007C01C4010197F1F781E00E947C01C3017F
:101B60000197F1F780E00E947C01F7016491F60192
:101B70008491E82FF0E0EE0FFF1FE657FE4F8591AE
:101B8000949100E412E42FE030E0462F0E947F0B96
:101B9000611571058105910529F06F5F7F4F8F4FAA
:101BA0009F4F9F70693071058105910520F469E0B0
:101BB00070E080E090E00E947E0E26E933E44BE086
:101BC0005DE30E94E20E20E030E040E05FE30E942F
:101BD000E20E0E94460E7093110260931002BA82C8
:101BE000A98230E020E04CE052E06EE072E0CE01ED
:101BF00001960E947903BA82A9822AE030E048E087
:101C000052E06AE072E0CE0101960E947903BA8246
:101C1000A98224E130E044E052E066E072E0CE01C7
:101C200001960E947903BA82A9822EE130E040E059
:101C300052E062E072E0CE0101960E9479032090AA
:101C40000E0230900F02032C000C440855084AE0A5
:101C5000C201B10157FE0DC06DE28EE394E00E9417
:101C6000710566277727CB016219730984099509E5
:101C70004AE00E94850A42E050E066E472E08EE3AA
:101C800094E00E94DB040E94DE0560CF0E944D0EAE
:101C90006894B1110C94DC0E08950E94C10E88F076
:101CA0009F5798F0B92F9927B751B0F0E1F0660F20
:101CB000771F881F991F1AF0BA95C9F714C0B13061
:101CC00091F00E94DB0EB1E008950C94DB0E672FBB
:101CD000782F8827B85F39F0B93FCCF38695779590
:101CE0006795B395D9F73EF4909580957095619579
:101CF0007F4F8F4F9F4F0895E89409C097FB3EF4A4
:101D000090958095709561957F4F8F4F9F4F992348
:101D1000A9F0F92F96E9BB279395F69587957795C6
:101D20006795B795F111F8CFFAF4BB0F11F460FF86
:101D30001BC06F5F7F4F8F4F9F4F16C0882311F0DE
:101D400096E911C0772321F09EE8872F762F05C0F2
:101D5000662371F096E8862F70E060E02AF09A958D
:101D6000660F771F881FDAF7880F9695879597F982
:101D7000089557FD9058440F551F59F05F3F71F07B
:101D80004795880F97FB991F61F09F3F79F08795E2
:101D90000895121613061406551FF2CF4695F1DF6B
:101DA00008C0161617061806991FF1CF86957105FB
:101DB000610508940895E894BB2766277727CB012F
:101DC00097F908950E94F50E0C94660F0E94580F23
:101DD00038F00E945F0F20F0952311F00C944F0F04
:101DE0000C94550F11240C94DC0E0E94B90E70F364
:101DF000959FC1F3950F50E0551F629FF001729FB0
:101E0000BB27F00DB11D639FAA27F00DB11DAA1FBE
:101E1000649F6627B00DA11D661F829F2227B00D0B
:101E2000A11D621F739FB00DA11D621F839FA00D96
:101E3000611D221F749F3327A00D611D231F849FE6
:101E4000600D211D822F762F6A2F11249F5750403D
:101E50009AF0F1F088234AF0EE0FFF1FBB1F661FB8
:101E6000771F881F91505040A9F79E3F510580F081
:101E70000C944F0F0C94DC0E5F3FE4F3983ED4F3C8
:101E8000869577956795B795F795E7959F5FC1F725
:101E9000FE2B880F911D9695879597F9089597F9D0
:101EA0009F6780E870E060E008959FEF80EC089500
:101EB00000240A9416161706180609060895002429
:101EC0000A9412161306140605060895092E0394A3
:101ED000000C11F4882352F0BB0F40F4BF2B11F417
:101EE00060FF04C06F5F7F4F8F4F9F4F0895DB01EE
:101EF0008F939F930E94CC0FBF91AF91A29F800DB3
:101F0000911DA39F900DB29F900D1124089597FBF2
:101F1000072E16F4009407D077FD09D00E94D70F42
:101F200007FC05D03EF4909581959F4F08957095DC
:101F300061957F4F0895A1E21A2EAA1BBB1BFD01DC
:101F40000DC0AA1FBB1FEE1FFF1FA217B307E40798
:101F5000F50720F0A21BB30BE40BF50B661F771FF0
:101F6000881F991F1A9469F76095709580959095D0
:101F70009B01AC01BD01CF010895EE0FFF1F881F2B
:101F80008BBF0790F691E02D19940E94EB0FB7FFDD
:101F90000895821B930B08950E94EB0FA59F900D4F
:101FA000B49F900DA49F800D911D11240895AA1B2C
:101FB000BB1B51E107C0AA1FBB1FA617B70710F034
:101FC000A61BB70B881F991F5A95A9F78095909566
:101FD000BC01CD010895A29FB001B39FC001A39F92
:101FE000700D811D1124911DB29F700D811D112452
:101FF000911D089581E090E0F8940C94FF0FF894FF
:02200000FFCF10
:10200200CEFF64009CFF1E00F6FF9600E2FFFA007E
:10201200010000000000D30AD30AD30A650A610A4C
:102022005E0A000000001B0ABF09B909650A610ABD
:10203200D8043D07000000007105DB040805BE0559
:0A204200390517052B050D0A0000F3
:00000001FF
