:100000000C9408010C9439010C9439010C943901B9
:100010000C9439010C9439010C9439010C94390178
:100020000C9439010C9439010C9439010C94390168
:100030000C9439010C9439010C9439010C94390158
:100040000C9439010C9439010C9439010C94390148
:100050000C9439010C9439010C9439010C94D10C95
:100060000C9439010C94450D0C941B0D0C94390122
:100070000C9439010C9439010C9439010C94390118
:100080000C9439010C9439010C9439010C94390108
:100090000C9439010C9439010C9439010C943901F8
:1000A0000C9439010C9439010C9439010C943901E8
:1000B0000C9439010C9439010C9439010C943901D8
:1000C0000C9439010C9439010C9439010C943901C8
:1000D0000C9439010C9439010C9439010C943901B8
:1000E0000C9439010C942D0C0C94860A0C94350355
:1000F0000C94C9070C9443030C94CF0C0C942A0A5B
:100100000C94E5020C947B030C9419040C941203D8
:100110000C94E2020C94C00D0C9421030C94280A58
:100120000C94340C0C9447050C94C3070C94C8032E
:100130000C94300C00002100240027002A002D0020
:100140003000330001010000040107010A01000032
:1001500020002300260029002C002F00320000017F
:10016000000003010601090100002200250028000B
:100170002B002E00310034000201000005010801AF
:100180000B0105050505070508080808020202021B
:100190000A0A080804040404010101010101010123
:1001A0000303030303030303040707070C0C0C0CEE
:1001B0000C0C0C0C020202020606060606060606D7
:1001C0000B0B0B0B0B0B0B0B010210202008081064
:1001D00020401020408002010201080402010102B7
:1001E0000408102040808040201008040201800490
:1001F00002018040201008040201080402010102EB
:100200000408102040800102040810204080C00D26
:1002100011241FBECFEFD1E2DEBFCDBF00E00CBF87
:1002200012E0A0E0B2E0E0E6F4E200E00BBF02C0C2
:1002300007900D92A236B107D9F728E0A2E6B2E006
:1002400001C01D92AF39B207E1F711E0C8E0D1E07B
:1002500000E006C021970109802FFE010E941212C2
:10026000C730D10780E00807A9F70E94FC0D0C9465
:100270002E120C940000DC0117962C91179730E099
:10028000F901E853FE4FE4911696EC9316972E571A
:100290003E4FF9018491E82FF0E0EE0FFF1FE8597F
:1002A000FE4F8591949113969C938E931297F9012A
:1002B0002491E22FF0E0EE0FFF1FE25BFE4F8591ED
:1002C000949115969C938E93149708953FB7F89444
:1002D0008091E1079091E207A091E307B091E407D4
:1002E00026B5A89B05C02F3F19F00196A11DB11D91
:1002F0003FBFBA2FA92F982F8827BC01CD01620FCD
:10030000711D811D911D42E0660F771F881F991F87
:100310004A95D1F708954F925F926F927F929F9284
:10032000AF92BF92CF92DF92EF92FF920F931F9303
:10033000CF93DF9300D0CDB7DEB7D82E809195084C
:1003400090919608A0919708B0919808892B8A2BD4
:100350008B2BD9F00E9466010091F1071091F207F2
:100360002091F3073091F407601B710B820B930B04
:10037000009195081091960820919708309198085F
:100380006017710782079307C8F20E9466016093A5
:10039000F1077093F2078093F3079093F407E091CD
:1003A0009D08F0919E08309759F04091990850911E
:1003B0009A0860919B0870919C088D2D1995D82EF4
:1003C000E090EF07F090F0074D2C512C712C612C30
:1003D000E114F10409F459C0D7011C96CC901C9784
:1003E00080919308909194088436910510F41C969E
:1003F0001C92D701ED91FC91A280B38019821A82E0
:100400001B82DD2079F1F701369610E000E02191A2
:10041000222319F19280992001F130E050E040E070
:100420002F5F3F4F4F4F5F4FC301B2010E94A61194
:100430009B01AC01892D90E0B0E0A0E0BC01CD01B2
:100440006F5F7F4F8F4F9F4F0E94A611A1E0B0E0DA
:10045000AC0FBD1FA00FB11F8C930F5F1F4F033058
:100460001105A9F609811A812B81F7014585568569
:1004700062817381C701F5011995D7011C96CC9251
:100480001C971496ED90FC90A3CF8091ED0790916E
:10049000EE079C012F5F3F4F3093EE072093ED074F
:1004A00049970CF44AC08FB7F8942091E507309132
:1004B000E6074091E7075091E8078FBF8091E90771
:1004C0009091EA07A091EB07B091EC07281B390B3C
:1004D0004A0B5B0B21F421E030E040E050E0E0917A
:1004E000ED07F091EE0788EE93E0E89FB001E99FF9
:1004F000700DF89F700D1124072E000C880B990BBE
:100500000E94CA1130939408209393081092EE072A
:100510001092ED072FB7F8948091E5079091E607C8
:10052000A091E707B091E8072FBF8093E907909368
:10053000EA07A093EB07B093EC070F900F900F9092
:10054000DF91CF911F910F91FF90EF90DF90CF90AF
:10055000BF90AF909F907F906F905F904F90089565
:100560008F929F92AF92BF92CF92DF92EF92FF92C3
:100570004B015C010E9466016B017C010E946601D7
:100580006C197D098E099F09683E734081059105AC
:10059000A8F321E0821A9108A108B10888EEC80EDC
:1005A00083E0D81EE11CF11C81149104A104B10464
:1005B00029F7FF90EF90DF90CF90BF90AF909F9082
:1005C0008F90089580E991E00895AF92BF92CF9205
:1005D000DF92EF92FF920F931F93CF93DF936C0103
:1005E0007B018B01040F151FEB015E01AE18BF08E4
:1005F000C017D10759F06991D601ED91FC91019096
:10060000F081E02DC6011995892B79F7C501DF919D
:10061000CF911F910F91FF90EF90DF90CF90BF90FF
:10062000AF900895FC01538D448D252F30E0842F29
:1006300090E0821B930B541710F0CF96089501970A
:100640000895FC01918D828D981761F0A28DAE0FF7
:10065000BF2FB11D5D968C91928D9F5F9F73928F7E
:1006600090E008958FEF9FEF0895FC01918D828DAA
:10067000981731F0828DE80FF11D858D90E0089577
:100680008FEF9FEF0895FC01918D228D892F90E0CF
:10069000805C9F4F821B91098F739927089585EF86
:1006A00097E00E94430321E0892B09F420E0822F88
:1006B0000895FC01A48DA80FB92FB11DA35ABF4FF7
:1006C0002C91848D90E001968F739927848FA68951
:1006D000B7892C93A089B1898C91837080648C93A5
:1006E000938D848D981306C00288F389E02D808154
:1006F0008F7D80830895EF92FF920F931F93CF9386
:10070000DF93EC0181E0888F9B8D8C8D98131AC04C
:10071000E889F989808185FF15C09FB7F894EE8933
:10072000FF896083E889F989808183708064808390
:100730009FBF81E090E0DF91CF911F910F91FF90DB
:10074000EF900895F62E0B8D10E00F5F1F4F0F7383
:100750001127E02E8C8D8E110CC00FB607FCFACF3E
:10076000E889F989808185FFF5CFCE010E94590380
:10077000F1CFEB8DEC0FFD2FF11DE35AFF4FF0820F
:100780009FB7F8940B8FEA89FB8980818062CFCF75
:10079000CF93DF93EC01888D8823B9F0AA89BB89B8
:1007A000E889F9898C9185FD03C0808186FD0DC0A3
:1007B0000FB607FCF7CF8C9185FFF2CF808185FFC4
:1007C000EDCFCE010E945903E9CFDF91CF9108957B
:1007D00080E090E0892B29F00E944F0381110E9454
:1007E000000080E090E0892B49F080E090E0892BC8
:1007F00029F00E94000081110E94000080E090E03A
:10080000892B49F080E090E0892B29F00E940000BC
:1008100081110E94000080E090E0892B49F080E087
:1008200090E0892B29F00E94000081110C940000B7
:1008300008952F923F924F925F926F927F928F9284
:100840009F92AF92BF92CF92DF92EF92FF920F935F
:100850001F93CF93DF9300D000D000D0CDB7DEB789
:10086000898749835A836B837C830091EF071091BA
:10087000F007BDE78B2E912CA12CB12C0115110591
:1008800009F46BC0D801ED91FC910084F185E02D55
:10089000C80119951C01D8011296ED91FC91C12C4B
:1008A000D12C7601412C512C320120E030E0A901FD
:1008B000009791F06081260F311D411D511D61810E
:1008C000460E511C611C711C6281C60ED11CE11CBC
:1008D000F11C01973396ECCFA0E5B0E00E94F31134
:1008E0006D837E838F839887A7E3B0E0A301920195
:1008F0000E94F3112B013C01ABE4B0E0A70196018B
:100900000E94F3112D813E814F815885C32ED42E34
:10091000E52EFF2445E0429D9001439D300D1124BA
:10092000C20ED31EE11CF11C8C0C9D1CAE1CBF1C06
:10093000452C562C672C7724840C951CA61CB71CC0
:10094000472F582F692F7727840E951EA61EB71E96
:10095000D80114960D911C9191CFB985CB2ED12C35
:10096000F12CE12CA7019601C501B4010E94A6114A
:10097000872E982EA92EBB2429813A814B815C8138
:1009800082169306A406B50668F0A7019601698150
:100990007A818B819C810E94A611A50194010E94FD
:1009A000CA112987898529960FB6F894DEBF0FBE34
:1009B000CDBFDF91CF911F910F91FF90EF90DF900E
:1009C000CF90BF90AF909F908F907F906F905F90EF
:1009D0004F903F902F900895FC01A281B3819C918C
:1009E00086812681982381E0921380E00895FC019E
:1009F00086810280F381E02D908180958923808318
:100A00000895FC0196810280F381E02D8081892B7D
:100A1000808308950F931F93CF93DF9320916502F6
:100A20002F5F322F37703093650220FF2BC020E8F4
:100A300031FD2064347009F02062205FFC01EC017C
:100A4000239600E011E06485662329F070E0C80178
:100A50000E94B6116F5F6187322F369F030E30E020
:100A6000311D1124311110C01682662311F061501E
:100A700061873196EC17FD0731F7DF91CF911F9118
:100A80000F91089520E0D4CF31503683EECF4F92AE
:100A90005F927F928F929F92AF92BF92CF92DF929E
:100AA000EF92FF920F931F93CF93DF932C01EB01F3
:100AB0000E946601F20127853089621B730B6A3040
:100AC0007105B0F3F8948A819B81181619060CF011
:100AD000E8C1E881F9810091020100627091020190
:100AE0007F7D70930201BA848F812B2D281B822F6A
:100AF0002F834F85042E000C550BAA81BB81ED84FA
:100B0000DC84CE84E394D394C3949E813885998405
:100B10008B84118120E0F32E622F322F3181112737
:100B200088943111380F08F43FEF81958894E0FCE8
:100B3000130F17958894E1FC130F17958894E2FC26
:100B4000130F17958894E3FC130F17958894E4FC12
:100B5000130F17958894E5FC130F17958894E6FCFE
:100B6000130F17958894E7FC130F17958894232F7C
:100B7000E110212F8B0D122F002C00930201002C6D
:100B800017FF7093020130812227889400C000C0B3
:100B9000709302013111390F00C000930201002C43
:100BA00016FF7093020108F43FEF9195889400C0FE
:100BB00000C070930201D0FC230F00C0009302011B
:100BC000002C15FF7093020127958894D1FC230F08
:100BD00000C000C0709302012795889400C0009364
:100BE0000201002C14FF70930201D2FC230F279501
:100BF000889400C000C070930201D3FC230F00C092
:100C000000930201002C13FF709302012795889432
:100C1000D4FC230F00C000C0709302012795889474
:100C200000C000930201002C12FF70930201D5FC5A
:100C3000230F2795889400C000C070930201D6FC52
:100C4000230F00C000930201002C11FF70930201DA
:100C500027958894D7FC230F00C000C07093020131
:100C60002795889400C000930201002C10FF709318
:100C70000201132FD110122F990D00C000C07093E4
:100C8000020100C000C000930201002C17FF709306
:100C9000020132812227889400C000C070930201B3
:100CA00031113F0D00C000930201002C16FF70931C
:100CB000020108F43FEFE40FF51F00C000C070937D
:100CC0000201C0FC230F00C000930201002C15FF9D
:100CD0007093020127958894C1FC230F00C000C0C7
:100CE000709302012795889400C000930201002CA4
:100CF00014FF70930201C2FC230F2795889400C053
:100D000000C070930201C3FC230F00C000930201D6
:100D1000002C13FF7093020127958894C4FC230FC5
:100D200000C000C0709302012795889400C0009312
:100D30000201002C12FF70930201C5FC230F2795BE
:100D4000889400C000C070930201C6FC230F00C04D
:100D500000930201002C11FF7093020127958894E3
:100D6000C7FC230F00C000C0709302012795889430
:100D700000C000930201002C10FF70930201132F9A
:100D8000C110122FF19400C000C070930201F80C42
:100D900000C0002C00930201002C17FF7093020189
:100DA00031812227889400C000C070930201311164
:100DB000380F00C000930201002C16FF709302014F
:100DC00008F43FEF8195889400C000C07093020141
:100DD000E0FC230F00C000930201002C15FF70936C
:100DE000020127958894E1FC230F00C000C0709396
:100DF00002012795889400C000930201002C14FF83
:100E000070930201E2FC230F2795889400C000C074
:100E100070930201E3FC230F00C000930201002C39
:100E200013FF7093020127958894E4FC230F00C000
:100E300000C0709302012795889400C000930201BE
:100E4000002C12FF70930201E5FC230F2795889474
:100E500000C000C070930201E6FC230F00C00093A5
:100E60000201002C11FF7093020127958894E7FC82
:100E7000230F00C000C0709302012795889400C022
:100E800000930201002C10FF70930201132FE11058
:100E9000122F8B0D00C000C070930201119709F052
:100EA0006CCE4A815B8120EE31E0DA010E94EC11C8
:100EB000DC01CB01F4E0B695A79597958795FA9557
:100EC000D1F730E020E0B901EAE94E9F040E611D40
:100ED0005E9F600D711D1124650F711D860F971F98
:100EE000A11DB11D893E43E09407A105B10508F499
:100EF00034C0885E9340A109B10942E0B695A79538
:100F0000979587954A95D1F747E0849F080E211D54
:100F1000949F200D311D1124290F311D6091640211
:100F200070E0860F971F820F931F4091E507509145
:100F3000E6076091E7077091E807292F3327420FF2
:100F4000531F611D711D4093E5075093E6076093A1
:100F5000E7077093E8078093640278940E94660123
:100F6000F201708B6787DF91CF911F910F91FF90F6
:100F7000EF90DF90CF90BF90AF909F908F907F9039
:100F80005F904F900895E1E0F1E08081806280837E
:100F900008954F925F927F928F929F92AF92BF92ED
:100FA000CF92DF92EF92FF920F931F93CF93DF9335
:100FB0002C01EB010E946601F20127853089621B3A
:100FC000730B6A307105B0F3F8948A819B8118160F
:100FD00019060CF0CBC1E881F98105B1006175B14A
:100FE0007F7E75B9BA848F812B2D281B822F2F838A
:100FF0004F85042E000C550BAA81BB81ED84DC8447
:10100000CE84E394D394C3949E81388599848B8451
:10101000118120E0F32E622F322F31811127889425
:101020003111380F08F43FEF81958894E0FC130FDD
:1010300017958894E1FC130F17958894E2FC130F21
:1010400017958894E3FC130F17958894E4FC130F0D
:1010500017958894E5FC130F17958894E6FC130FF9
:1010600017958894E7FC130F17958894232FE110A8
:10107000212F8B0D122F002C05B900C017FF75B959
:1010800030812227889400C000C0002C75B931112E
:10109000390F00C0002C05B900C016FF75B908F45F
:1010A0003FEF9195889400C000C0002C75B9D0FC2A
:1010B000230F00C0002C05B900C015FF75B9279596
:1010C0008894D1FC230F00C000C0002C75B927956F
:1010D000889400C0002C05B900C014FF75B9D2FC7B
:1010E000230F2795889400C000C0002C75B9D3FC4D
:1010F000230F00C0002C05B900C013FF75B9279558
:101100008894D4FC230F00C000C0002C75B927952B
:10111000889400C0002C05B900C012FF75B9D5FC39
:10112000230F2795889400C000C0002C75B9D6FC09
:10113000230F00C0002C05B900C011FF75B9279519
:101140008894D7FC230F00C000C0002C75B92795E8
:10115000889400C0002C05B900C010FF75B9132F8A
:10116000D110122F990D00C000C0002C75B900C01D
:1011700000C0002C05B900C017FF75B932812227C5
:10118000889400C000C0002C75B931113F0D00C01B
:10119000002C05B900C016FF75B908F43FEFE40F45
:1011A000F51F00C000C0002C75B9C0FC230F00C0A3
:1011B000002C05B900C015FF75B927958894C1FCAE
:1011C000230F00C000C0002C75B92795889400C07B
:1011D000002C05B900C014FF75B9C2FC230F279578
:1011E000889400C000C0002C75B9C3FC230F00C058
:1011F000002C05B900C013FF75B927958894C4FC6D
:10120000230F00C000C0002C75B92795889400C03A
:10121000002C05B900C012FF75B9C5FC230F279536
:10122000889400C000C0002C75B9C6FC230F00C014
:10123000002C05B900C011FF75B927958894C7FC2B
:10124000230F00C000C0002C75B92795889400C0FA
:10125000002C05B900C010FF75B9132FC110122F53
:10126000F19400C000C0002C75B9F80C00C000C09B
:1012700005B900C017FF75B931812227889400C0D5
:1012800000C0002C75B93111380F00C0002C05B911
:1012900000C016FF75B908F43FEF8195889400C02F
:1012A00000C0002C75B9E0FC230F00C0002C05B96C
:1012B00000C015FF75B927958894E1FC230F00C085
:1012C00000C0002C75B92795889400C0002C05B982
:1012D00000C014FF75B9E2FC230F2795889400C065
:1012E00000C0002C75B9E3FC230F00C0002C05B929
:1012F00000C013FF75B927958894E4FC230F00C044
:1013000000C0002C75B92795889400C0002C05B941
:1013100000C012FF75B9E5FC230F2795889400C023
:1013200000C0002C75B9E6FC230F00C0002C05B9E5
:1013300000C011FF75B927958894E7FC230F00C002
:1013400000C0002C75B92795889400C0002C05B901
:1013500000C010FF75B9132FE110122F8B0D00C0C4
:1013600000C0002C75B9119709F086CE4A815B81C7
:1013700020EE31E0DA010E94EC11DC01CB01F4E057
:10138000B695A79597958795FA95D1F730E020E027
:10139000B901EAE94E9F040E611D5E9F600D711D4B
:1013A0001124650F711D860F971FA11DB11D893E68
:1013B00043E09407A105B10508F434C0885E93406A
:1013C000A109B10942E0B695A795979587954A95E9
:1013D000D1F747E0849F080E211D949F200D311DF9
:1013E0001124290F311D6091640270E0860F971F50
:1013F000820F931F4091E5075091E6076091E70740
:101400007091E807292F3327420F531F611D711D6B
:101410004093E5075093E6076093E7077093E8076A
:101420008093640278940E946601F201708B678752
:10143000DF91CF911F910F91FF90EF90DF90CF90B0
:10144000BF90AF909F908F907F905F904F90089546
:10145000249A08956F927F928F92CF92DF92EF92AB
:10146000FF920F931F93CF93DF93CDB7DEB76297B1
:101470000FB6F894DEBF0FBECDBF6C017A01380104
:10148000822EDC011C962C91CA0157FF04C08827CC
:101490009927841B950B7A8369839C838B839E8316
:1014A0008D836D867E868F86213049F5CE0101962B
:1014B0000E940A0583E0888B1A8A198AF7FE02C007
:1014C0008DEF888BD601ED91FC910484F585E02D9C
:1014D000BE016F5F7F4FC601199562960FB6F894F3
:1014E000DEBF0FBECDBFDF91CF911F910F91FF9057
:1014F000EF90DF90CF908F907F906F9008951C8633
:101500001B861A86198618861F82D4CFEF92FF9207
:101510000F931F93CF93DF93CDB7DEB762970FB6CC
:10152000F894DEBF0FBECDBF7C01DC011C968C9110
:101530007A8369835C834B835E834D830D871E872B
:101540002F878130F9F4CE0101960E940A05188A8E
:101550001A8A198AD701ED91FC910484F585E02D52
:10156000BE016F5F7F4FC701199562960FB6F89461
:10157000DEBF0FBECDBFDF91CF911F910F91FF90C6
:10158000EF9008951C861B861A86198618861F827E
:10159000DECFAF92BF92CF92DF92EF92FF920F9386
:1015A0001F93CF93DF93FC015B017A01E9018091E6
:1015B00016029091170261E070E0889714F462E0DF
:1015C00070E088819981D5012D913C9128173907C8
:1015D00024F0860F971F9983888328813981D5014C
:1015E0008D919C91821793072CF411950195110907
:1015F000198308838881998197FDCEC08091160256
:1016000090911702C2978CF4D7018D919C911197FC
:101610008F3F910519F014F01D921C92D7018D9106
:101620009C91119701968D939C93D7014C91888141
:1016300099818C01000F111F080F191F0E0F1F1F1A
:10164000842F880F880F880F55E5382F359F030E9C
:1016500030E0311D1124932F342F3074242F207249
:1016600047FD6DC0311156C0211106C0392F30958C
:10167000892F932F30E004C085E5890F30E09BEA85
:10168000D8019C9311968C93119712963C93D70195
:101690004D915C910881198135E5D32EC12CABEABF
:1016A000EA2EAAEAC801861B970B97FD72C020910B
:1016B0001602309117022233310544F44F3F510591
:1016C00019F014F050E040E04F5F5F4FEC01CC0F99
:1016D000DD1FC80FD91FCE0FDF1FB42FBB0FBB0FED
:1016E000BB0F2B2F3D2D239F020E20E0211D112427
:1016F000922F242F2074842F8072F82E47FD7EC0F5
:1017000021116AC081113EC0292F2095892F922F67
:1017100020E03CC021110DC0382F4AEA349F030E4F
:1017200030E0311D11248BEA831B382F8AEA890FA0
:10173000A0CF80E0892F8095392F90E0A1CF311183
:1017400011C021110BC0382F2AEA329F030E30E05E
:10175000311D11248BEA831B3B5AEFCF392F309573
:1017600080E08ECF211106C085E5890F3BEA391B49
:10177000982FF6CF8AEA890F20E0352FF8CF61E065
:1017800070E090CF85E5890F20E09BEA98838983FC
:101790002A836130710599F7D5014D915C9190E0F4
:1017A00080E03AEF841795070CF047C02081239F13
:1017B000020E20E0211D20832181239F020E20E0C4
:1017C000211D21832281239F020E20E0211D2283DF
:1017D000112401963396E6CF81110BC09D01329FF3
:1017E000030E30E0311D11242E2D231B8AEA890FB0
:1017F0008ECF892F8095292F90E0C8CF211111C05D
:1018000081110BC02B2F3A2F239F020E20E0211DA8
:1018100011248E2D821B2B5AEFCF292F209580E08B
:10182000B5CF811106C085E5890F2E2D291B982F74
:10183000F6CF8AEA890F2D2DF9CF61E070E080E0C4
:1018400090E0DF91CF911F910F91FF90EF90DF908B
:10185000CF90BF90AF900C94B00290E080E00895DC
:10186000FC018585968508950F931F93CF93DF9391
:1018700000D0CDB7DEB7AB0119821A821B82DC0122
:10188000ED91FC910190F081E02D00E010E020E06E
:10189000BE016F5F7F4F19950F900F900F90DF91F2
:1018A000CF911F910F910895FC018CE192E09183FB
:1018B0008083138212828FEF86838783808781875C
:1018C0008287838781E08487168615861582148235
:1018D0008091EF079091F007892B21F4F093F007A6
:1018E000E093EF07A0916202B0916302109721F09C
:1018F0001596FC93EE931497F0936302E0936202C3
:1019000008958F929F92AF92BF920F931F93CF93A0
:10191000DF93CDB7DEB7A1970FB6F894DEBF0FBE49
:10192000CDBF19A2423008F44AE08E010F5D1F4F6F
:10193000842E912CB12CA12CA50194010E94CA11D6
:10194000E62FB901CA01EA3044F5E05DD801EE9313
:101950008D01232B242B252B79F790E080E0109725
:1019600069F0FD0101900020E9F73197AF014A1BB2
:101970005B0BBD0185EF97E00E94E502A1960FB6D3
:10198000F894DEBF0FBECDBFDF91CF911F910F91B5
:10199000BF90AF909F908F900895E95CD7CF0E9441
:1019A00029121F920F920FB60F9211242F933F937B
:1019B0008F939F93AF93BF938091E5079091E60734
:1019C000A091E707B091E8073091E00723E0230FEB
:1019D0002D3758F50196A11DB11D2093E007809386
:1019E000E5079093E607A093E707B093E807809197
:1019F000E1079091E207A091E307B091E407019617
:101A0000A11DB11D8093E1079093E207A093E30726
:101A1000B093E407BF91AF919F918F913F912F9128
:101A20000F900FBE0F901F90189526E8230F029677
:101A3000A11DB11DD2CF1F920F920FB60F9211248C
:101A40000BB60F922F933F934F935F936F937F93B8
:101A50008F939F93AF93BF93EF93FF9385EF97E09F
:101A60000E945903FF91EF91BF91AF919F918F9188
:101A70007F916F915F914F913F912F910F900BBE8E
:101A80000F900FBE0F901F9018951F920F920FB6D8
:101A90000F9211240BB60F922F938F939F93EF9376
:101AA000FF93E0910508F09106088081E0910B0812
:101AB000F0910C0882FD1DC0908180910E088F5F0F
:101AC0008F7320910F08821741F0E0910E08F0E02B
:101AD000EB50F84F958F80930E08FF91EF919F91F7
:101AE0008F912F910F900BBE0F900FBE0F901F90F4
:101AF00018958081F2CFCF92DF92EF92FF920F93F1
:101B00001F93E82FF92F05C0015011092109310950
:101B100061F1908196239417B9F305C00150110922
:101B20002109310911F1908196239413F7CFC12C2B
:101B3000D12CE12CF12C0AC08FEFC81AD80AE80A80
:101B4000F80A0C151D052E053F0579F080818623C6
:101B5000841791F36C2D7D2D8E2D9F2D1F910F914C
:101B6000FF90EF90DF90CF90089560E070E080E00C
:101B700090E01F910F91FF90EF90DF90CF9008952C
:101B8000E5EFF7E01382128288EE93E0A0E0B0E088
:101B900084839583A683B78380E592E091838083D5
:101BA00085EC90E09587848784EC90E09787868722
:101BB00080EC90E0918B808B81EC90E0938B828B1A
:101BC00082EC90E0958B848B86EC90E0978B868BF3
:101BD000118E128E138E148EE2E9F8E08FEF80835F
:101BE00012821182148613868FEF9FEFDC018783A8
:101BF0009087A187B2870895CF93DF931F921F929A
:101C0000CDB7DEB7789484B5826084BD84B5816039
:101C100084BD85B5826085BD85B5816085BD8091B7
:101C20006E00816080936E0010928100809181002F
:101C30008260809381008091810081608093810027
:101C4000809180008160809380008091B1008460E9
:101C50008093B1008091B00081608093B00080914A
:101C600091008260809391008091910081608093C7
:101C70009100809190008160809390008091A100FC
:101C800082608093A1008091A10081608093A10077
:101C90008091A00081608093A000809121018260EA
:101CA00080932101809121018160809321018091A5
:101CB000200181608093200180917A00846080936C
:101CC0007A0080917A00826080937A0080917A0015
:101CD000816080937A0080917A00806880937A0096
:101CE0001092C100EBECF1E02491E5E8F1E0849181
:101CF000882399F090E0880F991FFC01EC5CFE4F5F
:101D0000A591B491FC01E859FE4F859194918FB74C
:101D1000F894EC91E22BEC938FBFEAECF1E0249184
:101D200064E8A62E61E0B62EF50184918823C9F0FF
:101D300090E0880F991FFC01EC5CFE4FA591B491D7
:101D4000FC01E859FE4F459154913FB7F8949C919E
:101D5000822F809598239C93FA0190818923808318
:101D60003FBF89E194E090939E0880939D0888E9A5
:101D70009AE3A0E0B0E08093990890939A08A0932A
:101D80009B08B0939C0880917702811111C086E670
:101D900092E00E94540C10927602109275028CE22E
:101DA00092E0909367028093660281E080937702CD
:101DB00086E692E00E94C3078EE196E09093690266
:101DC0008093680286E990E0909374028093730296
:101DD0008091950890919608A0919708B0919808E5
:101DE000843CF9E09F07A105B10520F484EC99E05B
:101DF000A0E0B0E08093950890939608A093970890
:101E0000B093980880919002811111C08FE792E001
:101E10000E94540C10928F0210928E028EE392E078
:101E20009093800280937F0281E0809390028FE7FD
:101E300092E00E94280A8AE992E0909382028093BD
:101E400081028CE291E090938D0280938C028091CC
:101E5000950890919608A0919708B0919808843CB5
:101E600029E09207A105B10520F484EC99E0A0E0F7
:101E7000B0E08093950890939608A0939708B0934C
:101E8000980884E6809392080E948B0164EF71E0C9
:101E900080E090E00E94B002E0910508F091060811
:101EA00082E08083E0910108F09102081082E091C5
:101EB0000308F09104088FEC808310920D08E091E4
:101EC0000908F0910A0886E08083E0910708F09104
:101ED0000808808180618083E0910708F0910808FC
:101EE000808188608083E0910708F09108088081F4
:101EF00080688083E0910708F091080880818F7DD9
:101F0000808393E0892E912C23E2622E712C36E996
:101F1000E32EF12C4CE2C42EDD24D394759AC40137
:101F20000197F1F77598C3010197F1F7759AEAECFB
:101F3000F1E06491F5018491E82FF0E0EE0FFF1FCE
:101F4000E25BFE4F8591949100E412E42FE030E0D3
:101F5000462F0E947B0D611571058105910529F0C1
:101F60006F5F7F4F8F4F9F4F9F7069307105810565
:101F7000910520F469E070E080E090E00E94AD10EF
:101F800026E933E44BE05DE30E94111120E030E0EC
:101F900040E05FE30E9411110E94751070931702D8
:101FA00060931602FA82E98210E000E022E132E05A
:101FB00044E152E0BE016F5F7F4F8EE196E00E94E8
:101FC000C90AFA82E9820AE010E02EE032E040E13C
:101FD00052E0BE016F5F7F4F8EE196E00E94C90A1A
:101FE000FA82E98204E110E02AE032E04CE052E0BB
:101FF000BE016F5F7F4F8EE196E00E94C90AFA82B0
:10200000E9820EE110E026E032E048E052E0BE0155
:102010006F5F7F4F8EE196E00E94C90ADA82C98223
:1020200004E110E024E032E044E152E0BE016F5FE1
:102030007F4F8AE992E00E94C90ADA82C9820EE1E2
:1020400010E028E932E040E152E0BE016F5F7F4FCF
:102050008AE992E00E94C90ADA82C98210E000E0AF
:1020600022E032E04CE052E0BE016F5F7F4F8AE930
:1020700092E00E94C90ADA82C9820AE010E020E0F8
:1020800032E048E052E0BE016F5F7F4F8AE992E0A4
:102090000E94C90A809192080E948B01209016022A
:1020A00030901702032C000C440855084AE0C20186
:1020B000B10157FE0DC06DE285EF97E00E947B03F2
:1020C00066277727CB0162197309840995094AE0CD
:1020D0000E94810C42E050E06EE572E085EF97E0EF
:1020E0000E94E5020E94E80319CF0E947C106894C8
:1020F000B1110C940B1108950E94F01088F09F57B5
:1021000098F0B92F9927B751B0F0E1F0660F771F1B
:10211000881F991F1AF0BA95C9F714C0B13091F011
:102120000E940A11B1E008950C940A11672F782FCC
:102130008827B85F39F0B93FCCF3869577956795D6
:10214000B395D9F73EF490958095709561957F4F42
:102150008F4F9F4F0895E89409C097FB3EF49095E8
:102160008095709561957F4F8F4F9F4F9923A9F070
:10217000F92F96E9BB279395F695879577956795FF
:10218000B795F111F8CFFAF4BB0F11F460FF1BC043
:102190006F5F7F4F8F4F9F4F16C0882311F096E9D6
:1021A00011C0772321F09EE8872F762F05C0662384
:1021B00071F096E8862F70E060E02AF09A95660F3D
:1021C000771F881FDAF7880F9695879597F90895F6
:1021D00057FD9058440F551F59F05F3F71F04795D8
:1021E000880F97FB991F61F09F3F79F087950895BD
:1021F000121613061406551FF2CF4695F1DF08C0DC
:10220000161617061806991FF1CF869571056105F8
:1022100008940895E894BB2766277727CB0197F9A0
:1022200008950E9424110C9495110E94871138F092
:102230000E948E1120F0952311F00C947E110C94C5
:10224000841111240C940B110E94E81070F3959FD7
:10225000C1F3950F50E0551F629FF001729FBB279D
:10226000F00DB11D639FAA27F00DB11DAA1F649F39
:102270006627B00DA11D661F829F2227B00DA11DEC
:10228000621F739FB00DA11D621F839FA00D611D72
:10229000221F749F3327A00D611D231F849F600D93
:1022A000211D822F762F6A2F11249F5750409AF0BC
:1022B000F1F088234AF0EE0FFF1FBB1F661F771F48
:1022C000881F91505040A9F79E3F510580F00C9413
:1022D0007E110C940B115F3FE4F3983ED4F3869586
:1022E00077956795B795F795E7959F5FC1F7FE2BB3
:1022F000880F911D9695879597F9089597F99F678F
:1023000080E870E060E008959FEF80EC089500247D
:102310000A941616170618060906089500240A944A
:1023200012161306140605060895092E0394000CD0
:1023300011F4882352F0BB0F40F4BF2B11F460FF5F
:1023400004C06F5F7F4F8F4F9F4F0895DB018F93C6
:102350009F930E94F311BF91AF91A29F800D911D99
:10236000A39F900DB29F900D1124089597FB072E07
:1023700016F4009407D077FD09D00E94FE1107FCE7
:1023800005D03EF4909581959F4F08957095619585
:102390007F4F0895A1E21A2EAA1BBB1BFD010DC0A1
:1023A000AA1FBB1FEE1FFF1FA217B307E407F50705
:1023B00020F0A21BB30BE40BF50B661F771F881FE1
:1023C000991F1A9469F760957095809590959B0177
:1023D000AC01BD01CF0108950E941A12B7FF089504
:1023E000821B930B08950E941A12A59F900DB49F13
:1023F000900DA49F800D911D11240895AA1BBB1B55
:1024000051E107C0AA1FBB1FA617B70710F0A61BF4
:10241000B70B881F991F5A95A9F780959095BC0115
:10242000CD010895EE0FFF1F881F8BBF0790F69117
:10243000E02D1994A29FB001B39FC001A39F700D1E
:10244000811D1124911DB29F700D811D1124911DBC
:10245000089581E090E0F8940C942E12F894FFCF48
:10246000CEFF9CFFDDFFCEFF64009CFF1E00F6FF49
:102470009600E2FFFA00010000000000CF0CCF0C34
:10248000CF0C340C300C2D0C00000000860A2A0AF8
:10249000C307340C300CE202470500000000860A36
:1024A0002A0A280A340C300CE202C9070000000096
:1024B0007B03E5021203C8034303210335030D0A1E
:0224C00000001A
:00000001FF
